:020000040800F2
:100000000000022059090008550900089D3D00081C
:1000100055090008550900085509000800000000AE
:10002000000000000000000000000000550900086A
:10003000550900080000000055090008213D00088E
:100040005509000855090008550900085509000818
:100050005509000855090008550900085509000808
:10006000550900085509000855090008612C0008C9
:100070006D2C000855090008792C0008852C000813
:100080009DD000088D210008550900085509000879
:1000900055090008550900085509000855090008C8
:1000A00055090008550900085509000855090008B8
:1000B000C9C40008D5C40008E1C40008C121000873
:1000C00055090008CD210008550900088D360008A3
:1000D00099360008D1CE0008FDCE000831CF0008C7
:1000E00055090008550900080000000055090008DE
:1000F0005509000855090008550900085509000868
:100100005509000855090008EDC40008A536000887
:1001100065CF000899CF0008550900085509000867
:100120005509000855090008C9360008FD360008C1
:10013000D1D00008550900085509000855090008E4
:1001400000000000000000000000000000000000AF
:10015000550900085509000855090008CDCF0008C9
:10016000D921000855090008313D0008553D000817
:1001700055090008793D000855090008550900088F
:10018000550900085509000801D0000835D00008BD
:10019000B1360008BD3600085509000855090008A9
:1001A00055090008550900085509000855090008B7
:1001B000812900085509000855090008550900085B
:1001C0005509000855090008550900085509000897
:1001D0005509000855090008550900085509000887
:1001E0005509000855090008550900085509000877
:1001F0005509000855090008550900085509000867
:100200005509000855090008550900085509000856
:100210005509000855090008550900085509000846
:10022000550900085509000855090008000000009C
:10023000550900085509000800000000550900088C
:100240005509000855090008550900085509000816
:100250005509000855090008550900085509000806
:1002600055090008550900085509000855090008F6
:10027000550900085509000869D000080000000071
:10028000550900085509000855090008000000003C
:08029000000000005509000800
:1002980010B5054C237833B9044B13B10448AFF3B8
:1002A80000800123237010BDE0030024000000003B
:1002B80018FD000808B5034B1BB103490348AFF309
:1002C800008008BD00000000E403002418FD0008B9
:1002D80081F0004102E000BF83F0004330B54FEAEF
:1002E80041044FEA430594EA050F08BF90EA020F5C
:1002F8001FBF54EA000C55EA020C7FEA645C7FEAEF
:10030800655C00F0E2804FEA5454D4EB5555B8BF11
:100318006D420CDD2C4480EA020281EA030382EA82
:10032800000083EA010180EA020281EA0303362D14
:1003380088BF30BD11F0004F4FEA01314FF4801CE7
:100348004CEA113102D0404261EB410113F0004FF9
:100358004FEA03334CEA133302D0524263EB4303B0
:1003680094EA050F00F0A780A4F10104D5F1200E4E
:100378000DDB02FA0EFC22FA05F2801841F10001A9
:1003880003FA0EF2801843FA05F359410EE0A5F17D
:1003980020050EF1200E012A03FA0EFC28BF4CF0AE
:1003A800020C43FA05F3C01851EBE37101F0004564
:1003B80007D54FF0000EDCF1000C7EEB00006EEB71
:1003C8000101B1F5801F1BD3B1F5001F0CD34908FB
:1003D8005FEA30004FEA3C0C04F101044FEA445252
:1003E80012F5800F80F09A80BCF1004F08BF5FEAD9
:1003F800500C50F1000041EB045141EA050130BDB9
:100408005FEA4C0C404141EB0101013C28BFB1F5CA
:10041800801FE9D291F0000F04BF01460020B1FA15
:1004280081F308BF2033A3F10B03B3F120020CDAE8
:100438000C3208DD02F1140CC2F10C0201FA0CF0C6
:1004480021FA02F10CE002F11402D8BFC2F1200C2B
:1004580001FA02F120FA0CFCDCBF41EA0C019040E1
:10046800E41AA2BF01EB0451294330BD6FEA04042A
:100478001F3C1CDA0C340EDC04F11404C4F1200215
:1004880020FA04F001FA02F340EA030021FA04F327
:1004980045EA030130BDC4F10C04C4F1200220FA7E
:1004A80002F001FA04F340EA0300294630BD21FABC
:1004B80004F0294630BD94F0000F83F4801306BF82
:1004C80081F480110134013D4EE77FEA645C18BF76
:1004D8007FEA655C29D094EA050F08BF90EA020F0D
:1004E80005D054EA000C04BF1946104630BD91EA05
:1004F800030F1EBF0021002030BD5FEA545C05D108
:100508004000494128BF41F0004130BD14F5800446
:100518003CBF01F5801130BD01F0004545F0FE41BA
:1005280041F470014FF0000030BD7FEA645C1ABFEF
:10053800194610467FEA655C1CBF0B46024650EA26
:10054800013406BF52EA033591EA030F41F4002152
:1005580030BD00BF90F0000F04BF0021704730B5D8
:100568004FF4806404F132044FF000054FF00001AD
:1005780050E700BF90F0000F04BF0021704730B56E
:100588004FF4806404F1320410F0004548BF404243
:100598004FF000013EE700BF42004FEAE2014FEA98
:1005A80031014FEA02701FBF12F07F4393F07F4F73
:1005B80081F06051704732F07F4208BF704793F076
:1005C8007F4F04BF41F40021704730B54FF4607489
:1005D80001F0004521F000411CE700BF50EA01028C
:1005E80008BF704730B54FF000050AE050EA010235
:1005F80008BF704730B511F0004502D5404261EBA5
:1006080041014FF4806404F132045FEA915C3FF4E5
:10061800D8AE4FF003025FEADC0C18BF03325FEA82
:10062800DC0C18BF033202EBDC02C2F1200300FA33
:1006380003FC20FA02F001FA03FE40EA0E0021FA58
:1006480002F11444BDE600BF53B94AB9002908BFF6
:1006580000281CBF4FF0FF314FF0FF3000F074B995
:10066800ADF1080C6DE904CE00F006F8DDF804E001
:10067800DDE9022304B070472DE9F047089D0446E0
:100688008E46002B4DD18A42944669D9B2FA82F23D
:1006980052B101FA02F3C2F1200120FA01F10CFA79
:1006A80002FC41EA030E94404FEA1C48210CBEFBB1
:1006B800F8F61FFA8CF708FB16E341EA034306FB3A
:1006C80007F199420AD91CEB030306F1FF3080F0C9
:1006D8001F81994240F21C81023E63445B1AA4B216
:1006E800B3FBF8F008FB103344EA034400FB07F7B8
:1006F800A7420AD91CEB040400F1FF3380F00A81F9
:10070800A74240F207816444023840EA0640E41BED
:1007180000261DB1D4400023C5E900433146BDE899
:10072800F0878B4209D9002D00F0EF800026C5E93B
:10073800000130463146BDE8F087B3FA83F6002E53
:100748004AD18B4202D3824200F2F980841A61EBCB
:10075800030301209E46002DE0D0C5E9004EDDE7E9
:1007680002B9FFDEB2FA82F2002A40F09280A1EBD1
:100778000C014FEA1C471FFA8CFE0126200CB1FB26
:10078800F7F307FB131140EA01410EFB03F088421F
:1007980008D91CEB010103F1FF3802D2884200F2AC
:1007A800CB804346091AA4B2B1FBF7F007FB10113E
:1007B80044EA01440EFB00FEA64508D91CEB0404DC
:1007C80000F1FF3102D2A64500F2BB800846A4EB37
:1007D8000E0440EA03409CE7C6F12007B34022FA22
:1007E80007FC4CEA030C20FA07F401FA06F31C4351
:1007F800F9404FEA1C4900FA06F3B1FBF9F8200C5E
:100808001FFA8CFE09FB181140EA014108FB0EF0A3
:10081800884202FA06F20BD91CEB010108F1FF3AF3
:1008280080F08880884240F28580A8F102086144FF
:10083800091AA4B2B1FBF9F009FB101144EA01410D
:1008480000FB0EFE8E4508D91CEB010100F1FF34B8
:100858006CD28E456AD90238614440EA0840A0FB50
:100868000294A1EB0E01A142C846A64656D353D026
:100878005DB1B3EB080261EB0E0101FA07F722FA4A
:1008880006F3F1401F43C5E9007100263146BDE873
:10089800F087C2F12003D8400CFA02FC21FA03F3D6
:1008A800914001434FEA1C471FFA8CFEB3FBF7F057
:1008B80007FB10360B0C43EA064300FB0EF69E427C
:1008C80004FA02F408D91CEB030300F1FF382FD215
:1008D8009E422DD9023863449B1B89B2B3FBF7F6BD
:1008E80007FB163341EA034106FB0EF38B4208D996
:1008F8001CEB010106F1FF3816D28B4214D9023ED7
:100908006144C91A46EA004638E72E46284605E7F4
:100918000646E3E61846F8E64B45A9D2B9EB0208C5
:1009280064EB0C0E0138A3E74646EAE7204694E755
:100938004046D1E7D0467BE7023B614432E7304688
:1009480009E76444023842E7704700BFFEE700BF8A
:100958000B480C4A904203D0121A0B490EF0F2FFD2
:100968000A480B4A904203D0121A00210EF0F8FFF1
:1009780003F066FC0EF0C2FF00F062F8FEE700BF6D
:1009880000000024E003002448FD0008E0030024E0
:10099800A8300024704700BF10B5124982B0002467
:1009A8000122114823460968009401F0BFF80F4955
:1009B8002346012209680E48009401F0B7F80D4952
:1009C8002346012209680C48009401F0AFF80B494E
:1009D8002346224609680A48009401F0A7F802B0A5
:1009E80010BD00BFE0F9000810040024E4F9000875
:1009F80024040024E8F90008FC030024ECF90008AA
:100A0800380400240B4908200B4A002348619088C9
:100A1800B2F800C00B6148800848A1F800C0C1E9DD
:100A28000233C1E90633C1E9083313898B8003F027
:100A380007B800BFA404002478F90008CC040024F7
:100A48002DE9F04100214E482DED028BFAB000F05F
:100A58001BFDFFF7D7FFFFF79FFF00F095F900F0A8
:100A680099F900F08BF94FF6FF7000F03FFC00F0A9
:100A78008BF94FF47A71424800F046FC00F07EF999
:100A8800002000F033FC00F07FF94FF47A713C4805
:100A980000F03AFC0DF5F3710DF10603A02223F8DE
:100AA800022F9942FAD1B7EE008ADFED368A00F0BC
:100AB80065F90DF106079FED330A002507E007EEFB
:100AC800105AB8EEC70A20EE270A0EF0FDFDDFED3A
:100AD8002E7A40F23D1E37F802CFAEB220EE270A3A
:100AE8000122ACF102014FF000080523304620EE48
:100AF800080A154489B2BDEEC00A10EE104AA034A7
:100B08007445A8BF7446022CB8BF0224A4B2A445F9
:100B180024D0CDF8008000F0D9FBA11E30461F225A
:100B280089B200F0ABFB611E304640F2FF7289B219
:100B380000F0A4FB214630464FF6FF7200F09EFB02
:100B4800611C304640F2FF7289B200F097FBA11C8D
:100B58001F22304689B200F091FB3C80F02DDFED7A
:100B68000B7AACD1F7EE007A9FED090A78EEA78AE6
:100B780028EE800A0EF0ACFCB0EE408A99E700BF80
:100B88004C0400240000000000005C42920A863DEC
:100B9800295C8F3D38B517480024174A1749046067
:100BA80044610462C4630EF08DFC4FF60B71144A65
:100BB8001448154B154DC2E90014C2E90244144A01
:100BC8002C60C2E90014C2E90244124AC0E90014C8
:100BD800C2E90014C0E90244C2E902440820022222
:100BE8000D495A62102258610C60C3E906440B4B48
:100BF8001A7438BD4C040024000000249D09000824
:100C08001004002424040024A4040024CC04002498
:100C1800FC03002438040024A00400248C040024CD
:100C28002DE9F0432A2783B0DFF8B88015468DF800
:100C3800047006462A4F0C4640460021994601F0AA
:100C480067F86423012201A9384602F081FF8DF874
:100C580005608DF80750360A2D0A404601218DF8A7
:100C680004608DF8065001F053F8042264233846D6
:100C78000DEB020102F06CFF2B23404600218DF89A
:100C8800043001F045F8012201A96423384602F036
:100C98005FFF8DF805404FEA19234046240A0121D9
:100CA8008DF806308DF804408DF8079001F030F883
:100CB8000422642338460DEB020102F049FF2C237D
:100CC800404600218DF8043001F022F86423012207
:100CD80001A9384602F03CFF03B0BDE8F08300BF2D
:100CE800CC0400241004002470B51E468318BDF8F7
:100CF8001040F02B37DC1546013A024492B28B19AA
:100D0800B3F5A07F29DC731E0B449BB2FFF788FF65
:100D180017494FEA142CE0B201F5807481F800C03D
:100D2800023101F8010C8C42F8D106FB05F40121CF
:100D3800104800F0EDFF64000ED0B4F5807F254622
:100D48004FF064030A4928BF4FF480750A482A46C1
:100D580002F0FEFE641BF0D170BDC1F5A07640F232
:100D68003F13B6B2D2E7C0F1F005EF22ADB2C6E745
:100D7800D004002410040024CC04002400210148DD
:100D880000F0C6BFFC0300240121014800F0C0BFE9
:100D9800FC0300242DE9F04FDFF800A485B0F94DDD
:100DA8000021DFF8FC935046012400F0B1FF2846EB
:100DB8000021F54E00F0ACFF4846052100F0A4FAEA
:100DC80021462846F14D00F0A3FF304600218DF85A
:100DD800004000F09DFF2246642369462846DFF85C
:100DE800C48302F0B5FE48464FF47A71002700F03C
:100DF8008BFACB23304600218DF8003000F088FFB5
:100E0800224664236946284602F0A2FE4FF0360BBC
:100E180098E8030008F11008009030468DF8041097
:100E2800214600F075FF052269466423284602F032
:100E38008FFECF23394630468DF8003000F068FF2A
:100E4800224669466423284602F082FE58F8083C88
:100E580021463046ADF800301B0C8DF8023000F00A
:100E680057FF032269466423284602F071FEE823EF
:100E7800394630468DF8003000F04AFF2246694670
:100E88006423284602F064FE58F8043C21463046A4
:100E9800ADF800301B0C8DF8023000F039FF03224A
:100EA80069466423284602F053FEEA233946304651
:100EB8008DF8003000F02CFF22466423694628464E
:100EC80002F046FE21463046ADF8007000F020FFE3
:100ED800022269466423284602F03AFEED23394689
:100EE80030468DF8003000F013FF2246694664232F
:100EF800284602F02DFEA64B21463046009300F00E
:100F080007FF042269466423284602F021FEF723DE
:100F1800394630468DF8003000F0FAFE2246694620
:100F28006423284602F014FE2023214630468DF81B
:100F3800003000F0EDFE224669466423284602F0A0
:100F480007FEC023394630468DF8003000F0E0FE39
:100F5800224669466423284602F0FAFD23232146E7
:100F680030468DF8003000F0D3FE224669466423EF
:100F7800284602F0EDFDC123394630468DF8003091
:100F880000F0C6FE224669466423284602F0E0FDCA
:100F98001023214630468DF8003000F0B9FE224675
:100FA80069466423284602F0D3FDC52339463046F6
:100FB8008DF8003000F0ACFE2246694664232846CE
:100FC80002F0C6FD42F63E0321463046ADF8003039
:100FD80000F09EFE022269466423284602F0B8FD0E
:100FE800C723394630468DF8003000F091FE22467E
:100FF80069466423284602F0ABFD86232146304625
:101008008DF8003000F084FE2246642369462846A5
:1010180002F09EFD394630468DF800B000F078FEAB
:10102800224669466423284602F092FD4FF04803A1
:10103800214630468DF8003000F06AFE22466946A7
:101048006423284602F084FD3A23394630468DF859
:10105800003000F05DFE224669466423284602F00F
:1010680077FD5523214630468DF8003000F050FEBC
:10107800224669466423284602F06AFDB1233946B0
:1010880030468DF8003000F043FE2246694664235E
:10109800284602F05DFD4FF4C05321463046ADF8B6
:1010A800003000F035FE022269466423284602F02B
:1010B8004FFDB623394630468DF8003000F028FE43
:1010C800224669466423284602F042FD314B2146F8
:1010D80030461B68ADF800301B0C8DF8023000F06C
:1010E80017FE032269466423284602F031FDF223E5
:1010F800394630468DF8003000F00AFE2246642357
:101108006946284602F024FD214630468DF80070D5
:1011180000F0FEFD224669466423284602F018FDC9
:101128002623394630468DF8003000F0F1FD22467E
:1011380064236946284602F00BFD214630468DF8A7
:10114800004000F0E5FD224669466423284602F087
:10115800FFFCE023394630468DF8003000F0D8FD1A
:10116800224669466423284602F0F2FC0A4BEC4604
:101178000FCBACE807002CF8023B1B0C214630468D
:1011880012E000BF2404002410040024CC0400242E
:1011980064031281F0F90008F4F90008FC03002444
:1011A8004C0400248CF900088CF8003000F0B0FDE5
:1011B8000F2269466423284602F0CAFCE123394617
:1011C80030468DF8003000F0A3FD224669466423BE
:1011D800284602F0BDFCEC4698E80F00ACE8070092
:1011E8002CF8023B1B0C214630468CF8003000F0EE
:1011F8008FFD0F2269466423284602F0A9FC1123BB
:10120800394630468DF8003000F082FD22466423CE
:101218006946284602F09CFC4846782100F074F89C
:101228002923394630468DF8003000F071FD2246FA
:1012380064236946284602F08BFC394630468DF80F
:1012480000B000F065FD224669466423284602F096
:101258007FFC4FF04803304621468DF8003000F0FF
:1012680057FD694664232846224602F071FC214650
:10127800504605B0BDE8F04F00F04ABDEF281FD832
:10128800B1F5A07F0B461BD200F1010C013310B55C
:10129800144682B01FFA8CF29BB2FFF7C1FC012101
:1012A800230A08488DF805408DF8043000F030FD19
:1012B8006423022201A9044802F04AFC02B010BDCE
:1012C800704700BF10040024CC040024EF2810B499
:1012D800BDF8044007D8B1F5A07F04D201945DF8A9
:1012E800044BFFF701BD5DF8044B704700214FF434
:1012F800A073F02210B5044682B008460094FFF7A8
:10130800F3FC02B010BD00BF084602F0B3BD00BF39
:1013180010B540F203338EB000244FF60B7240F242
:101328000341ADF8083009A80123ADF81020ADF845
:1013380024202246ADF80C100094029907940C94CE
:10134800CDE90544CDE90A4400F0F0FB04A80123E7
:1013580022460399009400F0E9FB09A800F0CCFCB0
:1013680010B901200EB010BD04A800F0C5FCA042C1
:101378000CBF022020460EB010BD00BF2DE9F04181
:1013880003239AB0012700240646CDE914373B4BC6
:10139800CDE9104340F20453CDE91647ADF8483083
:1013A800FFF7B6FFB842054625D0022845D040F6DB
:1013B8000132334B0DF12C081894ADF82C200B9802
:1013C8001997CDF84A3000F0E3F810A906F13C006F
:1013D80001F05AFC302003224FF07E5341460D9312
:1013E8000E93CDE90B02F26B06F1140000F04CFBF2
:1013F8001AB0BDE8F0811023214A06A906908DF89D
:1014080028300DF12C081F4BCDF84A200793029481
:10141800CDE91804CDE9080402A800F0DFFE08238E
:10142800029A03A94046ADF80C508DF80E40049579
:1014380005930B9400F0ECF8C7E700200121104B4E
:101448000DF12C083A460094CDF84A304FF60B734C
:101458000C94ADF82C302346CDE9180140F6013143
:101468004046ADF818100699CDE90D4400F05EFB32
:101478002146404600F04CFCA7E700BF04020404E4
:10148800040604030704010B2DE9F04704462DED7B
:10149800028B82B000294DD0012140F201120023B5
:1014A8000091ADF804208DF80630364A0127364BF6
:1014B80004F10409354904F12908626040F2027216
:1014C800A36040F60663E16004F1250AA4F825202C
:1014D800A4F82930278284F8277084F82B7002F04A
:1014E80065FE054602F0C8FC6946064650BB4DB38A
:1014F80004F130008DF8067002F0E0FD072D3CD1B4
:1015080004F114052046FFF739FF284600F0F8FAE1
:101518002846B0EE408A00F0EFFAD0ED007AF8EEF7
:10152800677A88EE277A84ED0E7A02B0BDEC028BDA
:10153800BDE8F08740F2011300918DF80610ADF870
:101548000430B2E704F1300002F0B8FD072D11D0E5
:101558004946204601F08CF80EB9002DD0D15046EE
:1015680000F0E0FB404600F0DDFB04F1120000F063
:1015780079F9C5E7002EF2D1C2E74946204601F0C5
:1015880077F8BDE70508050905070506050A0606F3
:1015980010B584B003460124ADF8040003A8ADF8E3
:1015A8000C30ADF80E4000F0BDFB214603A800F05A
:1015B80095FC204602F05EFC002103A800F08EFC9A
:1015C800204602F057FC214603A800F087FC04B02F
:1015D80010BD00BF10B5C2F3002384B00C46017CD7
:1015E8008DF80D2043EA4402FA2402238DF80C20DA
:1015F80003AA009400F088FE18B10124204604B024
:1016080010BD04460A2002F035FC204604B010BD87
:10161800034670B543F8042B044684B007C983E831
:101628000700A37983B91A210B461E22FA252374D1
:101638002046ADF80C20022303AA009500F064FEB2
:1016480028B1012004B070BD1B210B46EDE70A202C
:1016580002F010FC4FF4B85200950223ADF80C20AC
:10166800204603AA217C00F04FFE0028E9D10A2079
:1016780002F000FC41F2027200950223ADF80C2042
:10168800204603AA217C00F03FFE0028D9D10A2079
:1016980002F0F0FB042200950223ADF80C2020464E
:1016A80003AA217C00F030FE0028CAD10A2002F0EB
:1016B800E1FB062200950223ADF80C20204603AA80
:1016C800217C00F021FE0028BBD10A2002F0D2FBC9
:1016D80041F2082200950223ADF80C20204603AA07
:1016E800217C00F011FE0028ABD10A20064602F04A
:1016F800C1FB0095022303AA217C2046ADF80C60AB
:1017080000F002FE00289CD1304602F0B3FB0095A1
:1017180022790C232046002A8DF80C3003AA4FF0BA
:10172800020314BF622142218DF80D10217C00F0C4
:10173800EBFD002885D1304602F09CFB2279D4E9E4
:1017480002310B43DBB20AB943F0400362790AB1B4
:1017580043F020030E22FA258DF80D30204600951F
:1017680002238DF80C2003AA217C00F0CDFD00286F
:101778007FF467AF0A2002F07DFB10220095022358
:10178800ADF80C20204603AA217C00F0BDFD0028FE
:101798007FF457AF0A2002F06DFB12210095022357
:1017A800ADF80C1003AA217C204600F0ADFD0028FE
:1017B8007FF447AF0A2002F05DFB01220921204691
:1017C800FFF708FF003818BF01203BE7F0B51023EA
:1017D80087B0234C012200250126002702A92046B4
:1017E8000195CDE902234FF48052CDE9046708F052
:1017F8000FFB642002F080FF02A94FF480522046BC
:10180800CDE9046702261027CDE9026708F000FB3E
:101818000322102302A92046CDE902230023042233
:10182800CDE904234FF4805208F0F2FA40F2322353
:10183800042202A9019310232046CDE90223019A2C
:10184800012305924FF48052049308F0E1FA40F620
:101858000601204608F0FCFA284607B0F0BD00BF94
:10186800D80500241C4B00221C494FF0400C30B511
:10187800054689B00220596007219A601A6201243E
:10188800DA620A224FF4006EDC6006922022CDE96B
:10189800000104200821CDE9020103201021CDE92F
:1018A800040108206946C3E904024FF4C072181DF8
:1018B800C3E906C24FF48052C3E909E208F07EFA90
:1018C80038B92846FFF782FF003818BF012009B051
:1018D80030BD204609B030BDD40500244041005237
:1018E800614A0021D0B513688EB00A91002B40F0F0
:1018F800B9805E4B01214FF683700C2411600221E0
:10190800D3F8D4200026032742F48052C3F8D42009
:10191800D3F8D42002F480520092009AD3F8E02041
:1019280042F01002C3F8E020D3F8E02002F01002E1
:101938000192019AD3F8E02042F04002C3F8E02077
:10194800D3F8E02002F040020292029AD3F8E02095
:1019580042F00802C3F8E020D3F8E02002F00802C1
:101968000392039AD3F8E02042F48072C3F8E0208F
:10197800D3F8E02002F480720492049AD3F8E020AD
:1019880042F08002C3F8E020D3F8E02002F08002A1
:101998000592059AD3F8E02042F02002C3F8E0202F
:1019A800D3F8E02002F020020692069AD3F8E0204D
:1019B80042F00402C3F8E020D3F8E0300C9403F0BE
:1019C800040307930323079A0B93CDE9080108A999
:1019D800274803F037FF48F23712022308A92548A1
:1019E8000C94CDE90823CDE90A6703F02BFF4CF2EC
:1019F8000372022308A920480C94CDE90823CDE9F5
:101A08000A6703F01FFF40F2FF62022308A91B4880
:101A18000C94CDE90823CDE90A6703F013FF4FF6CC
:101A28000C72022308A916480C94CDE90823CDE9C5
:101A38000A6703F007FF4FF63F02022308A911487F
:101A48000C94CDE90823CDE90A6703F0FBFE2022B8
:101A5800022308A90A480C94CDE90A67CDE90823AE
:101A680003F0F0FE0EB0D0BDD005002400440258AB
:101A78000010025800180258000C025800200258A2
:101A8800001C02580014025830B5184C154685B091
:101A9800046004F1080EEC460FC98EE80F00D4ED7F
:101AA800047AF5EEC07A8CE80F00F1EE10FA1ADD30
:101AB800B7EE006A94ED057A27EE277AC6EE276A14
:101AC80084ED0D7AC4ED0C6A6DB1204640F8185FBC
:101AD80001F0D2F9064903690020064A2162A26290
:101AE800E36005B030BD012005B030BD0C06002410
:101AF800002000300000003000680830704700BF48
:101B08000068183001F0BAB910B4074B4FF07E5195
:101B180030240022032019619C60D8605DF8044BD2
:101B28005961C3E9062270470C06002410B592B02B
:101B3800ADF804100180C9B2149C0B29C460C0E937
:101B480001233FD090F801C0BCF10F0F3AD8022A08
:101B58003FD0032A02D0012A00D000220E92012B86
:101B680002D0022B18BF0023022C0F932CD0032C79
:101B78002AD0012C28D000230A29109327D85C4AA0
:101B880002EB812202610A2914D8DFE801F0A3954B
:101B980087796B5D4F4133250600564BD3F8E0102B
:101BA80041F48061C3F8E010D3F8E03003F48063B7
:101BB8000C930C9B01230DA9104603FA0CF30D930B
:101BC80003F040FE12B010BD0A291094D7D90022A4
:101BD800D8E711220E92C2E7464BD3F8E01041F441
:101BE8000071C3F8E010D3F8E03003F400730B93EE
:101BF8000B9BDFE73F4BD3F8E01041F48071C3F84B
:101C0800E010D3F8E03003F480730A930A9BD1E71D
:101C1800384BD3F8E01041F08001C3F8E010D3F856
:101C2800E03003F080030993099BC3E7314BD3F8F5
:101C3800E01041F04001C3F8E010D3F8E03003F0C1
:101C480040030893089BB5E72A4BD3F8E01041F00E
:101C58002001C3F8E010D3F8E03003F02003079325
:101C6800079BA7E7234BD3F8E01041F01001C3F816
:101C7800E010D3F8E03003F010030693069B99E7D1
:101C88001C4BD3F8E01041F00801C3F8E010D3F87A
:101C9800E03003F008030593059B8BE7154BD3F859
:101CA800E01041F00401C3F8E010D3F8E03003F08D
:101CB80004030493049B7DE70E4BD3F8E01041F036
:101CC8000201C3F8E010D3F8E03003F002030393F5
:101CD800039B6FE7074BD3F8E01041F00101C3F80D
:101CE800E010D3F8E03003F001030293029B61E7B0
:101CF800000002580044025808B5012143780069E1
:101D0800994089B203F0A6FF003818BF012008BD2A
:101D180001230A464178006903FA01F189B203F008
:101D28009FBF00BF8378022B30B504468FB037D0F1
:101D3800032B33D0012B31D000230A93E378012BF6
:101D48002AD0022B28D000230B93002320460C9383
:101D580002F0B0FB0546204602F0B4FB2378099058
:101D6800082B13D8DFE803F01F3245586B7E91A487
:101D78000500594BD3F8E02042F48072C3F8E02004
:101D8800D3F8E03003F480730893089B09A9284628
:101D980003F058FD0FB030BD0B93D6E70A93CDE79B
:101DA80011230A93CAE74C4B09A92846D3F8E02027
:101DB80042F00102C3F8E020D3F8E03003F0010359
:101DC8000093009B03F03EFD0FB030BD424B09A9C4
:101DD8002846D3F8E02042F00202C3F8E020D3F806
:101DE800E03003F002030193019B03F02BFD0FB0D9
:101DF80030BD394B09A92846D3F8E02042F0040247
:101E0800C3F8E020D3F8E03003F004030293029B08
:101E180003F018FD0FB030BD2F4B09A92846D3F8A1
:101E2800E02042F00802C3F8E020D3F8E03003F0E5
:101E380008030393039B03F005FD0FB030BD264B49
:101E480009A92846D3F8E02042F01002C3F8E020A0
:101E5800D3F8E03003F010030493049B03F0F2FC82
:101E68000FB030BD1C4B09A92846D3F8E02042F03A
:101E78002002C3F8E020D3F8E03003F020030593F4
:101E8800059B03F0DFFC0FB030BD134B09A92846B2
:101E9800D3F8E02042F04002C3F8E020D3F8E03065
:101EA80003F040030693069B03F0CCFC0FB030BD53
:101EB800094B09A92846D3F8E02042F08002C3F86C
:101EC800E020D3F8E03003F080030793079B03F08A
:101ED800B9FC0FB030BD00BF0044025870B50646CB
:101EE8000D4602F0E7FA0446304602F0EBFA2A1EE5
:101EF8000146204618BF0122BDE8704003F0B0BE7D
:101F08000023122270B586B0CDE90223049303683A
:101F1800032B01D804230593061D841D304602F0C7
:101F2800C9FA0546304602F0CDFA034601A928460B
:101F3800019303F087FC204602F0BCFA03462046D2
:101F48001C4602F0BFFA01A903462046019303F09C
:101F580079FC06B070BD00BF634A0368934210B5B0
:101F68008CB028D0614A934258D0614A934200F01D
:101F78009480604A934201D00CB010BD5E4C5F481B
:101F8800D4F8E03043F00203C4F8E030D4F8E0308D
:101F980003F002030A930A9BFFF7B2FFD4F8F43068
:101FA80043F08003C4F8F430D4F8F43003F080032D
:101FB8000B930B9BE0E7504C5148D4F8E03043F0CA
:101FC8000203C4F8E030D4F8E03003F002030193D0
:101FD800019BFFF795FFD4F8E83000221F2043F457
:101FE80000131146C4F8E830D4F8E83003F40013BD
:101FF8000293029BD4F8D83043F00103C4F8D830D8
:10200800D4F8D83003F001030393039B02F09EFB3E
:102018001F200CB0BDE8104002F0D6BB364C394842
:10202800D4F8E03043F08003C4F8E030D4F8E0306E
:1020380003F080030493049BD4F8E03043F00203D8
:10204800C4F8E030D4F8E03003F002030593059BB0
:10205800FFF756FFD4F8E8300022212043F480032C
:102068001146C4F8E830D4F8E83003F48003069346
:10207800069BD4F8D83043F00103C4F8D830D4F81C
:10208800D83003F001030793079B02F05FFB212080
:102098000CB0BDE8104002F097BB1B48FFF730FFBB
:1020A800154B00224820D3F8E840114644F40004B8
:1020B800C3F8E840D3F8E84004F400040894089C06
:1020C800D3F8D84044F00104C3F8D840D3F8D83046
:1020D80003F001030993099B02F038FB48200CB078
:1020E800BDE8104002F070BB0054004000580040AA
:1020F800005C0040001C005800440258D00800242E
:102108004806002420070024F80700242DE9F0439E
:102118001A4B87B000254FF010099E46EC46184B25
:10212800FF22E04667461A700EF118060EF13004D9
:10213800CDE90055CDE90255ADF80090BCE80F0097
:10214800CDE90455AEE80F009CE803000095ADF812
:1021580000908EE80300B8E80F000FC69CE8030063
:102168000095ADF8009086E803000FCF0FC49CE8F7
:10217800030084E8030007B0BDE8F08304000024EE
:102188004406002410B5EFF3108472B6084B1A7891
:10219800120602D504B962B610BD1B78D8220548CC
:1021A8005BB202FB0300143002F0FAFFF2E700BF53
:1021B8004406002448060024014804F0E9BB00BF97
:1021C800D4060024014804F0E3BB00BFAC07002498
:1021D800014804F0DDBB00BF840800242DE9F0436A
:1021E8000F68D8243F4D85B007FB04F4032F05EB97
:1021F8000403036040DCCB680E46012B3CD84DD06D
:102208004FF0D808B646DFF8FC9008FB0758BEE840
:102218000F00C446ACE80F00DEF800300DF1100ED8
:10222800CCF80030D8F808C099E80F000EE90F0084
:102238000EEB8703BCF1010F53F8103CC8F88C3043
:1022480031D0BCF1020F42D0BCF1000F35D0317C47
:102258008C34D823002201202C4403FB0753490067
:10226800C3E92602C3F894102046C3E92822C3E92B
:102278002A2204F07FF918B1012005B0BDE8F083E7
:102288000146204604F090FB0028F5D1014620467F
:1022980004F0B4FB003818BF0120EEE70B7C103BBC
:1022A800672BADD9E8E701F07FFF0F4B98420CBFD1
:1022B8000E4B0F4BC8F89030C9E701F075FF0A4B79
:1022C80098420CBF0B4B0C4BC8F89030BFE701F09D
:1022D8006BFF054B98420CBF084B094BC8F8903070
:1022E800B5E700BF48060024000E27072D0FB030C1
:1022F8003211D0205F4390608A62E030200BA0103A
:102308001A098010ACF900082DE9F041D0F80080D6
:1023180082B00D4617461E4608F18C04204604F08C
:102328003FFB2028FAD1D8F80C3073B96D0020464D
:10233800089C33463A46A9B2009404F071F9003873
:1023480018BF012002B0BDE8F081089B324639462B
:10235800204604F039FAF2E7044B10221A7483F885
:10236800E82083F8C02183F89822704748060024A3
:1023780030B5002395B04FF48071062204460B93C4
:1023880006921393CDE90C13CDE90E33CDE9113341
:1023980001F00CFF07282BD004F1100541F2883218
:1023A80006A9284605F03CF928B10123184684F807
:1023B8005C3015B030BD0222022306A92846CDE9BB
:1023C800002310220123CDE9022300224FF48003C9
:1023D800CDE9042305224FF0807306926A460F93D5
:1023E80041F2883305F088FA0028DED115B030BDF7
:1023F8000323012084F85C3015B030BD00000000D4
:1024080070B50023A4B04FF080724FF48075044675
:10241800ADF806300D93CDE910320122CDE90E5307
:10242800CDE91223CDE91433002943D0F02300F17C
:10243800100508AEADF80630C02341F288323146A7
:102448002846089305F0ECF828B10123184684F8CB
:102458005C3024B070BD41F288320DF10601284687
:1024680005F048F903460028EFD105224FF48071A2
:102478001E93284616924FF080721B9321931F9249
:1024880002AA9FED1F7BCDE91C13CDE922338DED08
:10249800027B9FED1D7B41F2883316A98DED047BED
:1024A8009FED1B7B8DED067B05F026FA0028CCD12D
:1024B80024B070BD00F1100508AE612341F28832E6
:1024C80031462846089305F0ABF80028BDD141F203
:1024D80088320DF10601284605F08AF90028B4D1A2
:1024E800BDF80630204623F0780343F04003ADF8EA
:1024F8000630FFF73DFF00289ED0A6E7AFF3008027
:1025080000000000010000001000000001000000B1
:1025180000000000000040002DE9F04F00234FF4B8
:10252800807501264FF0807804462DED028BABB004
:102538008DF8073013932193299314950E96CDF8AF
:102548005C80CDE91533CDE91863CDE91A33CDE9BF
:102558002253CDE92433CDE9273306231C9301F018
:1025680025FE072808D004F1100741F288321CA97B
:10257800384605F055F840B10123184684F85C3018
:102588002BB0BDEC028BBDE8F08F4FF0020A4FF084
:10259800020B4FF0050941F2883308AA1CA93846F6
:1025A800CDF89480CDF870909FED2D8BCDE908ABD8
:1025B8004FF0000A4FF4800B8DED0A8BCDE90CAB80
:1025C80005F09AF90028D7D141F2883238460EA989
:1025D80005F026F80028CFD1402341F288320DF1CA
:1025E800070138468DF8073005F084F80028C3D174
:1025F80041F288330EA902AA3846CDF83890CDF8B2
:102608005C809FED197B8DED048BCDE906AB8DEDDC
:10261800027B05F071F903460028ADD1CDF8709022
:102628004FF00109CDF894804FF00008219308AAD3
:1026380029931CA938462295CDE92333CDE92733C0
:1026480041F288338DED0A8BCDE90CABCDE90889D1
:1026580005F052F9002893D0304684F85C608FE783
:1026680010000000010000004000000040000000D1
:102678002DE9F043624CA3B00D46046001F096FDCD
:10268800072800F0A980286823466968AA6807C354
:102698001E46AB8926F8043B3046257B677B04F051
:1026A800A1FFE0B9574B012D4FF00108E06123610C
:1026B80014BF4FF480134FF40003C4E9058893FA5C
:1026C800A3F3B3FA83F34FF48079013BC4F8249061
:1026D800C4E90B003046236204F018FF38B1012228
:1026E800134684F85C20184623B0BDE8F0836623BF
:1026F8000B90139041F2883206A90693CDE90C900D
:10270800CDE90E00CDE91100304604F089FF00281C
:10271800E5D1992341F2883206A93046069304F0A0
:102728007FFF0028DBD105231C9019906A4614937B
:102738004FF08073219014A91D9341F288339FEDC7
:102748002A7BCDE91A90CDE91F008DED007B9FED26
:10275800287B30468DED027B9FED277B8DED047B3A
:1027680005F0CAF80028BAD129462046FFF748FEE6
:102778000028B4D12046FFF7CFFE03460028AED18B
:10278800002FB0D1189330460027002606AA14A9B6
:10279800CDF86890CDE91F33EB2314934FF44063D1
:1027A8001B934FF4005317934FF440431C93A023FB
:1027B8001693062319934FF0805321934FF04073DB
:1027C800CDE906671D9305F00FF9034600288AD066
:1027D800434684F85C8086E701230322184684F880
:1027E8005C2023B0BDE8F083000000000100000079
:1027F8001000000001000000000000000000400080
:10280800A8090024005000522DE9F04F8FB0414B29
:102818000024026800AF9A427C63C7E90944C7E90B
:102828000B4403D03C37BD46BDE8F08F3A4B40F629
:1028380009213A48EB46D3F8D42007F11C0607F1E2
:10284800220A4FF0020942F480424FF00308C3F80D
:10285800D420D3F8D42002F48042BA60BA68D3F8FE
:10286800E02042F04002C3F8E020D3F8E02002F074
:102878004002FA60FA68D3F8E02042F02002C3F878
:10288800E020D3F8E02002F020023A613A69D3F858
:10289800E02042F01002C3F8E020D3F8E02002F074
:1028A80010027A617A69D3F8E02042F00202C3F894
:1028B800E020D3F8E030F86103F002033984BB610B
:1028C800174B7B60BB697B6853F8040F7B6001F092
:1028D800F1FD7B680546186801F0F4FD16F8013B28
:1028E800786207F124012846C7F830807B63C7E97E
:1028F8000A9402F0A7FF5645E5D100225C20114654
:1029080001F024FF5C2001F05FFF3C37DD46BD4647
:10291800BDE8F08F00500052004402580A0A090925
:10292800040A0024114B02689A4200D07047104AEA
:1029380070B5D2F8D4300F4C23F4804304F1180654
:10294800C2F8D43054F8040F01F0B4FD05462068ED
:1029580001F0B8FD0146284603F0B4F8B442F1D1BD
:102968005C20BDE8704001F03DBF00BF0050005240
:1029780000440258040A0024014805F0C1B800BF09
:10298800B8090024084B1A1D981D03F1080110B45A
:102998009C1C9A6603F10A02C3E91834C3E91B01B7
:1029A8005DF8044B5A677047A809002438B50368D6
:1029B80071B9026A00F1280500F5AC74012A0CBF50
:1029C800002140218BBB1D4B5722C0F858310DE028
:1029D800426A00F1C00500F5E874012A0CBF002125
:1029E8004021EBB1164B5A22C0F8D03100232046C3
:1029F800C4E901214FF480524FF48061636262613F
:102A08004FF48042C4E903314FF48073C4E90623CC
:102A18004FF40033236202F04BF858B1FFBEFEE7D3
:102A2800084B5822C0F8D031E0E7074B5922C0F8CC
:102A38005831DBE7C5E92044A56338BD10000240E2
:102A48007000024028000240580002402DE9F0437F
:102A5800821D05468BB0031D05F10A010830CDE93A
:102A6800052305F10C02AB69CDE907010992002B9A
:102A78003DD0EB69B3FA83F84FEA581801230222D4
:102A880005AE0AAF4FF006090393CDE9012356F8C6
:102A9800044B2B792278934216D02B68F3B1012B83
:102AA80002D1F2B10A230493204601F00BFD03463C
:102AB8002046009301F0FEFC694602F0C3FEBE42C8
:102AC800E5D10BB0BDE8F083697963789942E4D128
:102AD800B8F1000FF3D02B68002BE0D1CDF810909F
:102AE800E2E76378022B14BF0A230823DBE74FF0E1
:102AF8000108C3E7534A0368934230B505468BB0D3
:102B080055D02032934252D04F4A934204D02032BB
:102B1800934201D00BB030BD4C4C4D48D4F8E03056
:102B280043F00103C4F8E030D4F8E03003F00103C7
:102B38000593059BD4F8E03043F00803C4F8E0306F
:102B4800D4F8E03003F008030693069BD4F8E0308D
:102B580043F04003C4F8E030D4F8E03003F0400319
:102B68000793079BD4F8F03043F40003C4F8F0301F
:102B7800D4F8F03003F400030893089BFFF766FFCE
:102B8800D4F8D830296843F001032F4A3048C4F8F4
:102B9800D830891AD4F8D83018BF012103F00103BE
:102BA8000993099B0BB0BDE83040FFF7FFBE274CE7
:102BB8002848D4F8E03043F00103C4F8E030D4F8F2
:102BC800E03003F001030093009BD4F8E03043F0B9
:102BD8001003C4F8E030D4F8E03003F01003019398
:102BE800019BD4F8E03043F04003C4F8E030D4F857
:102BF800E03003F040030293029BD4F8F03043F432
:102C08008003C4F8F030D4F8F03003F48003039361
:102C1800039BFFF71BFFD4F8D830296843F0010362
:102C2800084A0C48C4F8D830891AD4F8D83018BFE4
:102C3800012103F001030493049B0BB0BDE830406D
:102C4800FFF7B4BE04580140045C01400044025838
:102C58007C0C0024200A0024014802F0A1BA00BF1D
:102C6800780B0024014802F09BBA00BFF00B002447
:102C7800014802F095BA00BFD40D0024014802F0C3
:102C88008FBA00BF4C0E00242DE9F04F0C684FF4AA
:102C98001776754F87B004FB06F6012C07EB060A7A
:102CA800C0F800A000F3A0800D468E464FF0000843
:102CB800D44669A3D3E9002369A1D1E90001CDE98C
:102CC800022306ABCAF8508203EB8403CDE9040162
:102CD80053F810BC53F8083CCAE992880193BEE83F
:102CE8000F00ACE80F00BEE80F00ACE80F00019B36
:102CF8009EE80300CAF828B0CAF8C0308CE8030080
:102D08002B69042B0CD8DFE803F0737D879103004F
:102D18004FF41773554A03FB04739A64C3F8E02011
:102D2800AA692B6A002A43D0002B4FF4177308BFF7
:102D3800022203FB047318BF0322DA6201221A631A
:102D4800EA696B6A002A40D1191E4FF4177318BF3D
:102D5800012103FB0473C3E931126B69022B05D807
:102D6800434A12F80380434A52F823904FF41773EA
:102D780006F128004246494603FB04740023384400
:102D880063646363E365C4F8DC30C4F8CC30C4F82A
:102D9800F430C4E90F33C4E91533C4E93533C4E961
:102DA8003B33022306F04EFF002849D0FFBEFEE762
:102DB800191E4FF4177318BF012103FB0473C3E9ED
:102DC8000B12EA696B6A002ABED0002B4FF4177306
:102DD80008BF022203FB047318BF0322C3F8C420F0
:102DE8000122C3F8C820B8E7012007B0BDE8F08F7A
:102DF8004FF417734FF4FA5203FB04739A64C3F841
:102E0800E0208DE74FF417734FF47A5203FB0473F5
:102E18009A64C3F8E02083E74FF417734FF4FA423B
:102E280003FB04739A64C3F8E02079E74FF417733F
:102E38004BF6803203FB04739A64C3F8E0206FE713
:102E480006F1C000022342464946384406F0FAFE1D
:102E58000028CAD0FFBEFEE704580140045C0140C8
:102E680024580140245C0140200A00240077010016
:102E780004FA000808FA00080068704703681B692C
:102E8800042B05D8044A02EB830393ED000A70472C
:102E98009FED020A704700BF14FA000800803B4704
:102EA80070B5002304464FF4806204214FF4403586
:102EB8003448C4F83821C4F8D410C4F83431C4F8FC
:102EC8004C113149C4F8B000C4F82811C4E92F32B4
:102ED800C4E93133C4E93335C4E93733C4E94F337E
:102EE800C4E95135C4E95533A2680323C4F8D8307E
:102EF800C4F85031042A0AD8DFE802F01F262D341E
:102F0800030055225623C4F8B420C4F82C310022FB
:102F1800402304F1B005C4F8B8202846C4F830317D
:102F280001F0C6FD08B1FFBEFEE704F59476304611
:102F380001F0BEFDE8B1FFBEFEE725222623C4F856
:102F4800B420C4F82C31E2E727222823C4F8B4209F
:102F5800C4F82C31DBE73D223E23C4F8B420C4F882
:102F68002C31D4E753225423C4F8B420C4F82C31AC
:102F7800CDE704F12803C4E92865C4F8E830C4F8AB
:102F8800603170BD40040240580402402DE9F04F02
:102F9800814683B00E4617461D4600F12804204698
:102FA80007F08CFE01288246F9D14846FFF778FFE2
:102FB8008046002835D1EFF31083019372B6DFF80D
:102FC80088B00C9B99F90820DFF880A0DFF8809082
:102FD800CBF800300D9B89F80020CAF800300DB1FD
:102FE8001846A847BAB23146204607F0DDF930B98D
:102FF800019B03B962B6404603B0BDE8F08F0023D9
:10300800CBF80030CAF80030FF2389F800300C9B59
:103018008BB101210D9888469847019B002BEAD176
:10302800E8E70C9B53B1D0460D9851469847404667
:1030380003B0BDE8F08F4FF00108D9E7D04640460D
:1030480003B0BDE8F08F00BFF81800240019002471
:10305800FC1800242DE9F04F814683B00E46174630
:103068001D4600F12804204607F028FE0128824664
:10307800F9D14846FFF714FF8046002835D1EFF311
:103088001083019372B6DFF888B00C9B99F9082079
:10309800DFF880A0DFF88090CBF800300D9B89F82E
:1030A8000020CAF800300DB11846A847BAB2314618
:1030B800204607F03DFB30B9019B03B962B6404694
:1030C80003B0BDE8F08F0023CBF80030CAF8003019
:1030D800FF2389F800300C9B8BB101210D9888469D
:1030E8009847019B002BEAD1E8E70C9B53B1D046E7
:1030F8000D9851469847404603B0BDE8F08F4FF011
:103108000108D9E7D046404603B0BDE8F08F00BFBC
:10311800F818002400190024FC1800242DE9F04FA9
:10312800814683B00F461646984600F1280420468B
:1031380007F0C4FD0128FAD182464846FFF7B0FEE1
:103148000546002838D1EFF31083019372B699F938
:103158000830DFF88890DFF888B089F800300D9BD8
:10316800DFF880A0CBF800300E9BCAF800300C9B2B
:103178000BB10E9898471FFA88F33A463146204615
:1031880007F0CAF930B9019B03B962B6284603B003
:10319800BDE8F08F0023CBF80030CAF80030FF23D9
:1031A80089F800300D9B8BB101210E980D46984788
:1031B800019B002BEAD1E8E70D9B4BB155460E98D1
:1031C80051469847284603B0BDE8F08F0125DAE755
:1031D8005546284603B0BDE8F08F00BFFC18002410
:1031E800F8180024001900242DE9F043002387B0C3
:1031F8000222044605690493CDE90223D0E90212AC
:103208008E00FAB1022D7AD02178B5FA85F54FF003
:103218000108276A0B294FEA551521D1A2780B2AF4
:1032280002D0B8F1000F38D123790B2B01D0002D33
:103238006CD1A37917B10B2B40F09980002007B00F
:10324800BDE8F08335F002032178276A0CBF4FF000
:1032580001084FF00008023D18BF01250B29DDD0F9
:103268007D4B94F801C053F8262010780B2802D023
:10327800884200F0AD80D378D01C994202D10B2B44
:1032880040F0BD809379901D8B4202D10B2B40F00A
:10329800BC80012007B0BDE8F083711C6E4BE0785C
:1032A80053F8213019780B2902D08A4200F0B580F2
:1032B800D97803F1030C0B2902D08A4200F0BB80B5
:1032C800997903F1060C0B29E3D08A42E1D1DB7925
:1032D8008342DED1634604F102099B784846059390
:1032E80001F0E8F88046484601F0ECF801A90190A1
:1032F800404602F0A7FA23790B2B98D199E7017879
:10330800076A0B2940F0868001258DE7B11C524AD7
:10331800607952F8212011780B2902D08B4200F0F5
:103328008180D178D51C0B2902D08B4200F08D808A
:103338009179951D8B42ACD10B29AAD0D3798342C0
:10334800A7D12A46251D93782846059301F0B2F89F
:10335800034628461D4601F0B5F801A90190284604
:1033680002F070FAA379002F7FF465AF66E7F11CCD
:10337800394AE07952F8212011780B2901D08B4283
:103388005FD0D178D51C0B2901D08B424FD09179D1
:10339800951D8B427FF47DAF0B293FF47AAFD3792B
:1033A80083427FF476AF2A46A51D93782846059375
:1033B80001F080F80446284601F084F8034601A984
:1033C8002046019302F03EFA002007B0BDE8F083E2
:1033D800537863457FF44FAF93782046059301F007
:1033E80069F88146204601F06DF801A90190484628
:1033F80002F028FAA2780B2A7FF413AF14E71379A6
:1034080063457FF43FAF0246E6E7D37963457FF42F
:1034180040AFF8E79846012522E7597881427FF4C2
:1034280047AF58E7517881427FF47BAF8AE711793B
:103438008142ACD1B7E7197981427FF441AF634645
:1034480049E7517881429CD1AEE7117981427FF4F6
:103458006FAF2A4676E700BF50FA0008654A03684E
:10346800934200F0B980A2F57842934200F0B6800A
:1034780002F58062934200F0B38002F578429342ED
:1034880000F0B08002F5E052934200F0AD805A4A55
:10349800934240F0AB8005234FF4D071574A01FBAB
:1034A80003F310B5D418D05C86B001F013F8A078F7
:1034B80001F010F8207901F00DF8A07901F00AF870
:1034C800A368052B11D8DFE803F0192F455B7103BA
:1034D8004B4BD3F8F42042F02002C3F8F420D3F881
:1034E800F43003F020030593059B2046FFF77CFE8C
:1034F800012801D006B010BDFFBEFEE7404B0022F8
:103508002320D3F8F01041F48051C3F8F01011468D
:10351800D3F8F03003F480530093009B01F016F9C0
:10352800232001F051F9E0E7354B00222420D3F89D
:10353800E81041F48041C3F8E8101146D3F8E830A8
:1035480003F480430193019B01F000F9242001F06A
:103558003BF9CAE72A4B00223320D3F8E81041F49C
:103568000041C3F8E8101146D3F8E83003F40043EB
:103578000293029B01F0EAF8332001F025F9B4E741
:103588001F4B00225420D3F8F01041F40051C3F827
:10359800F0101146D3F8F03003F400530393039B63
:1035A80001F0D4F8542001F00FF99EE7144B0022E3
:1035B8005520D3F8F01041F48011C3F8F0101146EB
:1035C800D3F8F03003F480130493049B01F0BEF8A1
:1035D800552001F0F9F888E700235DE701235BE750
:1035E800022359E7032357E7042355E700231B78F1
:1035F800FFDE00BF0030014000140058D80E002440
:10360800004402582DE9F043002289B01B4B0121E8
:103618000DF1040C9E461A4B0791E146E0466746B9
:103628000EF11C060EF138050EF15404CDE9012205
:10363800CDE90322CDE90522FF221A70BCE80F006C
:10364800AEE80F009CE807008EE80700B9E80F0015
:103658000FC69CE8070086E80700B8E80F000FC50A
:103668009CE8070085E807000FCF0FC49CE8070017
:1036780084E8070009B0BDE8F08300BF0C0100240E
:10368800FC180024014807F0EDB900BF000F002422
:10369800014807F0E7B900BFA0100024014807F06F
:1036A800E1B900BF40120024014807F0DBB900BFB0
:1036B800E0130024014807F0D5B900BF80150024A5
:1036C80010B5EFF3108472B6084B1A78120602D5BB
:1036D80004B962B610BD1B784FF4D07204485BB2CF
:1036E80002FB0300B03001F05BFDF1E7FC18002499
:1036F800D80E002410B5EFF3108472B6094B1A786F
:10370800120602D504B962B610BD1B784FF4D07208
:1037180005485BB202FB030000F5947001F040FD20
:10372800F0E700BFFC180024D80E00242DE9F04172
:1037380084B0EFF3108772B6284AFF21284C13682B
:10374800217023B100211160264A10689847237818
:103758001B061CD5DFF894800025234E44462168BB
:1037680079B162686AB1A369012B22D0A3B96369F0
:103778003046019323690093E3682289FFF76AFCC6
:1037880018B301351C3406F5D076042DE7D107B9F6
:1037980062B604B0BDE8F081D4E90430CDE9013067
:1037A800E068238900903046FFF7B8FC0028E8D18C
:1037B8000BE0D4E904301146CDE900303046E36827
:1037C8002289FFF7E3FB0028DBD1C5EBC50508EB31
:1037D800850348F825005860D9E700BFF818002489
:1037E800FC18002400190024D80E00240C01002421
:1037F8002DE9F04184B0EFF3108772B6284AFF2113
:10380800284C1368217023B100211160264A1068E2
:10381800984723781B061CD5DFF894800025234E93
:103828004446216879B162686AB1A369012B22D044
:10383800A3B963693046019323690093E368228939
:10384800FFF708FC18B301351C3406F5D076042DB3
:10385800E7D107B962B604B0BDE8F081D4E9043015
:10386800CDE90130E068238900903046FFF756FC27
:103878000028E8D10BE0D4E904301146CDE9003046
:103888003046E3682289FFF781FB0028DBD1C5EBCE
:10389800C50508EB850348F825005860D9E700BF3F
:1038A800F8180024FC18002400190024D80E00245D
:1038B8000C0100242DE9F04184B0EFF3108772B6B3
:1038C800284AFF21284C1368217023B10021116078
:1038D800264A1068984723781B061CD5DFF8948081
:1038E8000025234E4446216879B162686AB1A3690C
:1038F800012B22D0A3B96369304601932369009351
:10390800E3682289FFF7A6FB18B301351C3406F5D6
:10391800D076042DE7D107B962B604B0BDE8F081CE
:10392800D4E90430CDE90130E068238900903046BD
:10393800FFF7F4FB0028E8D10BE0D4E90430114686
:10394800CDE900303046E3682289FFF71FFB0028E5
:10395800DBD1C5EBC50508EB850348F825005860A1
:10396800D9E700BFF8180024FC1800240019002427
:10397800D80E00240C0100242DE9F04184B0EFF3A7
:10398800108772B606F0D8FA284A294CFF21136826
:1039980021702BB1002111600121264A1068984737
:1039A80023781B061CD5DFF894800025224E444658
:1039B800216879B162686AB1A369012B22D0A3B9E1
:1039C80063693046019323690093E3682289FFF70E
:1039D80041FB18B301351C3406F5D076042DE7D128
:1039E80007B962B604B0BDE8F081D4E90430CDE986
:1039F8000130E068238900903046FFF78FFB0028EC
:103A0800E8D10BE0D4E904301146CDE90030304666
:103A1800E3682289FFF7BAFA0028DBD1C5EBC505B0
:103A280008EB850348F825005860D9E7F818002402
:103A3800FC18002400190024D80E00240C010024CE
:103A48002DE9F0418F684FF4D0743E4E8C4607FB49
:103A580004F4052F06EB04050560AE46BCE80F002C
:103A6800AEE80F00BCE80F00AEE80F009CE80300CA
:103A78008EE8030004D8EB68002B60D0012B02D03D
:103A88000120BDE8F08100214FF4D07303FB0763E8
:103A98001A69032AF4D8D3F814C0ACF104001C281E
:103AA800EED89B691BB1012BEAD14FF000734FF49C
:103AB800D07000FB0760C06918B10128E0D14FF051
:103AC80080704FF4D07505FB0765D5F820E0BEF18E
:103AD800020FD5D8D5F82480B8F1070FD0D85204F2
:103AE800E962C5E90E300CF1FF332A6304F12800BE
:103AF8006B634FEA087330446B640023C5E91233E3
:103B0800C5E91433C5E91833C5E91A33C5E91C33C7
:103B1800AB67C5F880300C4B53F82E200B4B2A644A
:103B28004FF0804253F82730EA65AB624FF000430C
:103B3800EB6706F001FA0028A3D0FFBEFEE74FF4BA
:103B48008001A1E7D80E002440FA000828FA0008EE
:103B5800006892B208B5283006F09CFA003818BF01
:103B6800012008BD30B4544B002108220220534CD8
:103B7800D9615862C3F8BC11C3F8C401C3F85C1317
:103B8800C3F86403C3F8F424C3F8F814C3F8FC14A6
:103B9800C3F80405C3F89426C3F89816C3F89C160E
:103BA800C3F8A406C3F83428C3F83818C3F83C1877
:103BB800C3F84408424D4348C3E90521C3E96D21D0
:103BC800C3E9D5212288A3783F49EA80CA800B72CD
:103BD8003E492B72CA800B722168A0F803204371FA
:103BE800C28003723A4C3B48E2802372A0F803205B
:103BF800394C4371C28003723848E2802372A0F8BE
:103C08000320374C4371C2800372080C2180A070D6
:103C1800A4F803206371E2802372324C324D218074
:103C2800A070A4F803206371E28023722F4CEA800D
:103C380021802B72A070A4F803206371E2802372A4
:103C48002B4C2180A070A4F803206371E2802372BA
:103C5800284C2180A070A4F803206371E2802372AD
:103C6800254C2180A070A4F803206371E2802372A0
:103C7800224C2180A070A4F803206371E280237293
:103C88001F4C21801F49A070A4F803201E486371AF
:103C9800E2802372A1F803201C4C4B71CA800B727E
:103CA8001B49E2802372C2800372A1F803204B7182
:103CB800CA800B7230BC7047D80E00244CFA00083A
:103CC80094000024B8000024880000244C0000243C
:103CD800A0000024DC000024C400002464000024A8
:103CE800C8180024B0180024D0000024BC180024F0
:103CF80098180024EC180024D4180024E018002494
:103D0800A418002400010024F4000024E800002482
:103D180070000024704700BF08B500F0DBFCBDE868
:103D2800084000F0DBBD00BF064808B503680BB1CA
:103D380001F09AFF044803681BB1BDE8084002F08F
:103D480089BE08BD101D002408190024064808B5BE
:103D580003680BB101F088FF044803681BB1BDE894
:103D6800084002F077BE08BD101D00240819002481
:103D7800064808B503680BB101F076FF04480368EC
:103D88001BB1BDE8084002F065BE08BD101D002447
:103D980008190024364BDA6A520062D59A6A9A6A80
:103DA8009A6A9B6A180600D500BE314B9B6A990631
:103DB80000D500BE2E4B9B6ADA0600D500BE2C4B00
:103DC8009B6A1B0700D500BE294B9B6A980700D544
:103DD80000BE274B9B6AD90700D500BE244B9B6ABF
:103DE8001A0400D500BE224B9B6A9B0400D500BE76
:103DF8001F4B9B6AD80400D500BE1D4B9B6A190552
:103E080000D500BE1A4B9B6A5A0500D500BE184B58
:103E18009B6A9B0500D500BE154B9B6AD80500D54B
:103E280000BE134B9B6A990100D500BE104B9B6ADC
:103E3800DA0100D500BE0E4B9B6A1B0300D500BEFD
:103E48000B4B9B6A580300D500BE094B9B6A99032C
:103E580000D500BE064B9B6ADA0306D400BE00BE3E
:103E6800FEE7DB6A9B07FAD5F8E700BEF6E700BF76
:103E780000ED00E000F040BC0A4B9B6803F178437A
:103E8800B3F5003F0BD3084B986848B198680128F0
:103E980006D09868022803D09B6803207047012049
:103EA800704700BF00ED00E0000080382DE9F041C8
:103EB800CEB004464C2200210AA80BF051FD202266
:103EC800002102A80BF04CFDBC2200211EA80BF01B
:103ED80047FD022003F032FA2368012B4FF000035C
:103EE80054D0534A02250193C820D16A514B21F07E
:103EF8000101D162D26A02F0010201929A6942F488
:103F080040429A619B6903F440430193019B494AEB
:103F180093699B04FCD548490224002201268B6A38
:103F280004274FF0080823F0030323438B6205237B
:103F380016900AA818934FF4803310961794199482
:103F48001597CDF86880CDE91B222122CDE91344CD
:103F5800CDE90A2303F0DCFE00B1FEE73F2203238C
:103F6800294602A8CDE9022300220823CDE904232B
:103F780040224023CDE9062340234FF48062CDE957
:103F8800082304F0F3F90346B8B1FEE7294A0425EB
:103F98000093F0209169264B41F440419161926968
:103FA80002F440420092DA6A42F00102DA62DB6A05
:103FB80003F001030093009BA9E720224FF48051EE
:103FC80025934FF440152B9280222D931EA83093F1
:103FD800269135914FF48071249234920C223394B7
:103FE800439140F2271120921022CDF884802A971D
:103FF8001F96CDE92E34CDE93B334FF48033CDE91C
:1040080022463193002446930623CDE93E45279363
:104018004FF48063094C2C931E94CDE9281204F0C8
:1040280001FC00B1FEE703F0AFF94EB0BDE8F08146
:104038000004005800480258004402580F130F03A8
:1040480070B584B0012400F0F7FB4FF480764FF090
:104058004052194B68460025ADF800400396CDE95B
:10406800012300F007FC19224FF0404368468DF801
:10407800082001938DF80F40ADF80D608DF80140D0
:104088008DF80A5000F0F6FB02230B2268468DF8E3
:104098000F508DF801304FF062538DF808200193CE
:1040A800ADF80D408DF80A4000F0E4FB042000F064
:1040B800D1FB04B070BD00BF0E00010330B50D4642
:1040C800044685B0D1E9000184E8030000F0D2FA83
:1040D800AB79A3B309F078F9FEF718F8FFF792FA6D
:1040E80008F074FE2B798BBB6B799BB1BFF34F8FB4
:1040F800BFF36F8F2A4B0022C3F85022BFF34F8FB4
:10410800BFF36F8F5A6942F400325A61BFF34F8F81
:10411800BFF36F8F4FF0FF3200230024002569465C
:10412800204802928DF80C30CDE9004508F0E0F9FE
:104138001C4808F045FA08F093F805B030BD204651
:10414800FFF7B4FE2046FFF77BFFC3E7144C0023BC
:10415800C4F88430BFF34F8FD4F8801043F6E07E64
:10416800C1F34E3CC1F3C9014FEA4C1C0CEA0E00E6
:104178000B4640EA8372013BC4F860225A1CF8D10E
:10418800ACF1200C1CF1200FF0D1BFF34F8F636905
:1041980043F480336361BFF34F8FBFF36F8FA3E79F
:1041A80000ED00E00419002404F010BA1C4B9B68D1
:1041B80003F17842B2F5003F25D3B3F5803F20D311
:1041C80003F16042B2F5003F1FD303F15C42B2F540
:1041D800002F1CD303F17042B2F5902F19D303F1CD
:1041E8004842B2F5803F16D303F18042B2F1806FA6
:1041F80013D303F1E043B3F5000F2CBF08200720C9
:104208007047012070470020704702207047032044
:10421800704704207047052070470620704700BF8C
:1042280000ED00E003480023034A044903600BF053
:1042380049B900BF04190024000000241D3D0008EE
:1042480010B4204C0022204B83B0D4F888101F48AB
:1042580041F47001C4F8881019681D4C41F001013F
:1042680019601A61196808401A4918609A61DA6178
:104278001A629A62DA621A635A639A63DA631A6490
:104288005A64186820F4802018601A66D3F8DC2075
:1042980042F06042C3F8DC20D3F8DC300193019B84
:1042A80023681940B1F1005F03D20B4B0122C3F818
:1042B8000821044B4FF000629A6003B05DF8044B8C
:1042C800704700BF00ED00E0004402587FEDF6EAB9
:1042D8000010005C0000FFFF0080005100F57171C4
:1042E800D0F8040407F0A4BBC1EBC10300EB8303BF
:1042F800D0F80404D3F8082207F0C8BBC1EBC10307
:1043080000EB8303D0F804049A6C07F0FDBB00BFF0
:10431800D0F8040407F09CBCC16810B5044619B174
:10432800022900D0FEE70121D4F8040407F07AFC42
:10433800D4F80404BDE8104007F04CBC10B504469E
:10434800D0F8040407F072FC2268D2F8003E43F06B
:104358000103C2F8003E236A23B1034A136943F0FC
:104368000603136110BD00BF00ED00E0D0F804049F
:1043780007F066BCD0F8040407F07ABCD0F804044F
:1043880007F074BCD0F8040407F074BCD0F8040437
:1043980007F072BC9446D0F898021A4608B56346EE
:1043A80002F0BCFE032802D8024B185C08BD0220AC
:1043B80008BD00BFC0FA0008D0F8980208B502F09E
:1043C8003BFF032802D8024B185C08BD022008BD39
:1043D800C0FA0008D0F8980208B502F071FF032867
:1043E80002D8024B185C08BD022008BDC0FA0008BC
:1043F8000A06D0F8983206D4C1EBC10103EB81015B
:1044080091F8FE01704701F07F01C1EBC10103EB98
:10441800810191F83E007047D0F8980208B502F083
:1044280067FE032802D8024B185C08BD022008BDAD
:10443800C0FA0008D0F8980208B502F0D5FE0328A3
:1044480002D8024B185C08BD022008BDC0FA00085B
:10445800D0F8980208B502F09FFE032802D8024B54
:10446800185C08BD022008BDC0FA0008D0F8C002D8
:1044780007F0B0BED0F8C00207F0C4BED0F8C00242
:1044880007F0CCBE704700BFD0F8C00207F0B2BE3C
:10449800D0F8C00207F0B2BED0F8D00308B501F0DA
:1044A800A3FF032802D8024B185C08BD022008BDF0
:1044B800C4FA0008024B027853F82200704700BF84
:1044C800E8FA0008024B427833F81200704700BF40
:1044D800C8FA00088CB00A2814D8DFE800F01523C1
:1044E800313F4D5B6977859306004D4BD3F8E0204B
:1044F80042F48062C3F8E020D3F8E03003F480632C
:104508000B930B9B0CB07047454BD3F8E02042F05F
:104518000102C3F8E020D3F8E03003F0010301936F
:10452800019BEFE73E4BD3F8E02042F00202C3F8CC
:10453800E020D3F8E03003F002030293029BE1E7A6
:10454800374BD3F8E02042F00402C3F8E020D3F858
:10455800E03003F004030393039BD3E7304BD3F815
:10456800E02042F00802C3F8E020D3F8E03003F07E
:1045780008030493049BC5E7294BD3F8E02042F0D5
:104588001002C3F8E020D3F8E03003F010030593DD
:10459800059BB7E7224BD3F8E02042F02002C3F88E
:1045A800E020D3F8E03003F020030693069BA9E748
:1045B8001B4BD3F8E02042F04002C3F8E020D3F8C8
:1045C800E03003F040030793079B9BE7144BD3F8B5
:1045D800E02042F08002C3F8E020D3F8E03003F096
:1045E80080030893089B8DE70D4BD3F8E02042F435
:1045F8008072C3F8E020D3F8E03003F480730993A5
:10460800099B7FE7064BD3F8E02042F40072C3F819
:10461800E020D3F8E03003F400730A930A9B71E7B3
:1046280000440258704700BF0F4B1B780BB901209C
:10463800704710B504464FF47A700C4AB0FBF3F398
:104648001068B0FBF3F000F0E1F80F2C00D808B1C7
:10465800012010BD002221464FF0FF3000F076F80F
:10466800034B00201C6010BD840100247C01002441
:104678008801002438B50320124D00F055F8124C7B
:1046880003F0D4FD114A12499369C3F30323CB5CA9
:1046980003F01F0320FA03F30E202B60926902F047
:1046A8000F028A5C02F01F02D3402360FFF7BCFFB1
:1046B80010B10124204638BD0446FFF7B3FF204659
:1046C80038BD00BF7C01002480010024004402584A
:1046D800B0FA0008034A044B11681B780B441360B6
:1046E800704700BFD41F002484010024014B1868C0
:1046F800704700BFD41F002438B50446FFF7F6FF03
:104708000546631C02D0044B1B781C44FFF7EEFFE0
:10471800431BA342FAD338BD84010024014B186817
:10472800000C70470010005C06494FF6FF0C0002B1
:10473800054BCA6800F4E06002EA0C021043034328
:10474800CB60704700ED00E00000FA051B4BDB680A
:10475800C3F3022300B5C3F1070E03F1040CBEF145
:10476800040F28BF4FF0040EBCF1060F1AD9033B03
:104778004FF0FF3C0CFA03FC22EA0C024FF0FF3C1E
:1047880000280CFA0EFC21EA0C0101FA03F141EAB7
:1047980002010ADB09010A4BC9B2034483F800137A
:1047A8005DF804FB00221346E8E700F00F0009015A
:1047B800044BC9B2034419765DF804FB00ED00E030
:1047C80000E100E0FCEC00E0002807DB00F01F013E
:1047D80001234009024A8B4042F82030704700BF4D
:1047E80000E100E000280DDB4309012200F01F0072
:1047F8000549203302FA00F041F82300BFF34F8F38
:10480800BFF36F8F704700BF00E100E0431EB3F1B4
:10481800807F0CD24FF0E022002006494FF0F00CC8
:104828005361072381F823C0906113617047012009
:10483800704700BF00ED00E0BFF35F8F044B00211D
:104848005A6A22F480325A62C3F89410704700BF43
:1048580000ED00E0064B40F00100C3F894005A6AEE
:1048680042F480325A62BFF34F8FBFF36F8F7047A5
:1048780000ED00E0174A4378C2F89830017821B378
:10488800436800B5C2F89C30C37A90F80CC01B0688
:1048980090F80FE043EA0C7390F80AC00B43817B51
:1048A80043EACC4390F80DC043EA8C4390F809C022
:1048B80043EA4143017A43EA0E4343EA0C2343EABD
:1048C8004103C2F8A0305DF804FBC2F89C10C2F89E
:1048D800A010704700ED00E0704700BF08B5FFF773
:1048E800FBFF08BD0268344B344930B4344D354CB5
:1048F800AA4218BF9A420CBF012300238A4208BF6C
:1049080043F001033031A24208BF43F001033034C1
:104918008A4208BF43F001033031A24208BF43F086
:10492800010330348A4208BF43F0010301F55C718A
:10493800A24208BF43F0010304F55C748A4208BF31
:1049480043F001033031A24208BF43F00103303481
:104958008A4208BF43F001033031A24208BF43F046
:10496800010330348A4208BF43F001033031A242C8
:1049780008BF43F001038A4208BF43F0010313B99B
:10498800114B9A4213D1D3B21049114C103BA1FBE1
:1049980003515F2B0F4BC1F3021103EA0203615C61
:1049A80088BF0433C1658365184630BC704722F060
:1049B800FF038365F8E700BF100002404000024093
:1049C8002800024058000240B8040240ABAAAAAA34
:1049D80018FB000800FCFFFF0368294A294930B486
:1049E800294D2A4CAB4218BF93420CBF012200222A
:1049F8008B4208BF42F001022831A34208BF42F0AF
:104A0800010228348B4208BF42F001022831A34238
:104A180008BF42F001028B4208BF42F0010212B9FE
:104A28001B4A934213D1DBB21A4C1B4A0121083BA3
:104A38001A4DA4FB0343456602EB1312C3F3041398
:104A4800920001FA03F30266836630BC7047DAB25B
:104A58001349144C1944103AA829A4FB02234FEA1D
:104A6800131300D80833104A03F01F0501210F4C17
:104A78001A44A9404466920081660266E5E700BFD1
:104A880008540258305402581C54025844540258CE
:104A980094540258CDCCCCCC0096001680580258BD
:104AA800F0FBFDBFABAAAAAA008200108008024052
:104AB80070B50446FFF71AFE002C00F0C680236884
:104AC8000546954A934248D01832934245D0303231
:104AD80092498B4218BF934201F130010CBF012269
:104AE80000228B4208BF42F0010218318B4208BFF6
:104AF80042F0010218318B4208BF42F0010218311E
:104B08008B4208BF42F0010201F556718B4208BF83
:104B180042F0010218318B4208BF42F001021831FD
:104B28008B4208BF42F0010218318B4208BF42F0A5
:104B3800010218318B4208BF42F0010218318B4242
:104B480008BF42F0010218318B4208BF42F001024F
:104B58001AB9734A934240F0F5800222002184F882
:104B6800352084F834101A6822F001021A6005E032
:104B7800FFF7BCFD431B052B40D823681A68D107F3
:104B8800F6D4D4E9022521692A43A0691D680A439D
:104B980061690A43E16902430A4362492940256A77
:104BA8002A430A43616A04292FD01A605A6922F0FD
:104BB8000702114359612046FFF794FEE26D3F2337
:104BC80002F01F02934083602046FFF705FFA368A9
:104BD800802B3CD06368A06EDAB2013BD4E918514F
:104BE800072B2A60486026D90023C4E91B33636772
:104BF80000200123606584F8353070BD202203232E
:104C08000120626584F8353070BDD4E90B51294321
:104C18000A431A605969A26A21F00701114341F059
:104C28000401002DC6D000284FD1012A6ED032F0E1
:104C38000202BFD151E0501E072810D9626FD4E993
:104C48001B31002018604A60D2E7012070BD0023A4
:104C5800A16ED4E91802636003605160C4E721685B
:104C6800314B324DA94218BF994205F114050CBFCA
:104C780001230023A94208BF43F001031435A942C8
:104C880008BF43F001031435A94208BF43F00103EC
:104C98001435A94208BF43F001031435A94208BFDF
:104CA80043F001033BB9224B994204D0214B2249DE
:104CB80013449B0003E0214B214913449B0001222C
:104CC8008240C4E91B316267BBE7B0F5005F0ED0D4
:104CD800022A05D9032A7FF46DAFEA017FF56AAF8E
:104CE800012340221846626584F8353070BD032AD6
:104CF8003FF660AF01A050F822F000BFE94C000871
:104D0800E34C0008E94C0008154D0008B5F1C07FD8
:104D18007FF450AFE4E700BF1000024040000240BB
:104D2800B80402403F8010FE085402581C54025830
:104D3800945402583F820010400902403F960016E2
:104D480040590258324A33483349834218BF934284
:104D580000F128000CBF012200228B4208BF42F05C
:104D680001022831834208BF42F0010228308B42F9
:104D780008BF42F001022831834208BF42F0010215
:104D88008B4208BF42F0010212B9244A934238D13B
:104D980002220021224D84F8341084F835201A6844
:104DA8001540A268402A2AD0802A0CBF4FF48040C0
:104DB8000846266AD4E90312D20842EAD102616998
:104DC80042EAD102A16942EAD102E16942EAD1028A
:104DD800144942EA161219442A4302431248A0FB16
:104DE800010120461A600B099B00E365FFF77AFD75
:104DF800E26D012302F01F0293404360E4E61020B5
:104E0800D7E7402203230120626584F8353070BD5E
:104E1800085402581C5402583054025894540258EA
:104E28000F00FEFFF8ABFDA7CDCCCCCC002800F0DE
:104E3800BC80844690F83400012800F0B880012036
:104E48002DE9F0419CF835408CF83400844208D0B4
:104E580000224FF400638CF83420CCF85430BDE8BD
:104E6800F0810220DCF800507A4C8CF835000020E4
:104E7800794ECCF854007948854218BFA54200F114
:104E880018000CBF01240024854208BF44F0010427
:104E98001830854208BF44F001041830854208BF25
:104EA80044F001041830854208BF44F0010400F5BD
:104EB8005670854208BF44F001041830854208BF87
:104EC80044F001041830854208BF44F0010418304A
:104ED800854208BF44F001041830854208BF44F0F9
:104EE80001041830854208BF44F001041830854297
:104EF80008BF44F001041830854208BF44F001049B
:104F0800A0F59560B54218BF8542DCF86C600CBF0F
:104F18000120002054EA0008286820F001002860D9
:104F2800DCF86400DCF86840DCF85870446040D075
:104F380016B1DCE91C044460DCF85C004FF03F0E5D
:104F480000F01F000EFA00F0B860286820F48020F6
:104F580028606B60DCF80830402B23D0A960EA6039
:104F68002B6823F01E0343F016032B60DCF8403057
:104F78001BB12B6843F008032B60DCF860301A681B
:104F8800D20303D51A6842F480721A601EB13368DE
:104F980043F4807333602B68002043F001032B60D7
:104FA800BDE8F081AA60E960DAE7012070470220D5
:104FB800704716B1DCE91C0444602948DFF8A8E012
:104FC800754518BF85420EF1140E0CBF0120002054
:104FD800754508BF40F001000EF1140E754508BF75
:104FE80040F001000EF1140E754508BF40F00100B5
:104FF8000EF1140E754508BF40F001000EF1140EB5
:10500800754508BF40F0010010B9164885420ED119
:10501800DCF85C0000F01F0E012000FA0EF078604A
:105028006B60DCF80830402B10D0A960EA602B6870
:1050380023F00E0343F00A032B60DCF84030002B0A
:105048009BD02B6843F004032B6096E7AA60E960C5
:10505800EDE700BF4000024028000240580002402F
:1050680008540258945402581C54025800285FD01F
:1050780038B590F835200346022A55D10168444ACC
:10508800914248D01832914245D03032414C424882
:10509800A14218BF914204F148040CBF012200222A
:1050A800814208BF42F001023030A14208BF42F0FD
:1050B80001023034814208BF42F0010200F55C7001
:1050C800A14208BF42F0010204F55C74814208BFA6
:1050D80042F001023030A14208BF42F001023034F0
:1050E800814208BF42F001023030A14208BF42F0BD
:1050F80001023034814208BF42F001023030A1423F
:1051080008BF42F00102814208BF42F0010212B911
:10511800224A91420ED10422002083F835200B68E0
:1051280023F001030B6038BD802201205A6538BD89
:10513800012070470A681C6E22F00E02D86D9D6D22
:105148000A6000F01F000A6822F001020A600122CA
:105158002168824021F4807121606A60DA6ED3E9A7
:105168001910486032B11168D3E91C0421F4807128
:1051780011604460002401211A6D83F8344083F8DB
:1051880035101AB118469047204638BD104638BD2C
:10519800100002404000024070000240B804024083
:1051A8002DE9F04300229C4B83B09C4E1D6881463C
:1051B800019203689A4A846D934218BFB3422768E4
:1051C80008BF0126216818BF002645D01832954827
:1051D800834218BF934200F118000CBF012200223D
:1051E800834208BF42F001021830834208BF42F0F0
:1051F80001021830834208BF42F00102183083428E
:1052080008BF42F0010200F55670834208BF42F021
:1052180001021830834208BF42F00102183083426D
:1052280008BF42F001021830834208BF42F0010271
:105238001830834208BF42F001021830834208BF89
:1052480042F001021830834208BF42F001021AB945
:10525800754A934240F05082D9F85C10082201F058
:105268001F0C02FA0CF2174240F0888127FA0CF260
:10527800D2070CD55A69100609D5012202FA0CF298
:10528800A260D9F8542042F00202C9F854204FF025
:10529800040E0EFA0CF038425BD0002E4FD1634A50
:1052A800DFF88081434518BF934208F118080CBF06
:1052B80001220022434508BF42F0010208F1180804
:1052C800434508BF42F0010208F11808434508BFEA
:1052D80042F0010208F11808434508BF42F00102F4
:1052E80008F55678434508BF42F0010208F118084E
:1052F800434508BF42F0010208F11808434508BFBA
:1053080042F0010208F11808434508BF42F00102C3
:1053180008F11808434508BF42F0010208F11808CF
:10532800434508BF42F0010208F11808434508BF89
:1053380042F001021AB93C4A934240F019821A68B5
:10534800920706D5A060D9F8542042F00402C9F8A3
:105358005420102202FA0CFC1CEA070F6CD0002E15
:1053680045D1324A2F4EB34218BF934206F1180670
:105378000CBF01220022B34208BF42F001021836D6
:10538800B34208BF42F001021836B34208BF42F0E8
:1053980001021836B34208BF42F0010206F55676FC
:1053A800B34208BF42F001021836B34208BF42F0C8
:1053B80001021836B34208BF42F001021836B34260
:1053C80008BF42F001021836B34208BF42F001029A
:1053D8001836B34208BF42F001021836B34208BF7C
:1053E80042F001021AB9104A934240F0C9811A6882
:1053F800100721D5C4F808C01A68560300F14C817B
:105408001A68D20503D41A6822F008021A60D9F87B
:1054180040308BB10CE000BF7C010024100002403A
:105428002800024058000240B804024040000240F0
:1054380048469847D9F85C1001F01F0120268E4095
:105448003E4268D0D9F80020A54BA64FBA4218BFF3
:105458009A4207F118070CBF01230023BA4208BF7C
:1054680043F001031837BA4208BF43F00103183765
:10547800BA4208BF43F001031837BA4208BF43F0E5
:1054880001031837BA4208BF43F001031837BA427C
:1054980008BF43F0010307F55677BA4208BF43F047
:1054A80001031837BA4208BF43F001031837BA425C
:1054B80008BF43F001031837BA4208BF43F001039D
:1054C8001837BA4208BF43F001031837BA4208BF79
:1054D80043F001031837BA4208BF43F001031BB970
:1054E800814B9A4240F062811368DB0613D5A660AF
:1054F80099F83530042B136800F0AE8013F4802F30
:10550800136800F0D3801C0340F1DE80D9F83C30EA
:105518000BB148469847D9F85430002B00F0B980B1
:10552800D9F85430D8071FD5D9F80020042189F8B4
:105538003510136823F0010313606C4BA3FB05358A
:10554800AD0A02E01368D90704D5019B0133AB42C9
:105558000193F7D9002389F834301368DB074CBF6F
:105568000323012389F83530D9F84C30002B00F09B
:105578009080484603B0BDE8F043184718684007D4
:105588000AD5186820F004001860A260D9F85420E1
:1055980042F00102C9F8542027FA0CF2D2077FF52D
:1055A80076AE534A5348834218BF934200F1300005
:1055B8000CBF01220022834208BF42F001021830CA
:1055C800834208BF42F001021830834208BF42F00C
:1055D80001021830834208BF42F0010200F55670FC
:1055E800834208BF42F001021830834208BF42F0EC
:1055F80001021830834208BF42F00102183083428A
:1056080008BF42F001021830834208BF42F001028D
:105618001830834208BF42F001021830834208BFA5
:1056280042F001021830834208BF42F00102002A0A
:105638007FF420AE002E7FF41DAE1A68042202FA11
:105648000CF23A4240F09480102202FA0CFC17EA5D
:105658000C0F3FF4F1AE84E623F016031360536990
:1056680023F080035361D9F840309BB3136823F0CB
:10567800080313603F230025012203FA01F1D9F83A
:105688005030A16089F8345089F83520002B7FF418
:1056980070AF03B0BDE8F0831B6818037FF5B7AEA1
:1056A800D9F84830002B7FF4C3AEC5E613F48073F5
:1056B8007FF42CAF116821F010011160012289F8E4
:1056C800343089F8352021E7D9F84430002B7FF4AD
:1056D80020AF20E7D9F84830002BC7D1CAE700BF70
:1056E8001000024028000240B8040240B5814E1B59
:1056F80058000240400002404E4A4F4DAB4218BF8E
:10570800934205F114050CBF01220022AB4208BFE9
:1057180042F001021435AB4208BF42F001021435D1
:10572800AB4208BF42F001021435AB4208BF42F059
:1057380001021435AB4208BF42F0010212B93F4AD8
:105748009342A6D1D9F85C5004261A6805F01F05C3
:10575800AE400E4219D0570717D5100466604BD5D6
:10576800D1034FD4D9F84830002B7FF402AF90E72B
:105778001A68102202FA0CFC17EA0C0F3FF45CAE10
:105788001A6852077FF558AE34E60226AE400E423C
:1057980011D097070FD56660140439D5D00343D4C8
:1057A800D9F84430002B7FF4E4AE72E713689F0702
:1057B8007FF5B1AE9BE60826AE400E423FF469AFD6
:1057C80011077FF566AF1A68002122F00E021A60F1
:1057D8000123D9F84C2003FA05F56560C9F854305F
:1057E80089F8341089F83530002A3FF452AF48461A
:1057F80003B0BDE8F0431047920603D41A6822F0BC
:1058080004021A60D9F84030002B7FF4B2AE40E7AA
:1058180012F0200208D11968012421F00A01196048
:1058280089F8342089F83540D9F83C30002B7FF4CA
:10583800A0AE2EE7085402581C540258945402583B
:10584800406D70472DE9F04F0D6883B0002D00F0D2
:10585800D5800023DFF8688201229A4012EA050CFD
:1058680000F0C7804E6826F01009B9F1020F40F029
:10587800C88003F007044FEAD30E4FF00F0A4FEA2F
:10588800840900EB8E0E0AFA09FADEF8204024EAB1
:105898000A0A0C6904FA09F406F0030944EA0A043E
:1058A800CEF820404FEA430E0324D0F800A009FAAE
:1058B8000EF904FA0EF42AEA040AE44349EA0A094A
:1058C800C0F80090D0F808A0CF6804EA0A0A07FADE
:1058D8000EF949EA0A09C0F80890C6F30019D0F889
:1058E80004A009FA03F92AEA020249EA020242601C
:1058F800C268F70004EA02048A6802FA0EF242EA71
:105908000402C26075D5644C23F0030E03F003094A
:10591800D4F8F420C6444FEA890942F00202C4F8D8
:10592800F420D4F8F42002F002020192019A0F2226
:10593800DEF8084002FA09F224EA0202574CA042B3
:1059480025D004F58064A0427BD0554CA0427ED07F
:10595800544CA0426FD0544CA04200F08480534C69
:10596800A04200F08680524CA04276D0514CA04212
:1059780000F08580504CA04200F087804F4CA04238
:105988000CBF09240A2404FA09F942EA0902CEF8EC
:1059980008204FF0B0426FEA0C0EF403D2F88020D2
:1059A8004FF0B04454BF0EEA02024CEA0202C4F8B7
:1059B8008020B203D4F884404FF0B04254BF0EEABE
:1059C80004044CEA0404F702C2F8844014684FF057
:1059D800B04254BF0EEA04044CEA04041460B40252
:1059E80052684FF0B04454BF0EEA02024CEA020279
:1059F8006260013335FA03F27FF42EAF03B0BDE8DD
:105A0800F08F4FEA430E0324D0F800B006F0030AE3
:105A180004FA0EF409F1FF390AFA0EFA2BEA040B1C
:105A2800B9F1010F6FEA04044AEA0B0AC0F800A0B2
:105A38003FF65EAF46E7032404FA09F942EA090291
:105A4800A5E7012404FA09F942EA09029FE70224BA
:105A580004FA09F942EA090299E7062404FA09F95D
:105A680042EA090293E7042404FA09F942EA09021E
:105A78008DE7052404FA09F942EA090287E70724B1
:105A880004FA09F942EA090281E7082404FA09F943
:105A980042EA09027BE700BF0044025800000258AE
:105AA80000080258000C025800100258001402584E
:105AB80000180258001C02580020025800240258FE
:105AC80000040058002900F0A88000232DE9F04FB9
