:020000040800F2
:100000000000022089060008850600082D3F000830
:100010008506000885060008850600080000000027
:10002000000000000000000000000000850600083D
:10003000850600080000000085060008B13E0008A3
:100040008506000885060008850600088506000864
:100050008506000885060008850600088506000854
:10006000850600088506000885060008992D000809
:10007000A52D000885060008B12D0008BD2D00083B
:1000800075E10008C92200088506000885060008F9
:100090008506000885060008850600088506000814
:1000A0008506000885060008850600088506000804
:1000B000A1D50008ADD50008B9D50008FD2200087B
:1000C000850600080923000885060008C5370008D2
:1000D000D1370008A9DF0008D5DF000809E00008D3
:1000E0008506000885060008000000008506000857
:1000F00085060008850600088506000885060008B4
:100100008506000885060008C5D50008DD3700080B
:100110003DE0000871E0000885060008850600083B
:1001200085060008850600080138000835380008F3
:10013000A9E1000885060008850600088506000874
:1001400000000000000000000000000000000000AF
:10015000850600088506000885060008A5E0000859
:100160001523000885060008C13E0008E53E00088A
:1001700085060008093F0008850600088506000876
:100180008506000885060008D9E000080DE1000892
:10019000E9370008F53700088506000885060008DD
:1001A0008506000885060008850600088506000803
:1001B000B92A00088506000885060008850600089B
:1001C00085060008850600084D1C0008591C00081B
:1001D00085060008651C00088506000885060008DD
:1001E00085060008850600088506000885060008C3
:1001F00085060008850600088506000885060008B3
:1002000085060008850600088506000885060008A2
:100210008506000885060008850600088506000892
:100220008506000885060008850600080000000015
:100230008506000885060008000000008506000805
:100240008506000885060008850600088506000862
:100250008506000885060008850600088506000852
:100260008506000885060008850600088506000842
:10027000850600088506000841E10008000000002E
:1002800085060008850600088506000800000000B5
:080290000000000085060008D3
:1002A00010B5054C237833B9044B13B10448AFF3B0
:1002B00000800123237010BD100600240000000000
:1002C000E82B010808B5034B1BB103490348AFF302
:1002D000008008BD0000000014060024E82B01087F
:1002E00001F0FF01102A2BDB10F0070F08D010F8E7
:1002F000013B013A8B422DD010F0070F42B3F6D1EB
:10030000F0B441EA012141EA014122F007047FF003
:1003100000070023F0E80256083C85EA010586EA5A
:10032000010685FA47F5A3FA87F586FA47F6A5FA96
:1003300087F68EB9EED1F0BC01F0FF0102F00702A2
:1003400032B110F8013B013A83EA010313B1F8D14D
:100350000020704701387047002D06BF354603382E
:10036000073815F0010F07D1013015F4807F02BF67
:10037000013015F4C03F0130F0BC0138704700BFB8
:1003800053B94AB9002908BF00281CBF4FF0FF31FC
:100390004FF0FF3000F074B9ADF1080C6DE904CEF8
:1003A00000F006F8DDF804E0DDE9022304B0704750
:1003B0002DE9F047089D04468E46002B4DD18A4218
:1003C000944669D9B2FA82F252B101FA02F3C2F14B
:1003D000200120FA01F10CFA02FC41EA030E9440DC
:1003E0004FEA1C48210CBEFBF8F61FFA8CF708FBFD
:1003F00016E341EA034306FB07F199420AD91CEBD5
:10040000030306F1FF3080F01F81994240F21C8106
:10041000023E63445B1AA4B2B3FBF8F008FB10334E
:1004200044EA034400FB07F7A7420AD91CEB040483
:1004300000F1FF3380F00A81A74240F20781644453
:10044000023840EA0640E41B00261DB1D4400023D8
:10045000C5E900433146BDE8F0878B4209D9002D3C
:1004600000F0EF800026C5E9000130463146BDE8C6
:10047000F087B3FA83F6002E4AD18B4202D3824230
:1004800000F2F980841A61EB030301209E46002DDF
:10049000E0D0C5E9004EDDE702B9FFDEB2FA82F234
:1004A000002A40F09280A1EB0C014FEA1C471FFA92
:1004B0008CFE0126200CB1FBF7F307FB131140EA79
:1004C00001410EFB03F0884208D91CEB010103F146
:1004D000FF3802D2884200F2CB804346091AA4B208
:1004E000B1FBF7F007FB101144EA01440EFB00FEDC
:1004F000A64508D91CEB040400F1FF3102D2A64541
:1005000000F2BB800846A4EB0E0440EA03409CE7DF
:10051000C6F12007B34022FA07FC4CEA030C20FA8C
:1005200007F401FA06F31C43F9404FEA1C4900FAAC
:1005300006F3B1FBF9F8200C1FFA8CFE09FB181129
:1005400040EA014108FB0EF0884202FA06F20BD99C
:100550001CEB010108F1FF3A80F08880884240F2EC
:100560008580A8F102086144091AA4B2B1FBF9F030
:1005700009FB101144EA014100FB0EFE8E4508D92B
:100580001CEB010100F1FF346CD28E456AD90238B0
:10059000614440EA0840A0FB0294A1EB0E01A14295
:1005A000C846A64656D353D05DB1B3EB080261EB03
:1005B0000E0101FA07F722FA06F3F1401F43C5E9DD
:1005C000007100263146BDE8F087C2F12003D84013
:1005D0000CFA02FC21FA03F3914001434FEA1C4755
:1005E0001FFA8CFEB3FBF7F007FB10360B0C43EA47
:1005F000064300FB0EF69E4204FA02F408D91CEBF7
:10060000030300F1FF382FD29E422DD902386344F4
:100610009B1B89B2B3FBF7F607FB163341EA034194
:1006200006FB0EF38B4208D91CEB010106F1FF38E3
:1006300016D28B4214D9023E6144C91A46EA0046DA
:1006400038E72E46284605E70646E3E61846F8E66C
:100650004B45A9D2B9EB020864EB0C0E0138A3E7B5
:100660004646EAE7204694E74046D1E7D0467BE796
:10067000023B614432E7304609E76444023842E70E
:10068000704700BFFEE700BF0B480C4A904203D002
:10069000121A0B490FF0CEFF0A480B4A904203D0C2
:1006A000121A00210FF0D4FF03F096FE0FF096FF10
:1006B00000F066F8FEE700BF0000002410060024EA
:1006C0001C2C010810060024CC5D0024704700BFDC
:1006D00010B5124982B0002401221148234609684E
:1006E000009401F0C5FA0F492346012209680E481B
:1006F000009401F0BDFA0D492346012209680C4817
:10070000009401F0B5FA0B492346224609680A48CD
:10071000009401F0ADFA02B010BD00BF102901082D
:100720004006002414290108540600241829010851
:100730002C0600241C2901086806002410B40D4969
:10074000002301240C4A04200B610B62486290884C
:10075000B2F800C048800948A1F800C0C1E90634D9
:10076000C1E9023308235DF8044B4B6113898B8088
:1007700003F006BAD4060024B01A0108FC060024CF
:1007800000B5002185B017484FF6FF7500F0BCFD9D
:10079000012001F093F9144801F082F9FFF7CEFF30
:1007A000124801F07DF9FFF793FF114801F078F945
:1007B00000F058F900F05CF90E4801F071F90020E2
:1007C00000F0D4FC0C4B0A2100225C6808461B6830
:1007D00002920A4ACDE9004500F01AFC084801F0EF
:1007E0005FF9FEE77C060024742801088C280108C4
:1007F000A8280108C428010804000024E4280108EE
:10080000F028010838B517480024174A1749046032
:1008100044610462C4630FF0C5FE4FF60B71144AC5
:100820001448154B154DC2E90014C2E90244144A9C
:100830002C60C2E90014C2E90244124AC0E9001463
:10084000C2E90014C0E90244C2E9024408200222BD
:100850000D495A62102258610C60C3E906440B4BE3
:100860001A7438BD7C06002400000024CD06000860
:100870004006002454060024D4060024FC0600246C
:100880002C06002468060024D0060024BC060024A0
:100890002DE9F04F0024DFF8D4B085B081460F4633
:1008A00058462146304DDFF8C8A090461E4601F05C
:1008B000D1FA2A230122294650462B702346CDE93E
:1008C000004403F0E5F98DF80D908DF80F804FEAA4
:1008D00019294FEA1828584601218DF80C908DF8F7
:1008E0000E8001F0B7FA039B0422294650462B6084
:1008F0002346CDE9004403F0CBF92146584601F0E8
:10090000A9FA2B23012229462B7050462346CDE914
:10091000004403F0BDF98DF80D708DF80F603F0AAB
:10092000360A584601218DF80C708DF80E6001F0E2
:1009300091FA039B0422294650462B602346CDE9B9
:10094000004403F0A5F92146584601F083FA2C2211
:10095000234629462A7001225046CDE9004403F07F
:1009600097F905B0BDE8F08F000000304006002484
:10097000FC0600242DE9F0431C46831887B0064688
:10098000F02B0D46BDF838905FDC1746013A024463
:1009900092B22B190392B3F5A07F35DD00212D48CB
:1009A000C5F5A07401F056FA2946304640F23F13CF
:1009B000039AFFF76DFF0121A4B227484FEA1923DC
:1009C0008DF8159004F1FF388DF8143001F042FADB
:1009D000A7B1BDF814603C46204D01211E48013CE2
:1009E00001F038FA00230222A4B21C491C48CDE9C8
:1009F00000332E8003F04CF9002CEED11FFA88F45E
:100A0000E4B104F1FF38E3E704F1FF3800211148B5
:100A100001F020FA05EB0803304629469BB2039A01
:100A2000FFF736FF01214FEA19230B488DF8159087
:100A30008DF8143001F00EFA002CC9D101210548BF
:100A400007B0BDE8F04301F005BAC0F1F007EF22AE
:100A5000BFB29EE72C0600244006002400000030B0
:100A6000FC0600240121014801F0F4B92C06002401
:100A70002DE9F04FF34C87B00021F34801F0EAF97B
:100A800020460021DFF8D88301F0E4F90521EF4882
:100A90000126EF4D00F078FBEE4F204601210024A7
:100AA00001F0D8F940460021DFF8B8A301F0D2F9EF
:100AB00023463246294638462E700DF1080BA946CA
:100AC000CDE9004403F0E4F84FF47A71DF4800F018
:100AD0005BFB2146404601F0BDF9CB233246294657
:100AE0002B7038462346CDE9004403F0D1F89AE84C
:100AF0000300029040468DF80C10314601F0AAF92F
:100B000023460522CDE900449BE8030028603846CF
:100B10002971294603F0BCF82146404601F09AF9B4
:100B2000CF23324629462B7038462346CDE9004470
:100B300003F0AEF8DAF8083031464046ADF8083038
:100B40001B0C8DF80A3001F085F9029B032229461F
:100B500038462B801B0CCDE90044AB70234603F0D4
:100B600097F82146404601F075F9E82332462946B8
:100B70002B7038462346CDE9004403F089F8DAF8B3
:100B80000C3031464046ADF808301B0C8DF80A3069
:100B900001F060F9029B0322294638462B801B0C8A
:100BA000CDE90044AB70234603F072F8214640467D
:100BB00001F050F9EA23324629462B703846234685
:100BC000CDE9004403F064F83146404601F042F9B3
:100BD00023460222294638462C80CDE9004403F002
:100BE00057F82146404601F035F9ED2332462946B3
:100BF0002B7038462346CDE9004403F049F83146CE
:100C0000404601F027F9944B042229462B603846D0
:100C10002346CDE9004403F03BF82146404601F06D
:100C200019F9F723324629462B7038462346CDE979
:100C3000004403F02DF83146404601F00BF9202323
:100C4000324629462B7038462346CDE9004403F04E
:100C50001FF82146404601F0FDF8C02332462946E0
:100C60002B7038462346CDE9004403F011F8314695
:100C7000404601F0EFF82323324629462B703846D0
:100C80002346CDE9004403F003F82146404601F035
:100C9000E1F8C123324629462B7038462346CDE978
:100CA000004402F0F5FF3146404601F0D3F810232E
:100CB000324629462B7038462346CDE9004402F0DF
:100CC000E7FF2146404601F0C5F8C52332462946D4
:100CD0002B7038462346CDE9004402F0D9FF314657
:100CE000404601F0B7F842F63E03022229462B8027
:100CF00038462346CDE9004402F0CAFF214640466B
:100D000001F0A8F8C723324629462B7038462346FF
:100D1000CDE9004402F0BCFF3146404601F09AF8AC
:100D20008623324629462B7038462346CDE90044B7
:100D300002F0AEFF2146404601F08CF84FF036033A
:100D4000324629462B7038462346CDE9004402F04E
:100D50009FFF3146404601F07DF84FF048022346A0
:100D600029462A7038463246CDE9004402F090FF09
:100D70002146404601F06EF83A23324629462B7050
:100D800038462346CDE9004402F082FF3146404612
:100D900001F060F85523324629462B703846234629
:100DA000CDE9004402F074FF2146404601F052F8BC
:100DB000B123324629462B7038462346CDE90044FC
:100DC00002F066FF3146404601F044F84FF4C0534C
:100DD000022229462B8038462346CDE9004402F002
:100DE00057FF2146404601F035F8B62332462946E2
:100DF0002B7038462346CDE9004402F049FF174BDB
:100E0000314640461B68ADF808301B0C8DF80A309F
:100E100001F020F8029B0322294638462B801B0C48
:100E2000CDE90044AB70234602F032FF2146404634
:100E300001F010F8F223324629462B70384623463B
:100E400012E000BF540600242C0600247C06002477
:100E500000000030FC0600246403128120290108F0
:100E600040060024C41A0108CDE9004402F010FF36
:100E70003146404600F0EEFF2346324629463846CA
:100E80002C70CDE9004402F003FF2146404600F0FB
:100E9000E1FF2623324629462B7038462346CDE90A
:100EA000004402F0F5FE3146404600F0D3FF2346F1
:100EB0003246294638462E70CDE9004402F0E8FE5D
:100EC0002146404600F0C6FFE023324629462B70FB
:100ED00038462346CDE9004402F0DAFE494BDC46B1
:100EE0000FCBACE807002CF8023B1B0C3146404608
:100EF0008CF8003000F0AEFFCDE900449BE80F0015
:100F0000A9E80700A9F800301B0C0F22294609F8B0
:100F1000023F3846234602F0BBFE2146404600F021
:100F200099FFE123324629462B7038462346CDE906
:100F3000004402F0ADFE0AF11003DC460FCBACE832
:100F400007002CF8023B1B0C314640468CF8003061
:100F500000F080FFAC46CDE900449BE80F00ACE810
:100F60000700ACF800301B0C0F22294689F800302E
:100F70003846234602F08CFE2146404600F06AFFC8
:100F80001123324629462B7038462346CDE90044CA
:100F900002F07EFE1C48782100F0F6F8214640461B
:100FA00000F058FF2923324629462B703846234645
:100FB000CDE9004402F06CFE2146404600F04AFFB5
:100FC0004FF03603324629462B7038462346CDE98A
:100FD000004402F05DFE3146404600F03BFF4FF01A
:100FE0004802294638462A7023463246CDE9004455
:100FF00002F04EFE3146054807B0BDE8F04F00F064
:1010000029BF00BF242901087C0600242C060024E7
:1010100082B02DE9F04F8DB01446C3F30727DDB23F
:10102000BDF86480BDF8689017930597CDE9060177
:1010300000214A4800F00EFF2678002E7AD0631C6B
:101040004FEA182B08934FEA19230293BBB2099376
:10105000069B2B44EF2B75DD079B099A1344059AD9
:101060009BB207931344B3F5A07F63DA202E6BD0B5
:10107000002042190799099B92B2189CCB1806923E
:10108000013A013B92B29BB2FFF702FC059A002A9B
:101090004AD0203E6FF0004302FB0633002204EBEF
:1010A000430303920493049B33F8026F0493ADB39C
:1010B00000242B4F13E08DF82CB001348DF82D80D7
:1010C00000F0C8FEBDF82C00002302222449CDE91F
:1010D00000333880234802F0DBFDA5421ED006FA1B
:1010E00004F30121204813F4004AE4D1029B0121BA
:1010F0001D4801348DF82C308DF82D9000F0AAFE9B
:10110000BDF82CC05346022215491648CDE900AA65
:10111000A7F800C002F0BCFDA542E0D1039B059AF0
:1011200001339A420393BED1089B13F8016B0893D5
:10113000002E8DD1012109480DB0BDE8F04F02B05D
:1011400000F088BE069894E700230693089B13F8E6
:10115000016B0893002E7FF47BAFEBE72C06002495
:1011600000000030FC0600244006002400214FF45B
:10117000A073F02210B5044682B008460094FFF731
:10118000F9FB02B010BD00BF084602F03FBF00BF30
:1011900010B540F203338EB000244FF60B7240F2CC
:1011A0000341ADF8083009A80123ADF81020ADF8CF
:1011B00024202246ADF80C100094029907940C9458
:1011C000CDE90544CDE90A4400F052FD04A801230D
:1011D00022460399009400F04BFD09A800F02EFE72
:1011E00010B901200EB010BD04A800F027FEA042E7
:1011F0000CBF022020460EB010BD00BF2DE9F0410B
:1012000003239AB0012700240646CDE914373B4B4F
:10121000CDE9104340F20453CDE91647ADF848300C
:10122000FFF7B6FFB842054625D0022845D040F664
:101230000132334B0DF12C081894ADF82C200B988B
:101240001997CDF84A3000F0E3F810A906F13C00F8
:1012500001F0BAFD302003224FF07E5341460D933A
:101260000E93CDE90B02F26B06F1140000F04CFB7B
:101270001AB0BDE8F0811023214A06A906908DF826
:1012800028300DF12C081F4BCDF84A20079302940B
:10129000CDE91804CDE9080402A801F041F80823BB
:1012A000029A03A94046ADF80C508DF80E40049503
:1012B00005930B9400F0ECF8C7E700200121104BD8
:1012C0000DF12C083A460094CDF84A304FF60B73D6
:1012D0000C94ADF82C302346CDE9180140F60131CD
:1012E0004046ADF818100699CDE90D4400F0C0FC59
:1012F0002146404600F0AEFDA7E700BF040204040B
:10130000040604030704010B2DE9F04704462DED04
:10131000028B82B000294DD0012140F2011200233E
:101320000091ADF804208DF80630364A0127364B7F
:1013300004F10409354904F12908626040F202729F
:10134000A36040F60663E16004F1250AA4F82520B5
:10135000A4F82930278284F8277084F82B7002F0D3
:10136000F1FF054602F054FE6946064650BB4DB3F8
:1013700004F130008DF8067002F06CFF072D3CD1AF
:1013800004F114052046FFF739FF284600F0F8FA6B
:101390002846B0EE408A00F0EFFAD0ED007AF8EE81
:1013A000677A88EE277A84ED0E7A02B0BDEC028B64
:1013B000BDE8F08740F2011300918DF80610ADF8FA
:1013C0000430B2E704F1300002F044FF072D11D0E1
:1013D0004946204601F0ECF90EB9002DD0D1504617
:1013E00000F042FD404600F03FFD04F1120000F025
:1013F00079F9C5E7002EF2D1C2E74946204601F04F
:10140000D7F9BDE70508050905070506050A06061B
:1014100010B584B003460124ADF8040003A8ADF86C
:101420000C30ADF80E4000F01FFD214603A800F07F
:10143000F7FD204602F0EAFD002103A800F0F0FDD0
:10144000204602F0E3FD214603A800F0E9FD04B0C8
:1014500010BD00BF10B5C2F3002384B00C46017C60
:101460008DF80D2043EA4402FA2402238DF80C2063
:1014700003AA009400F0EAFF18B10124204604B04A
:1014800010BD04460A2002F0C1FD204604B010BD84
:10149000034670B543F8042B044684B007C983E8BB
:1014A0000700A37983B91A210B461E22FA2523745B
:1014B0002046ADF80C20022303AA009500F0C6FFD9
:1014C00028B1012004B070BD1B210B46EDE70A20B6
:1014D00002F09CFD4FF4B85200950223ADF80C20A9
:1014E000204603AA217C00F0B1FF0028E9D10A20A0
:1014F00002F08CFD41F2027200950223ADF80C203F
:10150000204603AA217C00F0A1FF0028D9D10A209F
:1015100002F07CFD042200950223ADF80C20204649
:1015200003AA217C00F092FF0028CAD10A2002F011
:101530006DFD062200950223ADF80C20204603AA7B
:10154000217C00F083FF0028BBD10A2002F05EFD61
:1015500041F2082200950223ADF80C20204603AA90
:10156000217C00F073FF0028ABD10A20064602F070
:101570004DFD0095022303AA217C2046ADF80C60A6
:1015800000F064FF00289CD1304602F03FFD00953A
:1015900022790C232046002A8DF80C3003AA4FF044
:1015A000020314BF622142218DF80D10217C00F04E
:1015B0004DFF002885D1304602F028FD2279D4E97C
:1015C00002310B43DBB20AB943F0400362790AB13E
:1015D00043F020030E22FA258DF80D3020460095A9
:1015E00002238DF80C2003AA217C00F02FFF002895
:1015F0007FF467AF0A2002F009FD10220095022354
:10160000ADF80C20204603AA217C00F01FFF002823
:101610007FF457AF0A2002F0F9FC12210095022353
:10162000ADF80C1003AA217C204600F00FFF002823
:101630007FF447AF0A2002F0E9FC0122092120468D
:10164000FFF708FF003818BF01203BE7F0B5102373
:1016500087B0234C012200250126002702A920463D
:101660000195CDE902234FF48052CDE9046709F0DA
:1016700073F9642003F0A4FC02A94FF480522046C1
:10168000CDE9046702261027CDE9026709F064F965
:101690000322102302A92046CDE9022300230422BD
:1016A000CDE904234FF4805209F056F940F2322379
:1016B000042202A9019310232046CDE90223019AB6
:1016C000012305924FF48052049309F045F940F646
:1016D0000601204609F060F9284607B0F0BD00BFBA
:1016E000080700241C4B00221C494FF0400C30B569
:1016F000054689B00220596007219A601A620124C8
:10170000DA620A224FF4006EDC6006922022CDE9F4
:10171000000104200821CDE9020103201021CDE9B8
:10172000040108206946C3E904024FF4C072181D81
:10173000C3E906C24FF48052C3E909E209F0E2F8B6
:1017400038B92846FFF782FF003818BF012009B0DA
:1017500030BD204609B030BD04070024404100528E
:10176000614A0021D0B513688EB00A91002B40F079
:10177000B9805E4B01214FF683700C241160022169
:10178000D3F8D4200026032742F48052C3F8D42093
:10179000D3F8D42002F480520092009AD3F8E020CB
:1017A00042F01002C3F8E020D3F8E02002F010026B
:1017B0000192019AD3F8E02042F04002C3F8E02001
:1017C000D3F8E02002F040020292029AD3F8E0201F
:1017D00042F00802C3F8E020D3F8E02002F008024B
:1017E0000392039AD3F8E02042F48072C3F8E02019
:1017F000D3F8E02002F480720492049AD3F8E02037
:1018000042F08002C3F8E020D3F8E02002F080022A
:101810000592059AD3F8E02042F02002C3F8E020B8
:10182000D3F8E02002F020020692069AD3F8E020D6
:1018300042F00402C3F8E020D3F8E0300C9403F047
:10184000040307930323079A0B93CDE9080108A922
:10185000274804F05BFC48F23712022308A9254808
:101860000C94CDE90823CDE90A6704F04FFC4CF253
:101870000372022308A920480C94CDE90823CDE97E
:101880000A6704F043FC40F2FF62022308A91B48E8
:101890000C94CDE90823CDE90A6704F037FC4FF634
:1018A0000C72022308A916480C94CDE90823CDE94F
:1018B0000A6704F02BFC4FF63F02022308A91148E7
:1018C0000C94CDE90823CDE90A6704F01FFC20221F
:1018D000022308A90A480C94CDE90A67CDE9082338
:1018E00004F014FC0EB0D0BD0007002400440258E0
:1018F0000010025800180258000C0258002002582C
:10190000001C02580014025830B5184C154685B01A
:10191000046004F1080EEC460FC98EE80F00D4ED08
:10192000047AF5EEC07A8CE80F00F1EE10FA1ADDB9
:10193000B7EE006A94ED057A27EE277AC6EE276A9D
:1019400084ED0D7AC4ED0C6A6DB1204640F8185F45
:1019500001F032FB064903690020064A2162A262B7
:10196000E36005B030BD012005B030BD3C07002468
:10197000102000301000003000680830704700BFB1
:101980000068183001F01ABB10B4074B4FF07E51BD
:1019900030240022032019619C60D8605DF8044B5C
:1019A0005961C3E9062270473C070024704700BF15
:1019B000F8B5134F3C687F2C07D98023114A42F2B7
:1019C00024411C463B60A2F87E100F4D2B68012B72
:1019D0000AD90C4E0D4D22463146284600F02CF90E
:1019E0000028F8D13860F8BD22460649074800F0C3
:1019F00023F90028F7D12B68386001332B60F8BD3C
:101A0000780700247C07002474070024FC070024C6
:101A100030B4154C2168F1B14B1E144DE81810F884
:101A200001298C4619460A2A01D00D2A02D14BB150
:101A3000013BF4E70CF102037F2B10D980232360D4
:101A400030BC70470122022323600D200A23685412
:101A5000AB5430BC704701220223044DF4E70CF173
:101A600001026146F0E700BF780700247C070024EC
:101A700010B5094C02460B46084821680844C1F1DC
:101A800080010EF04DFF236818442060FFF7C0FF6F
:101A9000FFF78EFF10BD00BF780700247C070024ED
:101AA0000FB400B583B004A951F8040B0191FFF7FE
:101AB000DFFF03B05DF804EB04B0704710B50446D7
:101AC00000210A4800F032F8002C094B14BF022212
:101AD000002208481A60FFF7E3FF0748FFF7E0FF1E
:101AE0000A20BDE8104002F091BA00BFFC070024B4
:101AF000740700243429010844290108064A0749CB
:101B0000074808B50EF04EFD034A04490548BDE8F4
:101B100008400EF047BD00BF00000024AD190008CA
:101B2000FC07002400080024704700BF012910B5FD
:101B300006D0022915D051B1BDE8104006F0C8B951
:101B40000A46344834490AF04FFFE8B1FEE7334B08
:101B50000A46334C334934481C600AF045FF68B1EB
:101B6000FEE701222C492B480AF03EFF00B1FEE7B8
:101B70002E4928480AF05AFFC0B1FEE72B492A48EF
:101B80000AF054FF60B1FEE7284922480AF04EFFF0
:101B900000B1FEE726491F480AF0D6FE08B3FEE76B
:101BA000244921480AF0D0FEA8B1FEE7204919488F
:101BB0000AF0CAFE00B1FEE716480AF04DFF0246E1
:101BC00040B9164B164C174917481C600AF00CFF19
:101BD00068B1FEE7FEE714480AF03EFF0028ABD0EC
:101BE000FEE70C480AF038FF0028A5D0FEE70F49B1
:101BF0000D480AF01BFF00B1FEE70E490A480AF043
:101C0000A3FE00B1FEE708480AF026FF002893D0A3
:101C1000FEE700BFA00A0024D80100243C0D0024E8
:101C2000291B0008BC0100240408002440020024F1
:101C30009C0100248C010024084691B208B502F0F2
:101C4000BBFC003818BF012008BD00BF014805F0EB
:101C50001DBC00BF10400024014805F017BC00BFA8
:101C600010400024014805F011BC00BF10400024C2
:101C700010B592B0ADF804100180C9B2149C0B29C4
:101C8000C460C0E901233FD090F801C0BCF10F0F40
:101C90003AD8022A3FD0032A02D0012A00D00022DB
:101CA0000E92012B02D0022B18BF0023022C0F939F
:101CB0002CD0032C2AD0012C28D000230A291093E1
:101CC00027D85C4A02EB812202610A2914D8DFE896
:101CD00001F0A39587796B5D4F4133250600564B84
:101CE000D3F8E01041F48061C3F8E010D3F8E0309D
:101CF00003F480630C930C9B01230DA9104603FA97
:101D00000CF30D9304F002FA12B010BD0A291094DE
:101D1000D7D90022D8E711220E92C2E7464BD3F85A
:101D2000E01041F40071C3F8E010D3F8E03003F4A0
:101D300000730B930B9BDFE73F4BD3F8E01041F4AC
:101D40008071C3F8E010D3F8E03003F480730A9395
:101D50000A9BD1E7384BD3F8E01041F08001C3F87B
:101D6000E010D3F8E03003F080030993099BC3E748
:101D7000314BD3F8E01041F04001C3F8E010D3F844
:101D8000E03003F040030893089BB5E72A4BD3F8F3
:101D9000E01041F02001C3F8E010D3F8E03003F088
:101DA00020030793079BA7E7234BD3F8E01041F0EC
:101DB0001001C3F8E010D3F8E03003F010030693ED
:101DC000069B99E71C4BD3F8E01041F00801C3F8DB
:101DD000E010D3F8E03003F008030593059B8BE790
:101DE000154BD3F8E01041F00401C3F8E010D3F82C
:101DF000E03003F004030493049B7DE70E4BD3F81B
:101E0000E01041F00201C3F8E010D3F8E03003F035
:101E100002030393039B6FE7074BD3F8E01041F0F5
:101E20000101C3F8E010D3F8E03003F0010302939E
:101E3000029B61E7000002580044025808B50121E6
:101E400043780069994089B204F068FB003818BFF4
:101E5000012008BD01230A464178006903FA01F117
:101E600089B204F061BB00BF8378022B30B5044611
:101E70008FB037D0032B33D0012B31D000230A93FE
:101E8000E378012B2AD0022B28D000230B930023C8
:101E900020460C9302F072FF0546204602F076FFC2
:101EA00023780990082B13D8DFE803F01F32455838
:101EB0006B7E91A40500594BD3F8E02042F4807268
:101EC000C3F8E020D3F8E03003F480730893089B54
:101ED00009A9284604F01AF90FB030BD0B93D6E7D4
:101EE0000A93CDE711230A93CAE74C4B09A9284668
:101EF000D3F8E02042F00102C3F8E020D3F8E0304C
:101F000003F001030093009B04F000F90FB030BD13
:101F1000424B09A92846D3F8E02042F00202C3F858
:101F2000E020D3F8E03003F002030193019B04F0BA
:101F3000EDF80FB030BD394B09A92846D3F8E020A1
:101F400042F00402C3F8E020D3F8E03003F00403C9
:101F50000293029B04F0DAF80FB030BD2F4B09A9B1
:101F60002846D3F8E02042F00802C3F8E020D3F876
:101F7000E03003F008030393039B04F0C7F80FB0AD
:101F800030BD264B09A92846D3F8E02042F01002C4
:101F9000C3F8E020D3F8E03003F010030493049B6F
:101FA00004F0B4F80FB030BD1C4B09A92846D3F893
:101FB000E02042F02002C3F8E020D3F8E03003F044
:101FC00020030593059B04F0A1F80FB030BD134B1F
:101FD00009A92846D3F8E02042F04002C3F8E020E7
:101FE000D3F8E03003F040030693069B04F08EF82C
:101FF0000FB030BD094B09A92846D3F8E02042F0C4
:102000008002C3F8E020D3F8E03003F080030793A8
:10201000079B04F07BF80FB030BD00BF00440258AE
:1020200070B506460D4602F0A9FE0446304602F0A1
:10203000ADFE2A1E0146204618BF0122BDE87040B1
:1020400004F072BA0023122270B586B0CDE90223E3
:1020500004930368032B01D804230593061D841DF4
:10206000304602F08BFE0546304602F08FFE0346F6
:1020700001A92846019304F049F8204602F07EFEAB
:10208000034620461C4602F081FE01A90346204675
:10209000019304F03BF806B070BD00BF634A0368CB
:1020A000934210B58CB028D0614A934258D0614A0F
:1020B000934200F09480604A934201D00CB010BD6E
:1020C0005E4C5F48D4F8E03043F00203C4F8E030DF
:1020D000D4F8E03003F002030A930A9BFFF7B2FF43
:1020E000D4F8F43043F08003C4F8F430D4F8F4307A
:1020F00003F080030B930B9BE0E7504C5148D4F85E
:10210000E03043F00203C4F8E030D4F8E03003F0EC
:1021100002030193019BFFF795FFD4F8E8300022FA
:102120001F2043F400131146C4F8E830D4F8E83017
:1021300003F400130293029BD4F8D83043F0010358
:10214000C4F8D830D4F8D83003F001030393039BCC
:1021500002F060FF1F200CB0BDE8104002F098BFF5
:10216000364C3948D4F8E03043F08003C4F8E0300E
:10217000D4F8E03003F080030493049BD4F8E030FB
:1021800043F00203C4F8E030D4F8E03003F0020377
:102190000593059BFFF756FFD4F8E8300022212075
:1021A00043F480031146C4F8E830D4F8E83003F46F
:1021B00080030693069BD4F8D83043F00103C4F89B
:1021C000D830D4F8D83003F001030793079B02F00E
:1021D00021FF21200CB0BDE8104002F059BF1B4880
:1021E000FFF730FF154B00224820D3F8E840114696
:1021F00044F40004C3F8E840D3F8E84004F40004D1
:102200000894089CD3F8D84044F00104C3F8D8409F
:10221000D3F8D83003F001030993099B02F0FAFECA
:1022200048200CB0BDE8104002F032BF005400401E
:1022300000580040005C0040001C00580044025858
:10224000CC0F0024440D00241C0E0024F40E0024A6
:102250002DE9F0431A4B87B000254FF010099E4638
:10226000EC46184BFF22E04667461A700EF118063E
:102270000EF13004CDE90055CDE90255ADF80090DE
:10228000BCE80F00CDE90455AEE80F009CE8030060
:102290000095ADF800908EE80300B8E80F000FC677
:1022A0009CE803000095ADF8009086E803000FCF8E
:1022B0000FC49CE8030084E8030007B0BDE8F08386
:1022C0000C000024410D002410B5EFF3108472B609
:1022D000084B1A78120602D504B962B610BD1B78F5
:1022E000D82205485BB202FB0300143003F0BCFBAC
:1022F000F2E700BF410D0024440D0024014804F022
:10230000ABBF00BFD00D0024014804F0A5BF00BF43
:10231000A80E0024014804F09FBF00BF800F0024D6
:102320002DE9F0430F68D8243F4D85B007FB04F436
:10233000032F05EB0403036040DCCB680E46012B42
:102340003CD84DD04FF0D808B646DFF8FC9008FBDB
:102350000758BEE80F00C446ACE80F00DEF80030B6
:102360000DF1100ECCF80030D8F808C099E80F0035
:102370000EE90F000EEB8703BCF1010F53F8103C80
:10238000C8F88C3031D0BCF1020F42D0BCF1000F44
:1023900035D0317C8C34D823002201202C4403FB1F
:1023A00007534900C3E92602C3F894102046C3E945
:1023B0002822C3E92A2204F041FD18B1012005B00A
:1023C000BDE8F0830146204604F052FF0028F5D115
:1023D0000146204604F076FF003818BF0120EEE7E2
:1023E0000B7C103B672BADD9E8E701F0A9FF0F4B41
:1023F00098420CBF0E4B0F4BC8F89030C9E701F064
:102400009FFF0A4B98420CBF0B4B0C4BC8F8903007
:10241000BFE701F095FF054B98420CBF084B094BF5
:10242000C8F89030B5E700BF440D0024000E270720
:102430002D0FB0303211D0205F4390608A62E030BF
:10244000200BA0101A098010E41A01082DE9F041B0
:10245000D0F8008082B00D4617461E4608F18C0465
:10246000204604F001FF2028FAD1D8F80C3073B9C7
:102470006D002046089C33463A46A9B2009404F009
:1024800033FD003818BF012002B0BDE8F081089B81
:1024900032463946204604F0FBFDF2E7044B102299
:1024A0001A7483F8E82083F8C02183F898227047D3
:1024B000440D002430B5002395B04FF480710622FE
:1024C00004460B9306921393CDE90C13CDE90E331A
:1024D000CDE9113301F036FF07282BD004F11005A8
:1024E00041F2883206A9284605F03EFE28B10123B4
:1024F000184684F85C3015B030BD0222022306A9CC
:102500002846CDE9002310220123CDE90223002231
:102510004FF48003CDE9042305224FF08073069227
:102520006A460F9341F2883305F08AFF0028DED116
:1025300015B030BD0323012084F85C3015B030BDE8
:1025400070B50023A4B04FF080724FF4807504463C
:10255000ADF806300D93CDE910320122CDE90E53CE
:10256000CDE91223CDE91433002943D0F02300F143
:10257000100508AEADF80630C02341F2883231466E
:102580002846089305F0F0FD28B10123184684F889
:102590005C3024B070BD41F288320DF1060128464E
:1025A00005F04CFE03460028EFD105224FF4807160
:1025B0001E93284616924FF080721B9321931F9210
:1025C00002AA9FED1F7BCDE91C13CDE922338DEDCF
:1025D000027B9FED1D7B41F2883316A98DED047BB4
:1025E0009FED1B7B8DED067B05F02AFF0028CCD1EB
:1025F00024B070BD00F1100508AE612341F28832AD
:1026000031462846089305F0AFFD0028BDD141F2C0
:1026100088320DF10601284605F08EFE0028B4D15F
:10262000BDF80630204623F0780343F04003ADF8B0
:102630000630FFF73FFF00289ED0A6E7AFF30080EB
:102640000000000001000000100000000100000078
:1026500000000000000040002DE9F04F00234FF47F
:10266000807501264FF0807804462DED028BABB0CB
:102670008DF8073013932193299314950E96CDF876
:102680005C80CDE91533CDE91863CDE91A33CDE986
:102690002253CDE92433CDE9273306231C9301F0DF
:1026A00051FE072808D004F1100741F288321CA916
:1026B000384605F059FD40B10123184684F85C30D6
:1026C0002BB0BDEC028BBDE8F08F4FF0020A4FF04B
:1026D000020B4FF0050941F2883308AA1CA93846BD
:1026E000CDF89480CDF870909FED2D8BCDE908AB9F
:1026F0004FF0000A4FF4800B8DED0A8BCDE90CAB47
:1027000005F09EFE0028D7D141F2883238460EA946
:1027100005F02AFD0028CFD1402341F288320DF187
:10272000070138468DF8073005F088FD0028C3D131
:1027300041F288330EA902AA3846CDF83890CDF878
:102740005C809FED197B8DED048BCDE906AB8DEDA3
:10275000027B05F075FE03460028ADD1CDF87090E0
:102760004FF00109CDF894804FF00008219308AA9A
:1027700029931CA938462295CDE92333CDE9273387
:1027800041F288338DED0A8BCDE90CABCDE9088998
:1027900005F056FE002893D0304684F85C608FE741
:1027A0001000000001000000400000004000000098
:1027B0002DE9F043624CA3B00D46046001F0C2FD68
:1027C000072800F0A980286823466968AA6807C31B
:1027D0001E46AB8926F8043B3046257B677B05F017
:1027E000A5FCE0B9574B012D4FF00108E0612361D2
:1027F00014BF4FF480134FF40003C4E9058893FA23
:10280000A3F3B3FA83F34FF48079013BC4F8249027
:10281000C4E90B003046236205F01CFC38B10122EC
:10282000134684F85C20184623B0BDE8F083662385
:102830000B90139041F2883206A90693CDE90C90D3
:10284000CDE90E00CDE91100304605F08DFC0028E1
:10285000E5D1992341F2883206A93046069305F066
:1028600083FC0028DBD105231C9019906A46149341
:102870004FF08073219014A91D9341F288339FED8E
:102880002A7BCDE91A90CDE91F008DED007B9FEDED
:10289000287B30468DED027B9FED277B8DED047B01
:1028A00005F0CEFD0028BAD129462046FFF748FEA4
:1028B0000028B4D12046FFF7CFFE03460028AED152
:1028C000002FB0D1189330460027002606AA14A97D
:1028D000CDF86890CDE91F33EB2314934FF4406398
:1028E0001B934FF4005317934FF440431C93A023C2
:1028F0001693062319934FF0805321934FF04073A2
:10290000CDE906671D9305F013FE034600288AD023
:10291000434684F85C8086E701230322184684F846
:102920005C2023B0BDE8F08300000000010000003F
:102930001000000001000000000000000000400046
:10294000A4100024005000522DE9F04F8FB0414BED
:102950000024026800AF9A427C63C7E90944C7E9D2
:102960000B4403D03C37BD46BDE8F08F3A4B40F6F0
:1029700009213A48EB46D3F8D42007F11C0607F1A9
:10298000220A4FF0020942F480424FF00308C3F8D4
:10299000D420D3F8D42002F48042BA60BA68D3F8C5
:1029A000E02042F04002C3F8E020D3F8E02002F03B
:1029B0004002FA60FA68D3F8E02042F02002C3F83F
:1029C000E020D3F8E02002F020023A613A69D3F81F
:1029D000E02042F01002C3F8E020D3F8E02002F03B
:1029E00010027A617A69D3F8E02042F00202C3F85B
:1029F000E020D3F8E030F86103F002033984BB61D2
:102A0000174B7B60BB697B6853F8040F7B6002F057
:102A1000B5F97B680546186802F0B8F916F8013B6D
:102A2000786207F124012846C7F830807B63C7E944
:102A30000A9403F06BFB5645E5D100225C20114659
:102A400002F0E8FA5C2002F023FB3C37DD46BD468D
:102A5000BDE8F08F00500052004402580A0A0909EC
:102A600000110024114B02689A4200D07047104AAE
:102A700070B5D2F8D4300F4C23F4804304F118061B
:102A8000C2F8D43054F8040F02F078F905462068F3
:102A900002F07CF90146284603F078FCB442F1D1FB
:102AA0005C20BDE8704002F001BB00BF0050005246
:102AB0000044025800110024014805F0C5BD00BFC4
:102AC000B4100024084B1A1D981D03F1080110B41E
:102AD0009C1C9A6603F10A02C3E91834C3E91B017E
:102AE0005DF8044B5A677047A410002438B503689A
:102AF00071B9026A00F1280500F5AC74012A0CBF17
:102B0000002140218BBB1D4B5722C0F858310DE0EE
:102B1000426A00F1C00500F5E874012A0CBF0021EB
:102B20004021EBB1164B5A22C0F8D0310023204689
:102B3000C4E901214FF480524FF480616362626105
:102B40004FF48042C4E903314FF48073C4E9062393
:102B50004FF40033236202F00FFC58B1FFBEFEE7D2
:102B6000084B5822C0F8D031E0E7074B5922C0F893
:102B70005831DBE7C5E92044A56338BD10000240A9
:102B80007000024028000240580002402DE9F04346
:102B9000821D05468BB0031D05F10A010830CDE901
:102BA000052305F10C02AB69CDE907010992002B61
:102BB0003DD0EB69B3FA83F84FEA5818012302229B
:102BC00005AE0AAF4FF006090393CDE9012356F88D
:102BD000044B2B792278934216D02B68F3B1012B4A
:102BE00002D1F2B10A230493204602F0CFF8034643
:102BF0002046009302F0C2F8694603F087FABE420D
:102C0000E5D10BB0BDE8F083697963789942E4D1EE
:102C1000B8F1000FF3D02B68002BE0D1CDF8109065
:102C2000E2E76378022B14BF0A230823DBE74FF0A7
:102C30000108C3E7534A0368934230B505468BB099
:102C400055D02032934252D04F4A934204D0203282
:102C5000934201D00BB030BD4C4C4D48D4F8E0301D
:102C600043F00103C4F8E030D4F8E03003F001038E
:102C70000593059BD4F8E03043F00803C4F8E03036
:102C8000D4F8E03003F008030693069BD4F8E03054
:102C900043F04003C4F8E030D4F8E03003F04003E0
:102CA0000793079BD4F8F03043F40003C4F8F030E6
:102CB000D4F8F03003F400030893089BFFF766FF95
:102CC000D4F8D830296843F001032F4A3048C4F8BB
:102CD000D830891AD4F8D83018BF012103F0010385
:102CE0000993099B0BB0BDE83040FFF7FFBE274CAE
:102CF0002848D4F8E03043F00103C4F8E030D4F8B9
:102D0000E03003F001030093009BD4F8E03043F07F
:102D10001003C4F8E030D4F8E03003F0100301935E
:102D2000019BD4F8E03043F04003C4F8E030D4F81D
:102D3000E03003F040030293029BD4F8F03043F4F8
:102D40008003C4F8F030D4F8F03003F48003039328
:102D5000039BFFF71BFFD4F8D830296843F0010329
:102D6000084A0C48C4F8D830891AD4F8D83018BFAB
:102D7000012103F001030493049B0BB0BDE8304034
:102D8000FFF7B4BE04580140045C014000440258FF
:102D9000781300241C110024014802F065BE00BF16
:102DA00074120024014802F05FBE00BFEC12002440
:102DB000014802F059BE00BFD0140024014802F0BF
:102DC00053BE00BF481500242DE9F04F0C684FF4A6
:102DD0001776754F87B004FB06F6012C07EB060A41
:102DE000C0F800A000F3A0800D468E464FF000080A
:102DF000D44669A3D3E9002369A1D1E90001CDE953
:102E0000022306ABCAF8508203EB8403CDE9040128
:102E100053F810BC53F8083CCAE992880193BEE805
:102E20000F00ACE80F00BEE80F00ACE80F00019BFC
:102E30009EE80300CAF828B0CAF8C0308CE8030046
:102E40002B69042B0CD8DFE803F0737D8791030016
:102E50004FF41773554A03FB04739A64C3F8E020D8
:102E6000AA692B6A002A43D0002B4FF4177308BFBE
:102E7000022203FB047318BF0322DA6201221A63E1
:102E8000EA696B6A002A40D1191E4FF4177318BF04
:102E9000012103FB0473C3E931126B69022B05D8CE
:102EA000434A12F80380434A52F823904FF41773B1
:102EB00006F128004246494603FB047400233844C7
:102EC00063646363E365C4F8DC30C4F8CC30C4F8F1
:102ED000F430C4E90F33C4E91533C4E93533C4E928
:102EE0003B33022307F052FC002849D0FFBEFEE727
:102EF000191E4FF4177318BF012103FB0473C3E9B4
:102F00000B12EA696B6A002ABED0002B4FF41773CC
:102F100008BF022203FB047318BF0322C3F8C420B6
:102F20000122C3F8C820B8E7012007B0BDE8F08F40
:102F30004FF417734FF4FA5203FB04739A64C3F807
:102F4000E0208DE74FF417734FF47A5203FB0473BC
:102F50009A64C3F8E02083E74FF417734FF4FA4202
:102F600003FB04739A64C3F8E02079E74FF4177306
:102F70004BF6803203FB04739A64C3F8E0206FE7DA
:102F800006F1C000022342464946384407F0FEFBE2
:102F90000028CAD0FFBEFEE704580140045C01408F
:102FA00024580140245C01401C11002400770100DA
:102FB00054290108582901080068704703681B69F3
:102FC000042B05D8044A02EB830393ED000A7047F3
:102FD0009FED020A704700BF6429010800803B474B
:102FE00070B5002304464FF4806204214FF440354D
:102FF0003448C4F83821C4F8D410C4F83431C4F8C3
:103000004C113149C4F8B000C4F82811C4E92F327A
:10301000C4E93133C4E93335C4E93733C4E94F3344
:10302000C4E95135C4E95533A2680323C4F8D83044
:10303000C4F85031042A0AD8DFE802F01F262D34E4
:10304000030055225623C4F8B420C4F82C310022C2
:10305000402304F1B005C4F8B8202846C4F8303144
:1030600002F08AF908B1FFBEFEE704F59476304617
:1030700002F082F9E8B1FFBEFEE725222623C4F85C
:10308000B420C4F82C31E2E727222823C4F8B42066
:10309000C4F82C31DBE73D223E23C4F8B420C4F849
:1030A0002C31D4E753225423C4F8B420C4F82C3173
:1030B000CDE704F12803C4E92865C4F8E830C4F872
:1030C000603170BD40040240580402402DE9F04FC9
:1030D000814683B00E4617461D4600F1280420465F
:1030E00008F006FA01288246F9D14846FFF778FF32
:1030F0008046002835D1EFF31083019372B6DFF8D4
:1031000088B00C9B99F90820DFF880A0DFF8809048
:10311000CBF800300D9B89F80020CAF800300DB1C3
:103120001846A847BAB23146204607F057FD30B9D5
:10313000019B03B962B6404603B0BDE8F08F00239F
:10314000CBF80030CAF80030FF2389F800300C9B20
:103150008BB101210D9888469847019B002BEAD13D
:10316000E8E70C9B53B1D0460D985146984740462E
:1031700003B0BDE8F08F4FF00108D9E7D0464046D4
:1031800003B0BDE8F08F00BFF41F0024FC1F002433
:10319000F81F00242DE9F04F814683B00E461746F4
:1031A0001D4600F12804204608F0A2F901288246B5
:1031B000F9D14846FFF714FF8046002835D1EFF3D8
:1031C0001083019372B6DFF888B00C9B99F9082040
:1031D000DFF880A0DFF88090CBF800300D9B89F8F5
:1031E0000020CAF800300DB11846A847BAB23146DF
:1031F000204607F0B7FE30B9019B03B962B64046DE
:1032000003B0BDE8F08F0023CBF80030CAF80030DF
:10321000FF2389F800300C9B8BB101210D98884663
:103220009847019B002BEAD1E8E70C9B53B1D046AD
:103230000D9851469847404603B0BDE8F08F4FF0D7
:103240000108D9E7D046404603B0BDE8F08F00BF83
:10325000F41F0024FC1F0024F81F00242DE9F04F68
:10326000814683B00F461646984600F12804204652
:1032700008F03EF90128FAD182464846FFF7B0FE31
:103280000546002838D1EFF31083019372B699F9FF
:103290000830DFF88890DFF888B089F800300D9B9F
:1032A000DFF880A0CBF800300E9BCAF800300C9BF2
:1032B0000BB10E9898471FFA88F33A4631462046DC
:1032C00007F044FD30B9019B03B962B6284603B04C
:1032D000BDE8F08F0023CBF80030CAF80030FF23A0
:1032E00089F800300D9B8BB101210E980D4698474F
:1032F000019B002BEAD1E8E70D9B4BB155460E9898
:1033000051469847284603B0BDE8F08F0125DAE71B
:103310005546284603B0BDE8F08F00BFF81F0024D3
:10332000F41F0024FC1F00242DE9F043002387B084
:103330000222044605690493CDE90223D0E9021272
:103340008E00FAB1022D7AD02178B5FA85F54FF0CA
:103350000108276A0B294FEA551521D1A2780B2ABB
:1033600002D0B8F1000F38D123790B2B01D0002DFA
:103370006CD1A37917B10B2B40F09980002007B0D6
:10338000BDE8F08335F002032178276A0CBF4FF0C7
:1033900001084FF00008023D18BF01250B29DDD0C0
:1033A0007D4B94F801C053F8262010780B2802D0EA
:1033B000884200F0AD80D378D01C994202D10B2B0B
:1033C00040F0BD809379901D8B4202D10B2B40F0D1
:1033D000BC80012007B0BDE8F083711C6E4BE07823
:1033E00053F8213019780B2902D08A4200F0B580B9
:1033F000D97803F1030C0B2902D08A4200F0BB807C
:10340000997903F1060C0B29E3D08A42E1D1DB79EB
:103410008342DED1634604F102099B784846059356
:1034200001F0ACFC8046484601F0B0FC01A90190D7
:10343000404602F06BFE23790B2B98D199E7017877
:10344000076A0B2940F0868001258DE7B11C524A9E
:10345000607952F8212011780B2902D08B4200F0BC
:103460008180D178D51C0B2902D08B4200F08D8051
:103470009179951D8B42ACD10B29AAD0D379834287
:10348000A7D12A46251D93782846059301F076FC9E
:10349000034628461D4601F079FC01A90190284603
:1034A00002F034FEA379002F7FF465AF66E7F11CCC
:1034B000394AE07952F8212011780B2901D08B424A
:1034C0005FD0D178D51C0B2901D08B424FD0917998
:1034D000951D8B427FF47DAF0B293FF47AAFD379F2
:1034E00083427FF476AF2A46A51D9378284605933C
:1034F00001F044FC0446284601F048FC034601A9BB
:103500002046019302F002FE002007B0BDE8F083E0
:10351000537863457FF44FAF93782046059301F0CD
:103520002DFC8146204601F031FC01A9019048465E
:1035300002F0ECFDA2780B2A7FF413AF14E71379A5
:1035400063457FF43FAF0246E6E7D37963457FF4F6
:1035500040AFF8E79846012522E7597881427FF489
:1035600047AF58E7517881427FF47BAF8AE7117902
:103570008142ACD1B7E7197981427FF441AF63460C
:1035800049E7517881429CD1AEE7117981427FF4BD
:103590006FAF2A4676E700BFA0290108654A036895
:1035A000934200F0B980A2F57842934200F0B680D1
:1035B00002F58062934200F0B38002F578429342B4
:1035C00000F0B08002F5E052934200F0AD805A4A1C
:1035D000934240F0AB8005234FF4D071574A01FB72
:1035E00003F310B5D418D05C86B001F0D7FBA078F7
:1035F00001F0D4FB207901F0D1FBA07901F0CEFBE2
:10360000A368052B11D8DFE803F0192F455B710380
:103610004B4BD3F8F42042F02002C3F8F420D3F847
:10362000F43003F020030593059B2046FFF77CFE52
:10363000012801D006B010BDFFBEFEE7404B0022BE
:103640002320D3F8F01041F48051C3F8F010114654
:10365000D3F8F03003F480530093009B01F0DAFCC0
:10366000232001F015FDE0E7354B00222420D3F89C
:10367000E81041F48041C3F8E8101146D3F8E8306F
:1036800003F480430193019B01F0C4FC242001F06A
:10369000FFFCCAE72A4B00223320D3F8E81041F49C
:1036A0000041C3F8E8101146D3F8E83003F40043B2
:1036B0000293029B01F0AEFC332001F0E9FCB4E779
:1036C0001F4B00225420D3F8F01041F40051C3F8EE
:1036D000F0101146D3F8F03003F400530393039B2A
:1036E00001F098FC542001F0D3FC9EE7144B00221B
:1036F0005520D3F8F01041F48011C3F8F0101146B2
:10370000D3F8F03003F480130493049B01F082FC9F
:10371000552001F0BDFC88E700235DE701235BE74E
:10372000022359E7032357E7042355E700231B78B7
:10373000FFDE00BF0030014000140058D415002403
:10374000004402582DE9F043002289B01B4B0121AF
:103750000DF1040C9E461A4B0791E146E046674680
:103760000EF11C060EF138050EF15404CDE90122CC
:10377000CDE90322CDE90522FF221A70BCE80F0033
:10378000AEE80F009CE807008EE80700B9E80F00DC
:103790000FC69CE8070086E80700B8E80F000FC5D1
:1037A0009CE8070085E807000FCF0FC49CE80700DE
:1037B00084E8070009B0BDE8F08300BF14010024CD
:1037C000F81F0024014807F067BD00BFFC15002466
:1037D000014807F061BD00BF9C170024014807F0B5
:1037E0005BBD00BF3C190024014807F055BD00BF78
:1037F000DC1A0024014807F04FBD00BF7C1C0024E8
:1038000010B5EFF3108472B6084B1A78120602D581
:1038100004B962B610BD1B784FF4D07204485BB295
:1038200002FB0300B03002F01FF9F1E7F81F00249B
:10383000D415002410B5EFF3108472B6094B1A7832
:10384000120602D504B962B610BD1B784FF4D072CF
:1038500005485BB202FB030000F5947002F004F926
:10386000F0E700BFF81F0024D41500242DE9F04133
:1038700084B0EFF3108772B6284AFF21284C1368F2
:10388000217023B100211160264A106898472378DF
:103890001B061CD5DFF894800025234E4446216882
:1038A00079B162686AB1A369012B22D0A3B96369B7
:1038B0003046019323690093E3682289FFF76AFC8D
:1038C00018B301351C3406F5D076042DE7D107B9BD
:1038D00062B604B0BDE8F081D4E90430CDE901302E
:1038E000E068238900903046FFF7B8FC0028E8D153
:1038F0000BE0D4E904301146CDE900303046E368EE
:103900002289FFF7E3FB0028DBD1C5EBC50508EBF7
:10391000850348F825005860D9E700BFF41F00244C
:10392000F81F0024FC1F0024D415002414010024D7
:103930002DE9F04184B0EFF3108772B6284AFF21D9
:10394000284C1368217023B100211160264A1068A9
:10395000984723781B061CD5DFF894800025234E5A
:103960004446216879B162686AB1A369012B22D00B
:10397000A3B963693046019323690093E368228900
:10398000FFF708FC18B301351C3406F5D076042D7A
:10399000E7D107B962B604B0BDE8F081D4E90430DC
:1039A000CDE90130E068238900903046FFF756FCEE
:1039B0000028E8D10BE0D4E904301146CDE900300D
:1039C0003046E3682289FFF781FB0028DBD1C5EB95
:1039D000C50508EB850348F825005860D9E700BF06
:1039E000F41F0024F81F0024FC1F0024D415002419
:1039F000140100242DE9F04184B0EFF3108772B672
:103A0000284AFF21284C1368217023B1002111603E
:103A1000264A1068984723781B061CD5DFF8948047
:103A20000025234E4446216879B162686AB1A369D2
:103A3000012B22D0A3B96369304601932369009317
:103A4000E3682289FFF7A6FB18B301351C3406F59D
:103A5000D076042DE7D107B962B604B0BDE8F08195
:103A6000D4E90430CDE90130E06823890090304684
:103A7000FFF7F4FB0028E8D10BE0D4E9043011464D
:103A8000CDE900303046E3682289FFF71FFB0028AC
:103A9000DBD1C5EBC50508EB850348F82500586068
:103AA000D9E700BFF41F0024F81F0024FC1F0024E6
:103AB000D4150024140100242DE9F04184B0EFF363
:103AC000108772B606F0DCFF284A294CFF211368E4
:103AD00021702BB1002111600121264A10689847FE
:103AE00023781B061CD5DFF894800025224E44461F
:103AF000216879B162686AB1A369012B22D0A3B9A8
:103B000063693046019323690093E3682289FFF7D4
:103B100041FB18B301351C3406F5D076042DE7D1EE
:103B200007B962B604B0BDE8F081D4E90430CDE94C
:103B30000130E068238900903046FFF78FFB0028B2
:103B4000E8D10BE0D4E904301146CDE9003030462D
:103B5000E3682289FFF7BAFA0028DBD1C5EBC50577
:103B600008EB850348F825005860D9E7F41F0024C6
:103B7000F81F0024FC1F0024D41500241401002485
:103B80002DE9F0418F684FF4D0743E4E8C4607FB10
:103B900004F4052F06EB04050560AE46BCE80F00F3
:103BA000AEE80F00BCE80F00AEE80F009CE8030091
:103BB0008EE8030004D8EB68002B60D0012B02D004
:103BC0000120BDE8F08100214FF4D07303FB0763AF
:103BD0001A69032AF4D8D3F814C0ACF104001C28E5
:103BE000EED89B691BB1012BEAD14FF000734FF463
:103BF000D07000FB0760C06918B10128E0D14FF018
:103C000080704FF4D07505FB0765D5F820E0BEF154
:103C1000020FD5D8D5F82480B8F1070FD0D85204B8
:103C2000E962C5E90E300CF1FF332A6304F1280084
:103C30006B634FEA087330446B640023C5E91233A9
:103C4000C5E91433C5E91833C5E91A33C5E91C338E
:103C5000AB67C5F880300C4B53F82E200B4B2A6411
:103C60004FF0804253F82730EA65AB624FF00043D3
:103C7000EB6706F005FF0028A3D0FFBEFEE74FF478
:103C80008001A1E7D41500249029010878290108B2
:103C90002DE9F041174C006894F800C01CF0800F2B
:103CA000DDE9066720D10D4696461C468068EFF395
:103CB000108272B6104BC0EBC0004FF0000801211B
:103CC00003EB800C8000CCF8045043F80080ACF883
:103CD00008E0CCF81470CCF81810CCE9034602B90F
:103CE00062B60020BDE8F081CDE90667BDE8F0418D
:103CF000FFF7ECB9F81F00241401002430B4544B32
:103D0000002108220220534CD9615862C3F8BC112B
:103D1000C3F8C401C3F85C13C3F86403C3F8F42404
:103D2000C3F8F814C3F8FC14C3F80405C3F89426C8
:103D3000C3F89816C3F89C16C3F8A406C3F8342831
:103D4000C3F83818C3F83C18C3F84408424D434838
:103D5000C3E90521C3E96D21C3E9D5212288A378F0
:103D60003F49EA80CA800B723E492B72CA800B72AF
:103D70002168A0F803204371C28003723A4C3B488B
:103D8000E2802372A0F80320394C4371C280037291
:103D90003848E2802372A0F80320374C4371C28078
:103DA0000372080C2180A070A4F803206371E280E4
:103DB0002372324C324D2180A070A4F8032063712D
:103DC000E28023722F4CEA8021802B72A070A4F82D
:103DD00003206371E28023722B4C2180A070A4F831
:103DE00003206371E2802372284C2180A070A4F824
:103DF00003206371E2802372254C2180A070A4F817
:103E000003206371E2802372224C2180A070A4F809
:103E100003206371E28023721F4C21801F49A07030
:103E2000A4F803201E486371E2802372A1F80320E6
:103E30001C4C4B71CA800B721B49E2802372C280FA
:103E40000372A1F803204B71CA800B7230BC70471B
:103E5000D41500249C2901089C000024C0000024E3
:103E60009000002454000024A8000024E400002452
:103E7000CC0000246C000024C41F0024AC1F0024CC
:103E8000D8000024B81F0024941F0024E81F002439
:103E9000D01F0024DC1F0024A01F002408010024E0
:103EA000FC000024F000002478000024704700BFCC
:103EB00008B501F073F8BDE8084001F073B900BF20
:103EC000064808B503680BB102F032FB04480368EA
:103ED0001BB1BDE8084003F0D9BA08BD204A002450
:103EE00018440024064808B503680BB102F020FB13
:103EF000044803681BB1BDE8084003F0C7BA08BD19
:103F0000204A002418440024064808B503680BB171
:103F100002F00EFB044803681BB1BDE8084003F043
:103F2000B5BA08BD204A002418440024364BDA6A8A
:103F3000520062D59A6A9A6A9A6A9B6A180600D5F4
:103F400000BE314B9B6A990600D500BE2E4B9B6A82
:103F5000DA0600D500BE2C4B9B6A1B0700D500BEBD
:103F6000294B9B6A980700D500BE274B9B6AD9074F
:103F700000D500BE244B9B6A1A0400D500BE224B1C
:103F80009B6A9B0400D500BE1F4B9B6AD80400D5DA
:103F900000BE1D4B9B6A190500D500BE1A4B9B6ADB
:103FA0005A0500D500BE184B9B6A9B0500D500BE84
:103FB000154B9B6AD80500D500BE134B9B6A99012F
:103FC00000D500BE104B9B6ADA0100D500BE0E4B37
:103FD0009B6A1B0300D500BE0B4B9B6A580300D5A0
:103FE00000BE094B9B6A990300D500BE064B9B6A35
:103FF000DA0306D400BE00BEFEE7DB6A9B07FAD5F3
:10400000F8E700BEF6E700BF00ED00E000F0D8BF23
:104010000A4B9B6803F17843B3F5003F0BD3084B81
:10402000986848B19868012806D09868022803D09B
:104030009B68032070470120704700BF00ED00E03F
:10404000000080382DE9F041CEB004464C2200211A
:104050000AA80CF0FDFA2022002102A80CF0F8FAC0
:10406000BC2200211EA80CF0F3FA022003F00AFF84
:104070002368012B4FF0000354D0534A02250193CB
:10408000C820D16A514B21F00101D162D26A02F0FD
:10409000010201929A6942F440429A619B6903F4D9
:1040A00040430193019B494A93699B04FCD54849CD
:1040B0000224002201268B6A04274FF0080823F00F
:1040C000030323438B62052316900AA818934FF429
:1040D00080331096179419941597CDF86880CDE920
:1040E0001B222122CDE91344CDE90A2304F0B4FBBD
:1040F00000B1FEE73F220323294602A8CDE90223AF
:1041000000220823CDE9042340224023CDE90623E1
:1041100040234FF48062CDE9082304F0CBFE034630
:10412000B8B1FEE7294A04250093F0209169264B97
:1041300041F440419161926902F440420092DA6A8E
:1041400042F00102DA62DB6A03F001030093009B94
:10415000A9E720224FF4805125934FF440152B926C
:1041600080222D931EA83093269135914FF48071B3
:10417000249234920C223394439140F227112092DE
:104180001022CDF884802A971F96CDE92E34CDE9F0
:104190003B334FF48033CDE92246319300244693DC
:1041A0000623CDE93E4527934FF48063094C2C93B9
:1041B0001E94CDE9281205F0D9F800B1FEE703F00E
:1041C00087FE4EB0BDE8F081000400580048025858
:1041D000004402580F130F0370B584B0012400F09F
:1041E0008FFF4FF480764FF04052194B6846002500
:1041F000ADF800400396CDE9012300F09FFF19229E
:104200004FF0404368468DF8082001938DF80F4029
:10421000ADF80D608DF801408DF80A5000F08EFF6A
:1042200002230B2268468DF80F508DF801304FF0B5
:1042300062538DF808200193ADF80D408DF80A40C7
:1042400000F07CFF042000F069FF04B070BD00BFE7
:104250000E00010330B50D46044685B0D1E90001DA
:1042600084E8030000F06AFEAB79A3B30AF01CF9FE
:10427000FDF7EEFFFFF766FA09F018FE2B798BBB0E
:104280006B799BB1BFF34F8FBFF36F8F2A4B002227
:10429000C3F85022BFF34F8FBFF36F8F5A6942F4B8
:1042A00000325A61BFF34F8FBFF36F8F4FF0FF3271
:1042B0000023002400256946204802928DF80C3026
:1042C000CDE9004509F084F91C4809F0E9F909F045
:1042D00037F805B030BD2046FFF7B4FE2046FFF7A3
:1042E0007BFFC3E7144C0023C4F88430BFF34F8F27
:1042F000D4F8801043F6E07EC1F34E3CC1F3C9010F
:104300004FEA4C1C0CEA0E000B4640EA8372013B5C
:10431000C4F860225A1CF8D1ACF1200C1CF1200F1B
:10432000F0D1BFF34F8F636943F480336361BFF310
:104330004F8FBFF36F8FA3E700ED00E00020002454
:1043400004F0E8BE1C4B9B6803F17842B2F5003FD5
:1043500025D3B3F5803F20D303F16042B2F5003F8F
:104360001FD303F15C42B2F5002F1CD303F170425E
:10437000B2F5902F19D303F14842B2F5803F16D31E
:1043800003F18042B2F1806F13D303F1E043B3F540
:10439000000F2CBF08200720704701207047002025
:1043A00070470220704703207047042070470520A3
:1043B00070470620704700BF00ED00E0034800236F
:1043C000034A044903600CF0EDB800BF002000244C
:1043D00000000024AD3E000810B4204C0022204B09
:1043E00083B0D4F888101F4841F47001C4F88810D5
:1043F00019681D4C41F0010119601A6119680840E3
:104400001A4918609A61DA611A629A62DA621A636A
:104410005A639A63DA631A645A64186820F4802035
:1044200018601A66D3F8DC2042F06042C3F8DC2042
:10443000D3F8DC300193019B23681940B1F1005F90
:1044400003D20B4B0122C3F80821044B4FF000624A
:104450009A6003B05DF8044B704700BF00ED00E0C8
:10446000004402587FEDF6EA0010005C0000FFFFF8
:1044700000800051704700BF0020704770B50446AF
:10448000074E0D463046214608F070FA304608F0D7
:104490008FFA044B204629461B689847002070BDC0
:1044A000040800240440002470B50446074E0D465D
:1044B0003046214608F05AFA304608F079FA044BA3
:1044C000204629461B689847002070BDA00A00249A
:1044D0000840002400220949094808B508F03CFAC0
:1044E0000849074808F042FA074B1A680AB1002049
:1044F00008BD064A00201A6008BD00BF0430002431
:10450000040800240420002404400024754400080A
:1045100000220949094808B508F01EFA0849074869
:1045200008F024FA074B1A680AB1002008BD064AB1
:1045300000201A6008BD00BF04380024A00A00242F
:1045400004280024084000247544000820280AD0CC
:10455000212806D1094B18689A889B7908608A80BF
:104560008B7100207047054B0868B1F804C08A7948
:1045700018600020A3F804C09A717047AC010024B1
:1045800020280AD0212806D1094B18689A889B79DF
:1045900008608A808B7100207047054B0868B1F86D
:1045A00004C08A7918600020A3F804C09A7170478B
:1045B000B40100240020704710B5094CD4F89032A3
:1045C000D3F814320BB1012010BD0A460146204633
:1045D00008F0C2F92046BDE8104008F0CFB900BF8E
:1045E000040800244B4A036830B593428BB04FF067
:1045F0000004CDE90444CDE90644089404D0464AB9
:10460000934249D00BB030BD444D4FF4C0524448A2
:10461000D5F8E03043F00103C5F8E030D5F8E030DC
:1046200003F0010300930223009904A9CDE90423B8
:104630000A23089301F06AFD4FF40072002304A9D5
:1046400037480694CDE9042301F060FDD5F8D83051
:104650002246214643F000636220C5F8D830D5F8E1
:10466000D83003F000630193019B00F0D3FC62207B
:1046700000F00EFD22462146632000F0CBFC6320B3
:1046800000F006FD22462146652000F0C3FC6520AF
:1046900000F0FEFC0BB030BD204D4FF4404204A9A9
:1046A000D5F8E03043F00203C5F8E030D5F8E0304B
:1046B00003F002030293022302981A48CDE904236F
:1046C0000C23089301F022FDD5F8D830224621466C
:1046D0004A2043F00073C5F8D830D5F8D83003F03D
:1046E00000730393039B00F095FC4A2000F0D0FC7C
:1046F000224621464B2000F08DFC4B2000F0C8FCE8
:10470000224621464D2000F085FC4D2000F0C0FCE3
:104710000BB030BD000008400000044000440258C7
:10472000000002580004025800F57171D0F804042A
:1047300008F0AAB9C1EBC10300EB8303D0F804046D
:10474000D3F8082208F0CEB9C1EBC10300EB830314
:10475000D0F804049A6C08F003BA00BFD0F804043F
:1047600008F0A2BAC16810B5044619B1022900D0F8
:10477000FEE70121D4F8040408F080FAD4F8040418
:10478000BDE8104008F052BA10B50446D0F8040451
:1047900008F078FA2268D2F8003E43F00103C2F82C
:1047A000003E236A23B1034A136943F006031361F1
:1047B00010BD00BF00ED00E0D0F8040408F06CBAB2
:1047C000D0F8040408F080BAD0F8040408F07ABAEB
:1047D000D0F8040408F07ABAD0F8040408F078BAE3
:1047E00070B5067804461EB1012E30D0002070BD91
:1047F000304D0923304AC5F80404C0F898522846C1
:104800002E612E63C5E9002302230222EB60002300
:10481000C5E9062300220023C5E90823012201235C
:10482000C5E90A2302F07AFD00B1FEE7802128469F
:1048300003F008FB31464022284603F0D9FA8022D3
:104840000121284603F0D4FA2678012ECED11B4D43
:1048500009221B4B00216A6002222B600223C5F84B
:1048600004442846EB600023C4F898522961C5E946
:10487000062300220023C5E90823C5E90C230122F1
:104880000023C5E90A2302F049FD044600B1FEE712
:104890004FF40071284603F0D5FA214680222846BD
:1048A00003F0A6FA4FF4BA723146284603F0A0FA94
:1048B0009CE700BF1040002400000840184400247A
:1048C00000000440D0F8980208B502F0BDFD0328AE
:1048D00002D8024B185C08BD022008BD102A01084E
:1048E0009446D0F898021A4608B5634603F032F9A8
:1048F000032802D8024B185C08BD022008BD00BF87
:10490000102A0108D0F8980208B503F061F90328CD
:1049100002D8024B185C08BD022008BD102A01080D
:10492000D0F8980208B503F0E3F9032802D8024B47
:10493000185C08BD022008BD102A0108D0F89802B2
:1049400008B503F019FA032802D8024B185C08BD19
:10495000022008BD102A01080A06D0F8983206D4B1
:10496000C1EBC10103EB810191F8FE01704701F039
:104970007F01C1EBC10103EB810191F83E0070475B
:10498000D0F8980208B503F0CFF8032802D8024BFC
:10499000185C08BD022008BD102A0108D0F8980252
:1049A00008B503F07DF9032802D8024B185C08BD56
:1049B000022008BD102A0108D0F8980208B503F0BB
:1049C0003DF9032802D8024B185C08BD022008BD3F
:1049D000102A0108D0F8980203F058B912230148B0
:1049E0000B80704708020024122301480B80704797
:1049F000F4010024042301480B8070471C020024AA
:104A000010B5044C0A460448214608F0E1FB204654
:104A100010BD00BF20480024142A010810B5044C22
:104A20000A460448214608F0D3FB204610BD00BFCB
:104A300020480024242A010810B5044C0A460448E2
:104A4000214608F0C5FB204610BD00BF20480024C9
:104A5000382A010810B5044C0A460448214608F0DB
:104A6000B7FB204610BD00BF20480024442A01089F
:104A700010B5044C0A460448214608F0A9FB20461C
:104A800010BD00BF20480024542A01080423014817
:104A90000B8070471C02002410B5044C0A460448E1
:104AA000214608F095FB204610BD00BF2048002499
:104AB000142A0108464A4FF01A0CD2F80008D2F81E
:104AC0000838A1F800C0C31801D142487047180F38
:104AD000B3F1204FD2F804184FF0000C3D4A2CBF20
:104AE0003730303082F803C04FF0000C9070C3F3C1
:104AF000036082F805C04FF0000C092882F807C057
:104B00004FF0000C8CBF3730303082F809C04FF0C6
:104B1000000C1071C3F3035082F80BC04FF0000C6F
:104B2000092882F80DC08CBF373030309071C3F344
:104B3000034009288CBF373030301072C3F3033084
:104B400009288CBF373030309072C3F30320092816
:104B50008CBF373030301073C3F3031003F00F03F2
:104B600009288CBF37303030092B90734FF000008C
:104B700094BF30333733B1F1204FD07313744FEA01
:104B800011734FF000002CBF3733303350740020C6
:104B90009374C1F30363D0740020092B50754FF058
:104BA00000008CBF37333033D0751375C1F3035316
:104BB0000848092B8CBF373330339375C1F3034357
:104BC000092B94BF30333733137600235376704765
:104BD00000E0F11F20020024464A4FF01A0CD2F8E0
:104BE0000008D2F80838A1F800C0C31801D1424823
:104BF0007047180FB3F1204FD2F804184FF0000C93
:104C00003D4A2CBF3730303082F803C04FF0000CE3
:104C10009070C3F3036082F805C04FF0000C0928C0
:104C200082F807C04FF0000C8CBF3730303082F86C
:104C300009C04FF0000C1071C3F3035082F80BC091
:104C40004FF0000C092882F80DC08CBF373030308F
:104C50009071C3F3034009288CBF37303030107295
:104C6000C3F3033009288CBF373030309072C3F360
:104C7000032009288CBF373030301073C3F3031082
:104C800003F00F0309288CBF37303030092B9073A5
:104C90004FF0000094BF30333733B1F1204FD07361
:104CA00013744FEA11734FF000002CBF37333033C9
:104CB000507400209374C1F30363D0740020092B57
:104CC00050754FF000008CBF37333033D0751375FB
:104CD000C1F303530848092B8CBF37333033937526
:104CE000C1F30343092B94BF3033373313760023CA
:104CF0005376704700E0F11F2002002410B5044CE9
:104D00000A460448214608F063FA204610BD00BF59
:104D100020480024442A010810B5044C0A460448DF
:104D2000214608F055FA204610BD00BF2048002457
:104D3000382A0108D0F8C00208F0BCBAD0F8C00286
:104D400008F0D0BAD0F8C00208F0D8BA704700BF57
:104D5000D0F8C00208F0BEBAD0F8C00208F0BEBA5F
:104D6000D0F8D00308B501F0A3FF032802D8024B06
:104D7000185C08BD022008BD682A0108024B0278B1
:104D800053F82200704700BF8C2A0108024B42787A
:104D900033F81200704700BF6C2A01088CB00A2853
:104DA00014D8DFE800F01523313F4D5B6977859318
:104DB00006004D4BD3F8E02042F48062C3F8E020B7
:104DC000D3F8E03003F480630B930B9B0CB0704777
:104DD000454BD3F8E02042F00102C3F8E020D3F8BD
:104DE000E03003F001030193019BEFE73E4BD3F862
:104DF000E02042F00202C3F8E020D3F8E03003F0F4
:104E000002030293029BE1E7374BD3F8E02042F024
:104E10000402C3F8E020D3F8E03003F00403039366
:104E2000039BD3E7304BD3F8E02042F00802C3F8ED
:104E3000E020D3F8E03003F008030493049BC5E7B7
:104E4000294BD3F8E02042F01002C3F8E020D3F859
:104E5000E03003F010030593059BB7E7224BD3F82E
:104E6000E02042F02002C3F8E020D3F8E03003F065
:104E700020030693069BA9E71B4BD3F8E02042F0E2
:104E80004002C3F8E020D3F8E03003F0400307937A
:104E9000079B9BE7144BD3F8E02042F08002C3F855
:104EA000E020D3F8E03003F080030893089B8DE7FF
:104EB0000D4BD3F8E02042F48072C3F8E020D3F821
:104EC000E03003F480730993099B7FE7064BD3F826
:104ED000E02042F40072C3F8E020D3F8E03003F49D
:104EE00000730A930A9B71E700440258704700BFA1
:104EF0000F4B1B780BB90120704710B504464FF4D7
:104F00007A700C4AB0FBF3F31068B0FBF3F000F0DA
:104F1000E1F80F2C00D808B1012010BD0022214675
:104F20004FF0FF3000F076F8034B00201C6010BDFE
:104F30003A020024840100243C02002438B50320F6
:104F4000124D00F055F8124C03F014FF114A1249AB
:104F50009369C3F30323CB5C03F01F0320FA03F32D
:104F60000E202B60926902F00F028A5C02F01F0291
:104F7000D3402360FFF7BCFF10B10124204638BDA9
:104F80000446FFF7B3FF204638BD00BF840100246C
:104F90008801002400440258002A0108034A044BF7
:104FA00011681B780B441360704700BFE44C002469
:104FB0003A020024014B1868704700BFE44C0024FB
:104FC00038B50446FFF7F6FF0546631C02D0044BD4
:104FD0001B781C44FFF7EEFF431BA342FAD338BDF6
:104FE0003A020024014B1868000C70470010005C66
:104FF00006494FF6FF0C0002054BCA6800F4E0605A
:1050000002EA0C0210430343CB60704700ED00E05E
:105010000000FA051B4BDB68C3F3022300B5C3F1A4
:10502000070E03F1040CBEF1040F28BF4FF0040E6D
:10503000BCF1060F1AD9033B4FF0FF3C0CFA03FCFE
:1050400022EA0C024FF0FF3C00280CFA0EFC21EA89
:105050000C0101FA03F141EA02010ADB09010A4BE2
:10506000C9B2034483F800135DF804FB0022134621
:10507000E8E700F00F000901044BC9B203441976B8
:105080005DF804FB00ED00E000E100E0FCEC00E076
:10509000002807DB00F01F0101234009024A8B4072
:1050A00042F82030704700BF00E100E000280DDB2F
:1050B0004309012200F01F000549203302FA00F0E5
:1050C00041F82300BFF34F8FBFF36F8F704700BFCE
:1050D00000E100E0431EB3F1807F0CD24FF0E022EC
:1050E000002006494FF0F00C5361072381F823C0DC
:1050F0009061136170470120704700BF00ED00E030
:10510000BFF35F8F044B00215A6A22F480325A6247
:10511000C3F89410704700BF00ED00E0064B40F06C
:105120000100C3F894005A6A42F480325A62BFF315
:105130004F8FBFF36F8F704700ED00E0174A437841
:10514000C2F89830017821B3436800B5C2F89C30AA
:10515000C37A90F80CC01B0690F80FE043EA0C737A
:1051600090F80AC00B43817B43EACC4390F80DC012
:1051700043EA8C4390F809C043EA4143017A43EA89
:105180000E4343EA0C2343EA4103C2F8A0305DF822
:1051900004FBC2F89C10C2F8A010704700ED00E0BC
:1051A000704700BF08B5FFF7FBFF08BD0268344B2E
:1051B000344930B4344D354CAA4218BF9A420CBF22
:1051C000012300238A4208BF43F001033031A24289
:1051D00008BF43F0010330348A4208BF43F00103A3
:1051E0003031A24208BF43F0010330348A4208BF85
:1051F00043F0010301F55C71A24208BF43F00103D3
:1052000004F55C748A4208BF43F001033031A242C6
:1052100008BF43F0010330348A4208BF43F0010362
:105220003031A24208BF43F0010330348A4208BF44
:1052300043F001033031A24208BF43F001038A4228
:1052400008BF43F0010313B9114B9A4213D1D3B2F3
:105250001049114C103BA1FB03515F2B0F4BC1F3C5
:10526000021103EA0203615C88BF0433C1658365F0
:10527000184630BC704722F0FF038365F8E700BF93
:105280001000024040000240280002405800024046
:10529000B8040240ABAAAAAABC2A010800FCFFFF7E
:1052A0000368294A294930B4294D2A4CAB4218BF1A
:1052B00093420CBF012200228B4208BF42F0010240
:1052C0002831A34208BF42F0010228348B4208BFB4
:1052D00042F001022831A34208BF42F001028B4292
:1052E00008BF42F0010212B91B4A934213D1DBB24C
:1052F0001A4C1B4A0121083B1A4DA4FB0343456687
:1053000002EB1312C3F30413920001FA03F30266D3
:10531000836630BC7047DAB21349144C1944103A12
:10532000A829A4FB02234FEA131300D80833104A1C
:1053300003F01F0501210F4C1A44A9404466920056
:1053400081660266E5E700BF0854025830540258EF
:105350001C5402584454025894540258CDCCCCCC1E
:105360000096001680580258F0FBFDBFABAAAAAA0F
:10537000008200108008024070B50446FFF71AFE54
:10538000002C00F0C68023680546954A934248D019
:105390001832934245D0303292498B4218BF934223
:1053A00001F130010CBF012200228B4208BF42F004
:1053B000010218318B4208BF42F0010218318B42C2
:1053C00008BF42F0010218318B4208BF42F00102CF
:1053D00001F556718B4208BF42F0010218318B4231
:1053E00008BF42F0010218318B4208BF42F00102AF
:1053F00018318B4208BF42F0010218318B4208BFBE
:1054000042F0010218318B4208BF42F0010218310C
:105410008B4208BF42F001021AB9734A934240F02E
:10542000F5800222002184F8352084F834101A68AF
:1054300022F001021A6005E0FFF7BCFD431B052BBB
:1054400040D823681A68D107F6D4D4E90225216927
:105450002A43A0691D680A4361690A43E16902435E
:105460000A4362492940256A2A430A43616A04299A
:105470002FD01A605A6922F0070211435961204661
:10548000FFF794FEE26D3F2302F01F02934083601A
:105490002046FFF705FFA368802B3CD06368A06E11
:1054A000DAB2013BD4E91851072B2A60486026D9AB
:1054B0000023C4E91B33636700200123606584F87F
:1054C000353070BD202203230120626584F8353019
:1054D00070BDD4E90B5129430A431A605969A26A85
:1054E00021F00701114341F00401002DC6D000282E
:1054F0004FD1012A6ED032F00202BFD151E0501ECE
:10550000072810D9626FD4E91B31002018604A6067
:10551000D2E7012070BD0023A16ED4E918026360B8
:1055200003605160C4E72168314B324DA94218BF76
:10553000994205F114050CBF01230023A94208BFBD
:1055400043F001031435A94208BF43F001031435A9
:10555000A94208BF43F001031435A94208BF43F034
:1055600001031435A94208BF43F001033BB9224BA4
:10557000994204D0214B224913449B0003E0214B64
:10558000214913449B0001228240C4E91B31626718
:10559000BBE7B0F5005F0ED0022A05D9032A7FF4DD
:1055A0006DAFEA017FF56AAF0123402218466265BC
:1055B00084F8353070BD032A3FF660AF01A050F883
:1055C00022F000BFA9550008A3550008A9550008FE
:1055D000D5550008B5F1C07F7FF450AFE4E700BFB8
:1055E0001000024040000240B80402403F8010FE1C
:1055F000085402581C540258945402583F82001018
:10560000400902403F96001640590258324A33483A
:105610003349834218BF934200F128000CBF012296
:1056200000228B4208BF42F001022831834208BFAA
:1056300042F0010228308B4208BF42F001022831BB
:10564000834208BF42F001028B4208BF42F00102D0
:1056500012B9244A934238D102220021224D84F803
:10566000341084F835201A681540A268402A2AD0E0
:10567000802A0CBF4FF480400846266AD4E9031202
:10568000D20842EAD102616942EAD102A16942EA42
:10569000D102E16942EAD102144942EA16121944E0
:1056A0002A4302431248A0FB010120461A600B095D
:1056B0009B00E365FFF77AFDE26D012302F01F0214
:1056C00093404360E4E61020D7E740220323012003
:1056D000626584F8353070BD085402581C54025875
:1056E00030540258945402580F00FEFFF8ABFDA747
:1056F000CDCCCCCC002800F0BC80844690F834009F
:10570000012800F0B88001202DE9F0419CF83540D7
:105710008CF83400844208D000224FF400638CF8E7
:105720003420CCF85430BDE8F0810220DCF8005081
:105730007A4C8CF835000020794ECCF8540079482A
:10574000854218BFA54200F118000CBF01240024B7
:10575000854208BF44F001041830854208BF44F078
:1057600001041830854208BF44F001041830854216
:1057700008BF44F0010400F55670854208BF44F0AC
:1057800001041830854208BF44F0010418308542F6
:1057900008BF44F001041830854208BF44F00104FA
:1057A0001830854208BF44F001041830854208BF14
:1057B00044F001041830854208BF44F00104183059
:1057C000854208BF44F00104A0F59560B54218BFBA
:1057D0008542DCF86C600CBF0120002054EA000810
:1057E000286820F001002860DCF86400DCF86840DC
:1057F000DCF85870446040D016B1DCE91C04446009
:10580000DCF85C004FF03F0E00F01F000EFA00F0D5
:10581000B860286820F4802028606B60DCF80830CD
:10582000402B23D0A960EA602B6823F01E0343F0CD
:1058300016032B60DCF840301BB12B6843F00803E3
:105840002B60DCF860301A68D20303D51A6842F482
:1058500080721A601EB1336843F4807333602B6822
:10586000002043F001032B60BDE8F081AA60E960ED
:10587000DAE7012070470220704716B1DCE91C040A
:1058800044602948DFF8A8E0754518BF85420EF14D
:10589000140E0CBF01200020754508BF40F0010028
:1058A0000EF1140E754508BF40F001000EF1140E04
:1058B000754508BF40F001000EF1140E754508BF94
:1058C00040F001000EF1140E754508BF40F00100D4
:1058D00010B9164885420ED1DCF85C0000F01F0EAE
:1058E000012000FA0EF078606B60DCF80830402B85
:1058F00010D0A960EA602B6823F00E0343F00A037E
:105900002B60DCF84030002B9BD02B6843F0040365
:105910002B6096E7AA60E960EDE700BF4000024017
:10592000280002405800024008540258945402587B
:105930001C54025800285FD038B590F83520034633
:10594000022A55D10168444A914248D01832914206
:1059500045D03032414C4248A14218BF914204F137
:1059600048040CBF01220022814208BF42F001021C
:105970003030A14208BF42F001023034814208BFFA
:1059800042F0010200F55C70A14208BF42F0010242
:1059900004F55C74814208BF42F001023030A1423C
:1059A00008BF42F001023034814208BF42F00102D8
:1059B0003030A14208BF42F001023034814208BFBA
:1059C00042F001023030A14208BF42F001028142A0
:1059D00008BF42F0010212B9224A91420ED10422BC
:1059E000002083F835200B6823F001030B6038BDDD
:1059F000802201205A6538BD012070470A681C6E5C
:105A000022F00E02D86D9D6D0A6000F01F000A683A
:105A100022F001020A6001222168824021F4807193
:105A200021606A60DA6ED3E91910486032B11168FA
:105A3000D3E91C0421F48071116044600024012129
:105A40001A6D83F8344083F835101AB11846904720
:105A5000204638BD104638BD1000024040000240CC
:105A600070000240B80402402DE9F04300229C4B34
:105A700083B09C4E1D688146019203689A4A846DEA
:105A8000934218BFB342276808BF0126216818BF98
:105A9000002645D018329548834218BF934200F142
:105AA00018000CBF01220022834208BF42F001020D
:105AB0001830834208BF42F001021830834208BF09
:105AC00042F001021830834208BF42F0010200F5A3
:105AD0005670834208BF42F001021830834208BF6B
