:020000040800F2
:1000000000000220E1050008DD0500082D39000888
:10001000DD050008DD050008DD0500080000000022
:10002000000000000000000000000000DD050008E6
:10003000DD05000800000000DD050008B1380008FB
:10004000DD050008DD050008DD050008DD05000808
:10005000DD050008DD050008DD050008DD050008F8
:10006000DD050008DD050008DD050008F1270008B2
:10007000FD270008DD0500080928000815280008EC
:100080002DCC00081D1D0008DD050008DD05000859
:10009000DD050008DD050008DD050008DD050008B8
:1000A000DD050008DD050008DD050008DD050008A8
:1000B00059C0000865C0000871C00008511D000843
:1000C000DD0500085D1D0008DD0500081D32000883
:1000D0002932000861CA00088DCA0008C1CA000898
:1000E000DD050008DD05000800000000DD05000852
:1000F000DD050008DD050008DD050008DD05000858
:10010000DD050008DD0500087DC000083532000867
:10011000F5CA000829CB0008DD050008DD05000848
:10012000DD050008DD050008593200088D320008A1
:1001300061CC0008DD050008DD050008DD050008CC
:1001400000000000000000000000000000000000AF
:10015000DD050008DD050008DD0500085DCB0008B1
:10016000691D0008DD050008C1380008E5380008F1
:10017000DD05000809390008DD050008DD05000877
:10018000DD050008DD05000891CB0008C5CB00089F
:10019000413200084D320008DD050008DD05000889
:1001A000DD050008DD050008DD050008DD050008A7
:1001B00011250008DD050008DD050008DD05000843
:1001C000DD050008DD050008DD050008DD05000887
:1001D000DD050008DD050008DD050008DD05000877
:1001E000DD050008DD050008DD050008DD05000867
:1001F000DD050008DD050008DD050008DD05000857
:10020000DD050008DD050008DD050008DD05000846
:10021000DD050008DD050008DD050008DD05000836
:10022000DD050008DD050008DD0500080000000010
:10023000DD050008DD05000800000000DD05000800
:10024000DD050008DD050008DD050008DD05000806
:10025000DD050008DD050008DD050008DD050008F6
:10026000DD050008DD050008DD050008DD050008E6
:10027000DD050008DD050008F9CB000800000000DE
:10028000DD050008DD050008DD05000800000000B0
:0802900000000000DD0500087C
:1002980010B5054C237833B9044B13B10448AFF3B8
:1002A80000800123237010BD80030024000000009B
:1002B800F4F2000808B5034B1BB103490348AFF338
:1002C800008008BD0000000084030024F4F2000848
:1002D80053B94AB9002908BF00281CBF4FF0FF31A5
:1002E8004FF0FF3000F074B9ADF1080C6DE904CEA1
:1002F80000F006F8DDF804E0DDE9022304B07047F9
:100308002DE9F047089D04468E46002B4DD18A42C0
:10031800944669D9B2FA82F252B101FA02F3C2F1F3
:10032800200120FA01F10CFA02FC41EA030E944084
:100338004FEA1C48210CBEFBF8F61FFA8CF708FBA5
:1003480016E341EA034306FB07F199420AD91CEB7D
:10035800030306F1FF3080F01F81994240F21C81AF
:10036800023E63445B1AA4B2B3FBF8F008FB1033F7
:1003780044EA034400FB07F7A7420AD91CEB04042C
:1003880000F1FF3380F00A81A74240F207816444FC
:10039800023840EA0640E41B00261DB1D440002381
:1003A800C5E900433146BDE8F0878B4209D9002DE5
:1003B80000F0EF800026C5E9000130463146BDE86F
:1003C800F087B3FA83F6002E4AD18B4202D38242D9
:1003D80000F2F980841A61EB030301209E46002D88
:1003E800E0D0C5E9004EDDE702B9FFDEB2FA82F2DD
:1003F800002A40F09280A1EB0C014FEA1C471FFA3B
:100408008CFE0126200CB1FBF7F307FB131140EA21
:1004180001410EFB03F0884208D91CEB010103F1EE
:10042800FF3802D2884200F2CB804346091AA4B2B0
:10043800B1FBF7F007FB101144EA01440EFB00FE84
:10044800A64508D91CEB040400F1FF3102D2A645E9
:1004580000F2BB800846A4EB0E0440EA03409CE788
:10046800C6F12007B34022FA07FC4CEA030C20FA35
:1004780007F401FA06F31C43F9404FEA1C4900FA55
:1004880006F3B1FBF9F8200C1FFA8CFE09FB1811D2
:1004980040EA014108FB0EF0884202FA06F20BD945
:1004A8001CEB010108F1FF3A80F08880884240F295
:1004B8008580A8F102086144091AA4B2B1FBF9F0D9
:1004C80009FB101144EA014100FB0EFE8E4508D9D4
:1004D8001CEB010100F1FF346CD28E456AD9023859
:1004E800614440EA0840A0FB0294A1EB0E01A1423E
:1004F800C846A64656D353D05DB1B3EB080261EBAC
:100508000E0101FA07F722FA06F3F1401F43C5E985
:10051800007100263146BDE8F087C2F12003D840BB
:100528000CFA02FC21FA03F3914001434FEA1C47FD
:100538001FFA8CFEB3FBF7F007FB10360B0C43EAEF
:10054800064300FB0EF69E4204FA02F408D91CEB9F
:10055800030300F1FF382FD29E422DD9023863449D
:100568009B1B89B2B3FBF7F607FB163341EA03413D
:1005780006FB0EF38B4208D91CEB010106F1FF388C
:1005880016D28B4214D9023E6144C91A46EA004683
:1005980038E72E46284605E70646E3E61846F8E615
:1005A8004B45A9D2B9EB020864EB0C0E0138A3E75E
:1005B8004646EAE7204694E74046D1E7D0467BE73F
:1005C800023B614432E7304609E76444023842E7B7
:1005D800704700BFFEE700BF0B480C4A904203D0AB
:1005E800121A0B490EF06EFD0A480B4A904203D0CE
:1005F800121A00210EF074FD03F0EAFB0EF03EFD26
:1006080000F07AF8FEE700BF000000247C03002415
:1006180024F300088003002448300024704700BFFA
:1006280010B5124982B000240122114823460968F6
:10063800009401F043F80F492346012209680E4847
:10064800009401F03BF80D492346012209680C4843
:10065800009401F033F80B492346224609680A48FA
:10066800009401F02BF802B010BD00BF60F1000843
:10067800B003002464F10008D803002468F10008DE
:100688009C0300246CF10008C40300240B490820D3
:100698000B4A002348619088B2F800C00B6148807B
:1006A8000848A1F800C0C1E90233C1E90633C1E92D
:1006B800083313898B8002F08BBF00BF44040024E9
:1006C800F8F000086C040024084A002308499089BF
:1006D800128A10B40124888006480B60CA80C1E9D8
:1006E80002435DF8044B01F041BB00BFF8F000087D
:1006F8002C040024400400240021204838B50D466D
:1007080000F08AFCFFF7C2FFFFF7DEFFFFF788FF64
:1007180000F030F900F034F900F026F94FF6FF70D8
:1007280000F0A2FB00F026F900F01EF90BE000F043
:100738001BF9284600F098FB254600F01BF90A2112
:100748000E4800F0A9FB00F09DFB044678B1002D8F
:10075800EDD000F097FB0028F1D000F005F94FF636
:10076800FF70002500F080FB00F004F9E7E700F0D7
:1007780089FB0028E3D0002DE1D0EEE7EC0300244C
:1007880038B517480024174A1749046044610462C1
:10079800C4630EF05FFC4FF60B73144A14481549F6
:1007A800154DC2E90034C2E90244144A2C601360B2
:1007B800D460C1E90034C0E90034C0E90244104BF8
:1007C8000820C2E901440222DC615A621022C1E910
:1007D8000244C3E905040B490B4B0C601A7438BD7D
:1007E800EC0300240000002425060008D803002498
:1007F800B00300249C0300246C040024C4030024D8
:1008080044040024400400242C0400242DE9F0436F
:100818002A2783B0DFF8B88015468DF8047006469D
:100828002A4F0C4640460021994601F039F86423C6
:10083800012201A9384602F053FF8DF805608DF8B2
:100848000750360A2D0A404601218DF804608DF8BC
:10085800065001F025F80422642338460DEB020106
:1008680002F03EFF2B23404600218DF8043001F0B2
:1008780017F8012201A96423384602F031FF8DF8E8
:1008880005404FEA19234046240A01218DF8063015
:100898008DF804408DF8079001F002F804226423D3
:1008A80038460DEB020102F01BFF2C2340460021C5
:1008B8008DF8043000F0F4FF6423012201A93846C2
:1008C80002F00EFF03B0BDE8F08300BF6C04002403
:1008D800B003002470B51E468318BDF81040F02BF5
:1008E80037DC1546013A024492B28B19B3F5A07F62
:1008F80029DC731E0B449BB2FFF788FF17494FEAA8
:10090800142CE0B201F5807481F800C0023101F8BE
:10091800010C8C42F8D106FB05F40121104800F0C7
:10092800BFFF64000ED0B4F5807F25464FF0640306
:100938000A4928BF4FF480750A482A4602F0D0FEBB
:10094800641BF0D170BDC1F5A07640F23F13B6B27A
:10095800D2E7C0F1F005EF22ADB2C6E7700400247B
:10096800B00300246C0400240021014800F098BF63
:100978009C0300240121014800F092BF9C0300243D
:100988002DE9F04FDFF800A485B0F94D0021DFF81C
:10099800FC935046012400F083FF28460021F54EC1
:1009A80000F07EFF4846052100F076FA21462846E9
:1009B800F14D00F075FF304600218DF8004000F041
:1009C8006FFF2246642369462846DFF8C48302F095
:1009D80087FE48464FF47A71002700F05DFACB2372
:1009E800304600218DF8003000F05AFF224664237B
:1009F8006946284602F074FE4FF0360B98E803006B
:100A080008F11008009030468DF80410214600F0D7
:100A180047FF052269466423284602F061FECF237A
:100A2800394630468DF8003000F03AFF22466946D4
:100A38006423284602F054FE58F8083C2146304604
:100A4800ADF800301B0C8DF8023000F029FF0322AE
:100A580069466423284602F043FEE82339463046B7
:100A68008DF8003000F01CFF2246694664232846B2
:100A780002F036FE58F8043C21463046ADF8003006
:100A88001B0C8DF8023000F00BFF0322694664232B
:100A9800284602F025FEEA23394630468DF8003014
:100AA80000F0FEFE224664236946284602F018FE3E
:100AB80021463046ADF8007000F0F2FE0222694689
:100AC8006423284602F00CFEED23394630468DF8A3
:100AD800003000F0E5FE224669466423284602F00D
:100AE800FFFDA64B21463046009300F0D9FE0422B4
:100AF80069466423284602F0F3FDF7233946304659
:100B08008DF8003000F0CCFE224669466423284662
:100B180002F0E6FD2023214630468DF8003000F033
:100B2800BFFE224669466423284602F0D9FDC02349
:100B3800394630468DF8003000F0B2FE224669464C
:100B48006423284602F0CCFD2323214630468DF845
:100B5800003000F0A5FE224669466423284602F0CC
:100B6800BFFDC123394630468DF8003000F098FEAD
:100B7800224669466423284602F0B2FD1023214626
:100B880030468DF8003000F08BFE2246694664231B
:100B9800284602F0A5FDC523394630468DF80030B9
:100BA80000F07EFE224669466423284602F098FD3E
:100BB80042F63E0321463046ADF8003000F070FEA4
:100BC800022269466423284602F08AFDC723394673
:100BD80030468DF8003000F063FE224669466423F3
:100BE800284602F07DFD8623214630468DF80030E8
:100BF80000F056FE224664236946284602F070FD3E
:100C0800394630468DF800B000F04AFE2246694663
:100C18006423284602F064FD4FF04803214630461D
:100C28008DF8003000F03CFE2246694664232846D1
:100C380002F056FD3A23394630468DF8003000F070
:100C48002FFE224669466423284602F049FD5523B3
:100C5800214630468DF8003000F022FE22466946D3
:100C68006423284602F03CFDB123394630468DF80E
:100C7800003000F015FE224669466423284602F03B
:100C88002FFD4FF4C05321463046ADF8003000F038
:100C980007FE022269466423284602F021FDB62396
:100CA800394630468DF8003000F0FAFD2246694694
:100CB8006423284602F014FD314B214630461B6858
:100CC800ADF800301B0C8DF8023000F0E9FD03226E
:100CD80069466423284602F003FDF223394630466C
:100CE8008DF8003000F0DCFD224664236946284672
:100CF80002F0F6FC214630468DF8007000F0D0FD79
:100D0800224669466423284602F0EAFC262339462F
:100D180030468DF8003000F0C3FD22466423694652
:100D2800284602F0DDFC214630468DF8004000F0F0
:100D3800B7FD224669466423284602F0D1FCE02329
:100D4800394630468DF8003000F0AAFD2246694643
:100D58006423284602F0C4FC0A4BEC460FCBACE8EF
:100D680007002CF8023B1B0C2146304612E000BF5E
:100D7800D8030024B00300246C0400246403128107
:100D880070F1000874F100089C030024EC030024AF
:100D98000CF100088CF8003000F082FD0F22694643
:100DA8006423284602F09CFCE123394630468DF83E
:100DB800003000F075FD224669466423284602F09B
:100DC8008FFCEC4698E80F00ACE807002CF8023BD3
:100DD8001B0C214630468CF8003000F061FD0F22D4
:100DE80069466423284602F07BFC112339463046C5
:100DF8008DF8003000F054FD2246642369462846E9
:100E080002F06EFC4846782100F046F8292339465E
:100E180030468DF8003000F043FD224664236946D1
:100E2800284602F05DFC394630468DF800B000F0E7
:100E380037FD224669466423284602F051FC4FF0EC
:100E48004803304621468DF8003000F029FD6946F8
:100E580064232846224602F043FC2146504605B04A
:100E6800BDE8F04F00F01CBD00214FF4A073F02244
:100E780010B5044682B008460094FFF72BFD02B077
:100E880010BD00BF08B5034800F0FEFC80F001006B
:100E9800C0B208BDC4030024084602F0B3BD00BFB9
:100EA80010B540F203338EB000244FF60B7240F2B7
:100EB8000341ADF8083009A80123ADF81020ADF8BA
:100EC80024202246ADF80C100094029907940C9443
:100ED800CDE90544CDE90A4400F0F0FB04A801235C
:100EE80022460399009400F0E9FB09A800F0CCFC25
:100EF80010B901200EB010BD04A800F0C5FCA04236
:100F08000CBF022020460EB010BD00BF2DE9F041F5
:100F180003239AB0012700240646CDE914373B4B3A
:100F2800CDE9104340F20453CDE91647ADF84830F7
:100F3800FFF7B6FFB842054625D0022845D040F64F
:100F48000132334B0DF12C081894ADF82C200B9876
:100F58001997CDF84A3000F0E3F810A906F13C00E3
:100F680001F05AFC302003224FF07E5341460D9386
:100F78000E93CDE90B02F26B06F1140000F04CFB66
:100F88001AB0BDE8F0811023214A06A906908DF811
:100F980028300DF12C081F4BCDF84A2007930294F6
:100FA800CDE91804CDE9080402A800F0DFFE082303
:100FB800029A03A94046ADF80C508DF80E400495EE
:100FC80005930B9400F0ECF8C7E700200121104BC3
:100FD8000DF12C083A460094CDF84A304FF60B73C1
:100FE8000C94ADF82C302346CDE9180140F60131B8
:100FF8004046ADF818100699CDE90D4400F05EFBA7
:101008002146404600F04CFCA7E700BF0402040458
:10101800040604030704010B2DE9F04704462DEDEF
:10102800028B82B000294DD0012140F20112002329
:101038000091ADF804208DF80630364A0127364B6A
:1010480004F10409354904F12908626040F202728A
:10105800A36040F60663E16004F1250AA4F82520A0
:10106800A4F82930278284F8277084F82B7002F0BE
:1010780065FE054602F0C8FC6946064650BB4DB3FE
:1010880004F130008DF8067002F0E0FD072D3CD128
:1010980004F114052046FFF739FF284600F0F8FA56
:1010A8002846B0EE408A00F0EFFAD0ED007AF8EE6C
:1010B800677A88EE277A84ED0E7A02B0BDEC028B4F
:1010C800BDE8F08740F2011300918DF80610ADF8E5
:1010D8000430B2E704F1300002F0B8FD072D11D05A
:1010E8004946204601F08CF80EB9002DD0D1504663
:1010F80000F0E0FB404600F0DDFB04F1120000F0D8
:1011080079F9C5E7002EF2D1C2E74946204601F039
:1011180077F8BDE70508050905070506050A060667
:1011280010B584B003460124ADF8040003A8ADF857
:101138000C30ADF80E4000F0BDFB214603A800F0CE
:1011480095FC204602F05EFC002103A800F08EFC0E
:10115800204602F057FC214603A800F087FC04B0A3
:1011680010BD00BF10B5C2F3002384B00C46017C4B
:101178008DF80D2043EA4402FA2402238DF80C204E
:1011880003AA009400F088FE18B10124204604B098
:1011980010BD04460A2002F035FC204604B010BDFC
:1011A800034670B543F8042B044684B007C983E8A6
:1011B8000700A37983B91A210B461E22FA25237446
:1011C8002046ADF80C20022303AA009500F064FE27
:1011D80028B1012004B070BD1B210B46EDE70A20A1
:1011E80002F010FC4FF4B85200950223ADF80C2021
:1011F800204603AA217C00F04FFE0028E9D10A20EE
:1012080002F000FC41F2027200950223ADF80C20B6
:10121800204603AA217C00F03FFE0028D9D10A20ED
:1012280002F0F0FB042200950223ADF80C202046C2
:1012380003AA217C00F030FE0028CAD10A2002F05F
:10124800E1FB062200950223ADF80C20204603AAF4
:10125800217C00F021FE0028BBD10A2002F0D2FB3D
:1012680041F2082200950223ADF80C20204603AA7B
:10127800217C00F011FE0028ABD10A20064602F0BE
:10128800C1FB0095022303AA217C2046ADF80C601F
:1012980000F002FE00289CD1304602F0B3FB009516
:1012A80022790C232046002A8DF80C3003AA4FF02F
:1012B800020314BF622142218DF80D10217C00F039
:1012C800EBFD002885D1304602F09CFB2279D4E959
:1012D80002310B43DBB20AB943F0400362790AB129
:1012E80043F020030E22FA258DF80D302046009594
:1012F80002238DF80C2003AA217C00F0CDFD0028E4
:101308007FF467AF0A2002F07DFB102200950223CC
:10131800ADF80C20204603AA217C00F0BDFD002872
:101328007FF457AF0A2002F06DFB122100950223CB
:10133800ADF80C1003AA217C204600F0ADFD002872
:101348007FF447AF0A2002F05DFB01220921204605
:10135800FFF708FF003818BF01203BE7F0B510235E
:1013680087B0234C012200250126002702A9204628
:101378000195CDE902234FF48052CDE9046708F0C6
:101388000FFB642002F080FF02A94FF48052204630
:10139800CDE9046702261027CDE9026708F000FBB3
:1013A8000322102302A92046CDE9022300230422A8
:1013B800CDE904234FF4805208F0F2FA40F23223C8
:1013C800042202A9019310232046CDE90223019AA1
:1013D800012305924FF48052049308F0E1FA40F695
:1013E8000601204608F0FCFA284607B0F0BD00BF09
:1013F800780500241C4B00221C494FF0400C30B5E6
:10140800054689B00220596007219A601A620124B2
:10141800DA620A224FF4006EDC6006922022CDE9DF
:10142800000104200821CDE9020103201021CDE9A3
:10143800040108206946C3E904024FF4C072181D6C
:10144800C3E906C24FF48052C3E909E208F07EFA04
:1014580038B92846FFF782FF003818BF012009B0C5
:1014680030BD204609B030BD74050024404100520B
:10147800614A0021D0B513688EB00A91002B40F064
:10148800B9805E4B01214FF683700C241160022154
:10149800D3F8D4200026032742F48052C3F8D4207E
:1014A800D3F8D42002F480520092009AD3F8E020B6
:1014B80042F01002C3F8E020D3F8E02002F0100256
:1014C8000192019AD3F8E02042F04002C3F8E020EC
:1014D800D3F8E02002F040020292029AD3F8E0200A
:1014E80042F00802C3F8E020D3F8E02002F0080236
:1014F8000392039AD3F8E02042F48072C3F8E02004
:10150800D3F8E02002F480720492049AD3F8E02021
:1015180042F08002C3F8E020D3F8E02002F0800215
:101528000592059AD3F8E02042F02002C3F8E020A3
:10153800D3F8E02002F020020692069AD3F8E020C1
:1015480042F00402C3F8E020D3F8E0300C9403F032
:10155800040307930323079A0B93CDE9080108A90D
:10156800274803F037FF48F23712022308A9254815
:101578000C94CDE90823CDE90A6703F02BFF4CF260
:101588000372022308A920480C94CDE90823CDE969
:101598000A6703F01FFF40F2FF62022308A91B48F5
:1015A8000C94CDE90823CDE90A6703F013FF4FF641
:1015B8000C72022308A916480C94CDE90823CDE93A
:1015C8000A6703F007FF4FF63F02022308A91148F4
:1015D8000C94CDE90823CDE90A6703F0FBFE20222D
:1015E800022308A90A480C94CDE90A67CDE9082323
:1015F80003F0F0FE0EB0D0BD700500240044025880
:101608000010025800180258000C02580020025816
:10161800001C02580014025830B5184C154685B005
:10162800046004F1080EEC460FC98EE80F00D4EDF3
:10163800047AF5EEC07A8CE80F00F1EE10FA1ADDA4
:10164800B7EE006A94ED057A27EE277AC6EE276A88
:1016580084ED0D7AC4ED0C6A6DB1204640F8185F30
:1016680001F0D2F9064903690020064A2162A26204
:10167800E36005B030BD012005B030BDAC050024E5
:10168800002000300000003000680830704700BFBC
:101698000068183001F0BAB910B4074B4FF07E510A
:1016A80030240022032019619C60D8605DF8044B47
:1016B8005961C3E906227047AC05002410B592B001
:1016C800ADF804100180C9B2149C0B29C460C0E9AC
:1016D80001233FD090F801C0BCF10F0F3AD8022A7D
:1016E8003FD0032A02D0012A00D000220E92012BFB
:1016F80002D0022B18BF0023022C0F932CD0032CEE
:101708002AD0012C28D000230A29109327D85C4A14
:1017180002EB812202610A2914D8DFE801F0A395BF
:1017280087796B5D4F4133250600564BD3F8E0109F
:1017380041F48061C3F8E010D3F8E03003F480632B
:101748000C930C9B01230DA9104603FA0CF30D937F
:1017580003F040FE12B010BD0A291094D7D9002218
:10176800D8E711220E92C2E7464BD3F8E01041F4B5
:101778000071C3F8E010D3F8E03003F400730B9362
:101788000B9BDFE73F4BD3F8E01041F48071C3F8BF
:10179800E010D3F8E03003F480730A930A9BD1E792
:1017A800384BD3F8E01041F08001C3F8E010D3F8CB
:1017B800E03003F080030993099BC3E7314BD3F86A
:1017C800E01041F04001C3F8E010D3F8E03003F036
:1017D80040030893089BB5E72A4BD3F8E01041F083
:1017E8002001C3F8E010D3F8E03003F0200307939A
:1017F800079BA7E7234BD3F8E01041F01001C3F88B
:10180800E010D3F8E03003F010030693069B99E745
:101818001C4BD3F8E01041F00801C3F8E010D3F8EE
:10182800E03003F008030593059B8BE7154BD3F8CD
:10183800E01041F00401C3F8E010D3F8E03003F001
:1018480004030493049B7DE70E4BD3F8E01041F0AA
:101858000201C3F8E010D3F8E03003F00203039369
:10186800039B6FE7074BD3F8E01041F00101C3F881
:10187800E010D3F8E03003F001030293029B61E724
:10188800000002580044025808B501214378006955
:10189800994089B203F0A6FF003818BF012008BD9F
:1018A80001230A464178006903FA01F189B203F07D
:1018B8009FBF00BF8378022B30B504468FB037D066
:1018C800032B33D0012B31D000230A93E378012B6B
:1018D8002AD0022B28D000230B93002320460C93F8
:1018E80002F0B0FB0546204602F0B4FB23780990CD
:1018F800082B13D8DFE803F01F3245586B7E91A4FC
:101908000500594BD3F8E02042F48072C3F8E02078
:10191800D3F8E03003F480730893089B09A928469C
:1019280003F058FD0FB030BD0B93D6E70A93CDE70F
:1019380011230A93CAE74C4B09A92846D3F8E0209B
:1019480042F00102C3F8E020D3F8E03003F00103CD
:101958000093009B03F03EFD0FB030BD424B09A938
:101968002846D3F8E02042F00202C3F8E020D3F87A
:10197800E03003F002030193019B03F02BFD0FB04D
:1019880030BD394B09A92846D3F8E02042F00402BB
:10199800C3F8E020D3F8E03003F004030293029B7D
:1019A80003F018FD0FB030BD2F4B09A92846D3F816
:1019B800E02042F00802C3F8E020D3F8E03003F05A
:1019C80008030393039B03F005FD0FB030BD264BBE
:1019D80009A92846D3F8E02042F01002C3F8E02015
:1019E800D3F8E03003F010030493049B03F0F2FCF7
:1019F8000FB030BD1C4B09A92846D3F8E02042F0AF
:101A08002002C3F8E020D3F8E03003F02003059368
:101A1800059B03F0DFFC0FB030BD134B09A9284626
:101A2800D3F8E02042F04002C3F8E020D3F8E030D9
:101A380003F040030693069B03F0CCFC0FB030BDC7
:101A4800094B09A92846D3F8E02042F08002C3F8E0
:101A5800E020D3F8E03003F080030793079B03F0FE
:101A6800B9FC0FB030BD00BF0044025870B506463F
:101A78000D4602F0E7FA0446304602F0EBFA2A1E59
:101A88000146204618BF0122BDE8704003F0B0BEF1
:101A98000023122270B586B0CDE9022304930368AF
:101AA800032B01D804230593061D841D304602F03C
:101AB800C9FA0546304602F0CDFA034601A9284680
:101AC800019303F087FC204602F0BCFA0346204647
:101AD8001C4602F0BFFA01A903462046019303F011
:101AE80079FC06B070BD00BF634A0368934210B525
:101AF8008CB028D0614A934258D0614A934200F092
:101B08009480604A934201D00CB010BD5E4C5F488F
:101B1800D4F8E03043F00203C4F8E030D4F8E03001
:101B280003F002030A930A9BFFF7B2FFD4F8F430DC
:101B380043F08003C4F8F430D4F8F43003F08003A1
:101B48000B930B9BE0E7504C5148D4F8E03043F03E
:101B58000203C4F8E030D4F8E03003F00203019344
:101B6800019BFFF795FFD4F8E83000221F2043F4CB
:101B780000131146C4F8E830D4F8E83003F4001331
:101B88000293029BD4F8D83043F00103C4F8D8304C
:101B9800D4F8D83003F001030393039B02F09EFBB3
:101BA8001F200CB0BDE8104002F0D6BB364C3948B7
:101BB800D4F8E03043F08003C4F8E030D4F8E030E3
:101BC80003F080030493049BD4F8E03043F002034D
:101BD800C4F8E030D4F8E03003F002030593059B25
:101BE800FFF756FFD4F8E8300022212043F48003A1
:101BF8001146C4F8E830D4F8E83003F480030693BB
:101C0800069BD4F8D83043F00103C4F8D830D4F890
:101C1800D83003F001030793079B02F05FFB2120F4
:101C28000CB0BDE8104002F097BB1B48FFF730FF2F
:101C3800154B00224820D3F8E840114644F400042C
:101C4800C3F8E840D3F8E84004F400040894089C7A
:101C5800D3F8D84044F00104C3F8D840D3F8D830BA
:101C680003F001030993099B02F038FB48200CB0EC
:101C7800BDE8104002F070BB00540040005800401E
:101C8800005C0040001C0058004402587008002402
:101C9800E8050024C0060024980700242DE9F04335
:101CA8001A4B87B000254FF010099E46EC46184B9A
:101CB800FF22E04667461A700EF118060EF130044E
:101CC800CDE90055CDE90255ADF80090BCE80F000C
:101CD800CDE90455AEE80F009CE803000095ADF887
:101CE80000908EE80300B8E80F000FC69CE80300D8
:101CF8000095ADF8009086E803000FCF0FC49CE86C
:101D0800030084E8030007B0BDE8F0830400002462
:101D1800E405002410B5EFF3108472B6084B1A7866
:101D2800120602D504B962B610BD1B78D822054840
:101D38005BB202FB0300143002F0FAFFF2E700BFC7
:101D4800E4050024E8050024014804F0E9BB00BFCD
:101D580074060024014804F0E3BB00BF4C070024CC
:101D6800014804F0DDBB00BF240800242DE9F0433E
:101D78000F68D8243F4D85B007FB04F4032F05EB0B
:101D88000403036040DCCB680E46012B3CD84DD0E1
:101D98004FF0D808B646DFF8FC9008FB0758BEE8B5
:101DA8000F00C446ACE80F00DEF800300DF1100E4D
:101DB800CCF80030D8F808C099E80F000EE90F00F9
:101DC8000EEB8703BCF1010F53F8103CC8F88C30B8
:101DD80031D0BCF1020F42D0BCF1000F35D0317CBC
:101DE8008C34D823002201202C4403FB07534900DC
:101DF800C3E92602C3F894102046C3E92822C3E9A0
:101E08002A2204F07FF918B1012005B0BDE8F0835B
:101E18000146204604F090FB0028F5D101462046F3
:101E280004F0B4FB003818BF0120EEE70B7C103B30
:101E3800672BADD9E8E701F07FFF0F4B98420CBF45
:101E48000E4B0F4BC8F89030C9E701F075FF0A4BED
:101E580098420CBF0B4B0C4BC8F89030BFE701F011
:101E68006BFF054B98420CBF084B094BC8F89030E4
:101E7800B5E700BFE8050024000E27072D0FB03096
:101E88003211D0205F4390608A62E030200BA010AE
:101E98001A0980102CF100082DE9F041D0F80080D3
:101EA80082B00D4617461E4608F18C04204604F001
:101EB8003FFB2028FAD1D8F80C3073B96D002046C2
:101EC800089C33463A46A9B2009404F071F90038E8
:101ED80018BF012002B0BDE8F081089B32463946A0
:101EE800204604F039FAF2E7044B10221A7483F8FA
:101EF800E82083F8C02183F898227047E805002479
:101F080030B5002395B04FF48071062204460B9338
:101F180006921393CDE90C13CDE90E33CDE91133B5
:101F280001F00CFF07282BD004F1100541F288328C
:101F380006A9284605F03CF928B10123184684F87B
:101F48005C3015B030BD0222022306A92846CDE92F
:101F5800002310220123CDE9022300224FF480033D
:101F6800CDE9042305224FF0807306926A460F9349
:101F780041F2883305F088FA0028DED115B030BD6B
:101F88000323012084F85C3015B030BD0000000048
:101F980070B50023A4B04FF080724FF480750446EA
:101FA800ADF806300D93CDE910320122CDE90E537C
:101FB800CDE91223CDE91433002943D0F02300F1F1
:101FC800100508AEADF80630C02341F2883231461C
:101FD8002846089305F0ECF828B10123184684F840
:101FE8005C3024B070BD41F288320DF106012846FC
:101FF80005F048F903460028EFD105224FF4807117
:102008001E93284616924FF080721B9321931F92BD
:1020180002AA9FED1F7BCDE91C13CDE922338DED7C
:10202800027B9FED1D7B41F2883316A98DED047B61
:102038009FED1B7B8DED067B05F026FA0028CCD1A1
:1020480024B070BD00F1100508AE612341F288325A
:1020580031462846089305F0ABF80028BDD141F277
:1020680088320DF10601284605F08AF90028B4D116
:10207800BDF80630204623F0780343F04003ADF85E
:102088000630FFF73DFF00289ED0A6E7AFF300809B
:102098000000000001000000100000000100000026
:1020A80000000000000040002DE9F04F00234FF42D
:1020B800807501264FF0807804462DED028BABB079
:1020C8008DF8073013932193299314950E96CDF824
:1020D8005C80CDE91533CDE91863CDE91A33CDE934
:1020E8002253CDE92433CDE9273306231C9301F08D
:1020F80025FE072808D004F1100741F288321CA9F0
:10210800384605F055F840B10123184684F85C308C
:102118002BB0BDEC028BBDE8F08F4FF0020A4FF0F8
:10212800020B4FF0050941F2883308AA1CA938466A
:10213800CDF89480CDF870909FED2D8BCDE908AB4C
:102148004FF0000A4FF4800B8DED0A8BCDE90CABF4
:1021580005F09AF90028D7D141F2883238460EA9FD
:1021680005F026F80028CFD1402341F288320DF13E
:10217800070138468DF8073005F084F80028C3D1E8
:1021880041F288330EA902AA3846CDF83890CDF826
:102198005C809FED197B8DED048BCDE906AB8DED51
:1021A800027B05F071F903460028ADD1CDF8709097
:1021B8004FF00109CDF894804FF00008219308AA48
:1021C80029931CA938462295CDE92333CDE9273335
:1021D80041F288338DED0A8BCDE90CABCDE9088946
:1021E80005F052F9002893D0304684F85C608FE7F8
:1021F8001000000001000000400000004000000046
:102208002DE9F043624CA3B00D46046001F096FD41
:10221800072800F0A980286823466968AA6807C3C8
:102228001E46AB8926F8043B3046257B677B04F0C5
:10223800A1FFE0B9574B012D4FF00108E061236180
:1022480014BF4FF480134FF40003C4E9058893FAD0
:10225800A3F3B3FA83F34FF48079013BC4F82490D5
:10226800C4E90B003046236204F018FF38B101229C
:10227800134684F85C20184623B0BDE8F083662333
:102288000B90139041F2883206A90693CDE90C9081
:10229800CDE90E00CDE91100304604F089FF002891
:1022A800E5D1992341F2883206A93046069304F015
:1022B8007FFF0028DBD105231C9019906A461493F0
:1022C8004FF08073219014A91D9341F288339FED3C
:1022D8002A7BCDE91A90CDE91F008DED007B9FED9B
:1022E800287B30468DED027B9FED277B8DED047BAF
:1022F80005F0CAF80028BAD129462046FFF748FE5B
:102308000028B4D12046FFF7CFFE03460028AED1FF
:10231800002FB0D1189330460027002606AA14A92A
:10232800CDF86890CDE91F33EB2314934FF4406345
:102338001B934FF4005317934FF440431C93A0236F
:102348001693062319934FF0805321934FF040734F
:10235800CDE906671D9305F00FF9034600288AD0DA
:10236800434684F85C8086E701230322184684F8F4
:102378005C2023B0BDE8F0830000000001000000ED
:1023880010000000010000000000000000004000F4
:1023980048090024005000522DE9F04F8FB0414BFE
:1023A8000024026800AF9A427C63C7E90944C7E980
:1023B8000B4403D03C37BD46BDE8F08F3A4B40F69E
:1023C80009213A48EB46D3F8D42007F11C0607F157
:1023D800220A4FF0020942F480424FF00308C3F882
:1023E800D420D3F8D42002F48042BA60BA68D3F873
:1023F800E02042F04002C3F8E020D3F8E02002F0E9
:102408004002FA60FA68D3F8E02042F02002C3F8EC
:10241800E020D3F8E02002F020023A613A69D3F8CC
:10242800E02042F01002C3F8E020D3F8E02002F0E8
:1024380010027A617A69D3F8E02042F00202C3F808
:10244800E020D3F8E030F86103F002033984BB617F
:10245800174B7B60BB697B6853F8040F7B6001F006
:10246800F1FD7B680546186801F0F4FD16F8013B9C
:10247800786207F124012846C7F830807B63C7E9F2
:102488000A9402F0A7FF5645E5D100225C201146C8
:1024980001F024FF5C2001F05FFF3C37DD46BD46BC
:1024A800BDE8F08F00500052004402580A0A09099A
:1024B800A4090024114B02689A4200D07047104AC0
:1024C80070B5D2F8D4300F4C23F4804304F11806C9
:1024D800C2F8D43054F8040F01F0B4FD0546206862
:1024E80001F0B8FD0146284603F0B4F8B442F1D132
:1024F8005C20BDE8704001F03DBF00BF00500052B5
:1025080000440258A4090024014805F0C1B800BFDE
:1025180058090024084B1A1D981D03F1080110B42E
:102528009C1C9A6603F10A02C3E91834C3E91B012B
:102538005DF8044B5A6770474809002438B50368AA
:1025480071B9026A00F1280500F5AC74012A0CBFC4
:10255800002140218BBB1D4B5722C0F858310DE09C
:10256800426A00F1C00500F5E874012A0CBF002199
:102578004021EBB1164B5A22C0F8D0310023204637
:10258800C4E901214FF480524FF4806163626261B3
:102598004FF48042C4E903314FF48073C4E9062341
:1025A8004FF40033236202F04BF858B1FFBEFEE748
:1025B800084B5822C0F8D031E0E7074B5922C0F841
:1025C8005831DBE7C5E92044A56338BD1000024057
:1025D8007000024028000240580002402DE9F043F4
:1025E800821D05468BB0031D05F10A010830CDE9AF
:1025F800052305F10C02AB69CDE907010992002B0F
:102608003DD0EB69B3FA83F84FEA58180123022248
:1026180005AE0AAF4FF006090393CDE9012356F83A
:10262800044B2B792278934216D02B68F3B1012BF7
:1026380002D1F2B10A230493204601F00BFD0346B0
:102648002046009301F0FEFC694602F0C3FEBE423C
:10265800E5D10BB0BDE8F083697963789942E4D19C
:10266800B8F1000FF3D02B68002BE0D1CDF8109013
:10267800E2E76378022B14BF0A230823DBE74FF055
:102688000108C3E7534A0368934230B505468BB047
:1026980055D02032934252D04F4A934204D0203230
:1026A800934201D00BB030BD4C4C4D48D4F8E030CB
:1026B80043F00103C4F8E030D4F8E03003F001033C
:1026C8000593059BD4F8E03043F00803C4F8E030E4
:1026D800D4F8E03003F008030693069BD4F8E03002
:1026E80043F04003C4F8E030D4F8E03003F040038E
:1026F8000793079BD4F8F03043F40003C4F8F03094
:10270800D4F8F03003F400030893089BFFF766FF42
:10271800D4F8D830296843F001032F4A3048C4F868
:10272800D830891AD4F8D83018BF012103F0010332
:102738000993099B0BB0BDE83040FFF7FFBE274C5B
:102748002848D4F8E03043F00103C4F8E030D4F866
:10275800E03003F001030093009BD4F8E03043F02D
:102768001003C4F8E030D4F8E03003F0100301930C
:10277800019BD4F8E03043F04003C4F8E030D4F8CB
:10278800E03003F040030293029BD4F8F03043F4A6
:102798008003C4F8F030D4F8F03003F480030393D6
:1027A800039BFFF71BFFD4F8D830296843F00103D7
:1027B800084A0C48C4F8D830891AD4F8D83018BF59
:1027C800012103F001030493049B0BB0BDE83040E2
:1027D800FFF7B4BE04580140045C014000440258AD
:1027E8001C0C0024C0090024014802F0A1BA00BF53
:1027F800180B0024014802F09BBA00BF900B00247C
:10280800014802F095BA00BF740D0024014802F097
:102818008FBA00BFEC0D00242DE9F04F0C684FF47F
:102828001776754F87B004FB06F6012C07EB060AEE
:10283800C0F800A000F3A0800D468E464FF00008B7
:10284800D44669A3D3E9002369A1D1E90001CDE900
:10285800022306ABCAF8508203EB8403CDE90401D6
:1028680053F810BC53F8083CCAE992880193BEE8B3
:102878000F00ACE80F00BEE80F00ACE80F00019BAA
:102888009EE80300CAF828B0CAF8C0308CE80300F4
:102898002B69042B0CD8DFE803F0737D87910300C4
:1028A8004FF41773554A03FB04739A64C3F8E02086
:1028B800AA692B6A002A43D0002B4FF4177308BF6C
:1028C800022203FB047318BF0322DA6201221A638F
:1028D800EA696B6A002A40D1191E4FF4177318BFB2
:1028E800012103FB0473C3E931126B69022B05D87C
:1028F800434A12F80380434A52F823904FF417735F
:1029080006F128004246494603FB04740023384474
:1029180063646363E365C4F8DC30C4F8CC30C4F89E
:10292800F430C4E90F33C4E91533C4E93533C4E9D5
:102938003B33022306F04EFF002849D0FFBEFEE7D6
:10294800191E4FF4177318BF012103FB0473C3E961
:102958000B12EA696B6A002ABED0002B4FF417737A
:1029680008BF022203FB047318BF0322C3F8C42064
:102978000122C3F8C820B8E7012007B0BDE8F08FEE
:102988004FF417734FF4FA5203FB04739A64C3F8B5
:10299800E0208DE74FF417734FF47A5203FB04736A
:1029A8009A64C3F8E02083E74FF417734FF4FA42B0
:1029B80003FB04739A64C3F8E02079E74FF41773B4
:1029C8004BF6803203FB04739A64C3F8E0206FE788
:1029D80006F1C000022342464946384406F0FAFE92
:1029E8000028CAD0FFBEFEE704580140045C01403D
:1029F80024580140245C0140C009002400770100EC
:102A080084F1000888F100080068704703681B69B2
:102A1800042B05D8044A02EB830393ED000A7047A0
:102A28009FED020A704700BF94F1000800803B4701
:102A380070B5002304464FF4806204214FF44035FA
:102A48003448C4F83821C4F8D410C4F83431C4F870
:102A58004C113149C4F8B000C4F82811C4E92F3228
:102A6800C4E93133C4E93335C4E93733C4E94F33F2
:102A7800C4E95135C4E95533A2680323C4F8D830F2
:102A8800C4F85031042A0AD8DFE802F01F262D3492
:102A9800030055225623C4F8B420C4F82C31002270
:102AA800402304F1B005C4F8B8202846C4F83031F2
:102AB80001F0C6FD08B1FFBEFEE704F59476304686
:102AC80001F0BEFDE8B1FFBEFEE725222623C4F8CB
:102AD800B420C4F82C31E2E727222823C4F8B42014
:102AE800C4F82C31DBE73D223E23C4F8B420C4F8F7
:102AF8002C31D4E753225423C4F8B420C4F82C3121
:102B0800CDE704F12803C4E92865C4F8E830C4F81F
:102B1800603170BD40040240580402402DE9F04F76
:102B2800814683B00E4617461D4600F1280420460C
:102B380007F08CFE01288246F9D14846FFF778FF56
:102B48008046002835D1EFF31083019372B6DFF881
:102B580088B00C9B99F90820DFF880A0DFF88090F6
:102B6800CBF800300D9B89F80020CAF800300DB171
:102B78001846A847BAB23146204607F0DDF930B901
:102B8800019B03B962B6404603B0BDE8F08F00234D
:102B9800CBF80030CAF80030FF2389F800300C9BCE
:102BA8008BB101210D9888469847019B002BEAD1EB
:102BB800E8E70C9B53B1D0460D98514698474046DC
:102BC80003B0BDE8F08F4FF00108D9E7D046404682
:102BD80003B0BDE8F08F00BF98180024A0180024A7
:102BE8009C1800242DE9F04F814683B00E46174605
:102BF8001D4600F12804204607F028FE01288246D9
:102C0800F9D14846FFF714FF8046002835D1EFF385
:102C18001083019372B6DFF888B00C9B99F90820ED
:102C2800DFF880A0DFF88090CBF800300D9B89F8A2
:102C38000020CAF800300DB11846A847BAB231468C
:102C4800204607F03DFB30B9019B03B962B6404608
:102C580003B0BDE8F08F0023CBF80030CAF800308D
:102C6800FF2389F800300C9B8BB101210D98884611
:102C78009847019B002BEAD1E8E70C9B53B1D0465B
:102C88000D9851469847404603B0BDE8F08F4FF085
:102C98000108D9E7D046404603B0BDE8F08F00BF31
:102CA80098180024A01800249C1800242DE9F04F3F
:102CB800814683B00F461646984600F12804204600
:102CC80007F0C4FD0128FAD182464846FFF7B0FE56
:102CD8000546002838D1EFF31083019372B699F9AD
:102CE8000830DFF88890DFF888B089F800300D9B4D
:102CF800DFF880A0CBF800300E9BCAF800300C9BA0
:102D08000BB10E9898471FFA88F33A463146204689
:102D180007F0CAF930B9019B03B962B6284603B077
:102D2800BDE8F08F0023CBF80030CAF80030FF234D
:102D380089F800300D9B8BB101210E980D469847FC
:102D4800019B002BEAD1E8E70D9B4BB155460E9845
:102D580051469847284603B0BDE8F08F0125DAE7C9
:102D68005546284603B0BDE8F08F00BF9C180024E4
:102D780098180024A01800242DE9F043002387B0F8
:102D88000222044605690493CDE90223D0E9021220
:102D98008E00FAB1022D7AD02178B5FA85F54FF078
:102DA8000108276A0B294FEA551521D1A2780B2A69
:102DB80002D0B8F1000F38D123790B2B01D0002DA8
:102DC8006CD1A37917B10B2B40F09980002007B084
:102DD800BDE8F08335F002032178276A0CBF4FF075
:102DE80001084FF00008023D18BF01250B29DDD06E
:102DF8007D4B94F801C053F8262010780B2802D098
:102E0800884200F0AD80D378D01C994202D10B2BB8
:102E180040F0BD809379901D8B4202D10B2B40F07E
:102E2800BC80012007B0BDE8F083711C6E4BE078D0
:102E380053F8213019780B2902D08A4200F0B58066
:102E4800D97803F1030C0B2902D08A4200F0BB8029
:102E5800997903F1060C0B29E3D08A42E1D1DB7999
:102E68008342DED1634604F102099B784846059304
:102E780001F0E8F88046484601F0ECF801A9019015
:102E8800404602F0A7FA23790B2B98D199E70178ED
:102E9800076A0B2940F0868001258DE7B11C524A4C
:102EA800607952F8212011780B2902D08B4200F06A
:102EB8008180D178D51C0B2902D08B4200F08D80FF
:102EC8009179951D8B42ACD10B29AAD0D379834235
:102ED800A7D12A46251D93782846059301F0B2F814
:102EE800034628461D4601F0B5F801A90190284679
:102EF80002F070FAA379002F7FF465AF66E7F11C42
:102F0800394AE07952F8212011780B2901D08B42F7
:102F18005FD0D178D51C0B2901D08B424FD0917945
:102F2800951D8B427FF47DAF0B293FF47AAFD3799F
:102F380083427FF476AF2A46A51D937828460593E9
:102F480001F080F80446284601F084F8034601A9F8
:102F58002046019302F03EFA002007B0BDE8F08356
:102F6800537863457FF44FAF93782046059301F07B
:102F780069F88146204601F06DF801A9019048469C
:102F880002F028FAA2780B2A7FF413AF14E713791A
:102F980063457FF43FAF0246E6E7D37963457FF4A4
:102FA80040AFF8E79846012522E7597881427FF437
:102FB80047AF58E7517881427FF47BAF8AE71179B0
:102FC8008142ACD1B7E7197981427FF441AF6346BA
:102FD80049E7517881429CD1AEE7117981427FF46B
:102FE8006FAF2A4676E700BFD0F10008654A03684C
:102FF800934200F0B980A2F57842934200F0B6807F
:1030080002F58062934200F0B38002F57842934261
:1030180000F0B08002F5E052934200F0AD805A4AC9
:10302800934240F0AB8005234FF4D071574A01FB1F
:1030380003F310B5D418D05C86B001F013F8A0786B
:1030480001F010F8207901F00DF8A07901F00AF8E4
:10305800A368052B11D8DFE803F0192F455B71032E
:103068004B4BD3F8F42042F02002C3F8F420D3F8F5
:10307800F43003F020030593059B2046FFF77CFE00
:10308800012801D006B010BDFFBEFEE7404B00226C
:103098002320D3F8F01041F48051C3F8F010114602
:1030A800D3F8F03003F480530093009B01F016F935
:1030B800232001F051F9E0E7354B00222420D3F812
:1030C800E81041F48041C3F8E8101146D3F8E8301D
:1030D80003F480430193019B01F000F9242001F0DF
:1030E8003BF9CAE72A4B00223320D3F8E81041F411
:1030F8000041C3F8E8101146D3F8E83003F4004360
:103108000293029B01F0EAF8332001F025F9B4E7B5
:103118001F4B00225420D3F8F01041F40051C3F89B
:10312800F0101146D3F8F03003F400530393039BD7
:1031380001F0D4F8542001F00FF99EE7144B002257
:103148005520D3F8F01041F48011C3F8F01011465F
:10315800D3F8F03003F480130493049B01F0BEF815
:10316800552001F0F9F888E700235DE701235BE7C4
:10317800022359E7032357E7042355E700231B7865
:10318800FFDE00BF0030014000140058780E002414
:10319800004402582DE9F043002289B01B4B01215D
:1031A8000DF1040C9E461A4B0791E146E04667462E
:1031B8000EF11C060EF138050EF15404CDE901227A
:1031C800CDE90322CDE90522FF221A70BCE80F00E1
:1031D800AEE80F009CE807008EE80700B9E80F008A
:1031E8000FC69CE8070086E80700B8E80F000FC57F
:1031F8009CE8070085E807000FCF0FC49CE807008C
:1032080084E8070009B0BDE8F08300BF0C01002482
:103218009C180024014807F0EDB900BFA00E002457
:10322800014807F0E7B900BF40100024014807F043
:10323800E1B900BFE0110024014807F0DBB900BF85
:1032480080130024014807F0D5B900BF20150024D9
:1032580010B5EFF3108472B6084B1A78120602D52F
:1032680004B962B610BD1B784FF4D07204485BB243
:1032780002FB0300B03001F05BFDF1E79C1800246D
:10328800780E002410B5EFF3108472B6094B1A7843
:10329800120602D504B962B610BD1B784FF4D0727D
:1032A80005485BB202FB030000F5947001F040FD95
:1032B800F0E700BF9C180024780E00242DE9F041A7
:1032C80084B0EFF3108772B6284AFF21284C1368A0
:1032D800217023B100211160264A1068984723788D
:1032E8001B061CD5DFF894800025234E4446216830
:1032F80079B162686AB1A369012B22D0A3B9636965
:103308003046019323690093E3682289FFF76AFC3A
:1033180018B301351C3406F5D076042DE7D107B96A
:1033280062B604B0BDE8F081D4E90430CDE90130DB
:10333800E068238900903046FFF7B8FC0028E8D100
:103348000BE0D4E904301146CDE900303046E3689B
:103358002289FFF7E3FB0028DBD1C5EBC50508EBA5
:10336800850348F825005860D9E700BF981800245D
:103378009C180024A0180024780E00240C010024B6
:103388002DE9F04184B0EFF3108772B6284AFF2187
:10339800284C1368217023B100211160264A106857
:1033A800984723781B061CD5DFF894800025234E08
:1033B8004446216879B162686AB1A369012B22D0B9
:1033C800A3B963693046019323690093E3682289AE
:1033D800FFF708FC18B301351C3406F5D076042D28
:1033E800E7D107B962B604B0BDE8F081D4E904308A
:1033F800CDE90130E068238900903046FFF756FC9C
:103408000028E8D10BE0D4E904301146CDE90030BA
:103418003046E3682289FFF781FB0028DBD1C5EB42
:10342800C50508EB850348F825005860D9E700BFB3
:10343800981800249C180024A0180024780E002452
:103448000C0100242DE9F04184B0EFF3108772B627
:10345800284AFF21284C1368217023B100211160EC
:10346800264A1068984723781B061CD5DFF89480F5
:103478000025234E4446216879B162686AB1A36980
:10348800012B22D0A3B963693046019323690093C5
:10349800E3682289FFF7A6FB18B301351C3406F54B
:1034A800D076042DE7D107B962B604B0BDE8F08143
:1034B800D4E90430CDE90130E06823890090304632
:1034C800FFF7F4FB0028E8D10BE0D4E904301146FB
:1034D800CDE900303046E3682289FFF71FFB00285A
:1034E800DBD1C5EBC50508EB850348F82500586016
:1034F800D9E700BF981800249C180024A0180024BD
:10350800780E00240C0100242DE9F04184B0EFF37B
:10351800108772B606F0D8FA284A294CFF2113689A
:1035280021702BB1002111600121264A10689847AB
:1035380023781B061CD5DFF894800025224E4446CC
:10354800216879B162686AB1A369012B22D0A3B955
:1035580063693046019323690093E3682289FFF782
:1035680041FB18B301351C3406F5D076042DE7D19C
:1035780007B962B604B0BDE8F081D4E90430CDE9FA
:103588000130E068238900903046FFF78FFB002860
:10359800E8D10BE0D4E904301146CDE900303046DB
:1035A800E3682289FFF7BAFA0028DBD1C5EBC50525
:1035B80008EB850348F825005860D9E798180024D7
:1035C8009C180024A0180024780E00240C01002464
:1035D8002DE9F0418F684FF4D0743E4E8C4607FBBE
:1035E80004F4052F06EB04050560AE46BCE80F00A1
:1035F800AEE80F00BCE80F00AEE80F009CE803003F
:103608008EE8030004D8EB68002B60D0012B02D0B1
:103618000120BDE8F08100214FF4D07303FB07635C
:103628001A69032AF4D8D3F814C0ACF104001C2892
:10363800EED89B691BB1012BEAD14FF000734FF410
:10364800D07000FB0760C06918B10128E0D14FF0C5
:1036580080704FF4D07505FB0765D5F820E0BEF102
:10366800020FD5D8D5F82480B8F1070FD0D8520466
:10367800E962C5E90E300CF1FF332A6304F1280032
:103688006B634FEA087330446B640023C5E9123357
:10369800C5E91433C5E91833C5E91A33C5E91C333C
:1036A800AB67C5F880300C4B53F82E200B4B2A64BF
:1036B8004FF0804253F82730EA65AB624FF0004381
:1036C800EB6706F001FA0028A3D0FFBEFEE74FF42F
:1036D8008001A1E7780E0024C0F10008A8F10008D5
:1036E800006892B208B5283006F09CFA003818BF76
:1036F800012008BD30B4544B002108220220534C4D
:10370800D9615862C3F8BC11C3F8C401C3F85C138B
:10371800C3F86403C3F8F424C3F8F814C3F8FC141A
:10372800C3F80405C3F89426C3F89816C3F89C1682
:10373800C3F8A406C3F83428C3F83818C3F83C18EB
:10374800C3F84408424D4348C3E90521C3E96D2144
:10375800C3E9D5212288A3783F49EA80CA800B7241
:103768003E492B72CA800B722168A0F8032043716E
:10377800C28003723A4C3B48E2802372A0F80320CF
:10378800394C4371C28003723848E2802372A0F832
:103798000320374C4371C2800372080C2180A0704B
:1037A800A4F803206371E2802372324C324D2180E9
:1037B800A070A4F803206371E28023722F4CEA8082
:1037C80021802B72A070A4F803206371E280237219
:1037D8002B4C2180A070A4F803206371E28023722F
:1037E800284C2180A070A4F803206371E280237222
:1037F800254C2180A070A4F803206371E280237215
:10380800224C2180A070A4F803206371E280237207
:103818001F4C21801F49A070A4F803201E48637123
:10382800E2802372A1F803201C4C4B71CA800B72F2
:103838001B49E2802372C2800372A1F803204B71F6
:10384800CA800B7230BC7047780E0024CCF1000897
:1038580094000024B8000024880000244C000024B0
:10386800A0000024DC000024C4000024640000241C
:103878006818002450180024D00000245C18002484
:10388800381800248C180024741800248018002488
:103898004418002400010024F4000024E800002457
:1038A80070000024704700BF08B500F0DBFCBDE8DD
:1038B800084000F0DBBD00BF064808B503680BB13F
:1038C80001F09AFF044803681BB1BDE8084002F004
:1038D80089BE08BDB01C0024A8180024064808B5F5
:1038E80003680BB101F088FF044803681BB1BDE809
:1038F800084002F077BE08BDB01C0024A8180024B8
:10390800064808B503680BB101F076FF0448036860
:103918001BB1BDE8084002F065BE08BDB01C00241C
:10392800A8180024364BDA6A520062D59A6A9A6A55
:103938009A6A9B6A180600D500BE314B9B6A9906A5
:1039480000D500BE2E4B9B6ADA0600D500BE2C4B74
:103958009B6A1B0700D500BE294B9B6A980700D5B8
:1039680000BE274B9B6AD90700D500BE244B9B6A33
:103978001A0400D500BE224B9B6A9B0400D500BEEA
:103988001F4B9B6AD80400D500BE1D4B9B6A1905C6
:1039980000D500BE1A4B9B6A5A0500D500BE184BCD
:1039A8009B6A9B0500D500BE154B9B6AD80500D5C0
:1039B80000BE134B9B6A990100D500BE104B9B6A51
:1039C800DA0100D500BE0E4B9B6A1B0300D500BE72
:1039D8000B4B9B6A580300D500BE094B9B6A9903A1
:1039E80000D500BE064B9B6ADA0306D400BE00BEB3
:1039F800FEE7DB6A9B07FAD5F8E700BEF6E700BFEB
:103A080000ED00E000F040BC0A4B9B6803F17843EE
:103A1800B3F5003F0BD3084B986848B19868012864
:103A280006D09868022803D09B68032070470120BD
:103A3800704700BF00ED00E0000080382DE9F0413C
:103A4800CEB004464C2200210AA80BF049FB2022E4
:103A5800002102A80BF044FBBC2200211EA80BF099
:103A68003FFB022003F032FA2368012B4FF00003DA
:103A780054D0534A02250193C820D16A514B21F0F2
:103A88000101D162D26A02F0010201929A6942F4FC
:103A980040429A619B6903F440430193019B494A60
:103AA80093699B04FCD548490224002201268B6AAD
:103AB80004274FF0080823F0030323438B620523F0
:103AC80016900AA818934FF48033109617941994F7
:103AD8001597CDF86880CDE91B222122CDE9134442
:103AE800CDE90A2303F0DCFE00B1FEE73F22032301
:103AF800294602A8CDE9022300220823CDE90423A0
:103B080040224023CDE9062340234FF48062CDE9CB
:103B1800082304F0F3F90346B8B1FEE7294A04255F
:103B28000093F0209169264B41F4404191619269DC
:103B380002F440420092DA6A42F00102DA62DB6A79
:103B480003F001030093009BA9E720224FF4805162
:103B580025934FF440152B9280222D931EA8309365
:103B6800269135914FF48071249234920C2233942B
:103B7800439140F2271120921022CDF884802A9791
:103B88001F96CDE92E34CDE93B334FF48033CDE990
:103B980022463193002446930623CDE93E452793D8
:103BA8004FF48063094C2C931E94CDE9281204F03D
:103BB80001FC00B1FEE703F0AFF94EB0BDE8F081BB
:103BC8000004005800480258004402580F130F031D
:103BD80070B584B0012400F0F7FB4FF480764FF005
:103BE8004052194B68460025ADF800400396CDE9D0
:103BF800012300F007FC19224FF0404368468DF876
:103C0800082001938DF80F40ADF80D608DF8014044
:103C18008DF80A5000F0F6FB02230B2268468DF857
:103C28000F508DF801304FF062538DF80820019342
:103C3800ADF80D408DF80A4000F0E4FB042000F0D8
:103C4800D1FB04B070BD00BF0E00010330B50D46B6
:103C5800044685B0D1E9000184E8030000F0D2FAF7
:103C6800AB79A3B309F078F9FEF718F8FFF792FAE1
:103C780008F074FE2B798BBB6B799BB1BFF34F8F28
:103C8800BFF36F8F2A4B0022C3F85022BFF34F8F28
:103C9800BFF36F8F5A6942F400325A61BFF34F8FF6
:103CA800BFF36F8F4FF0FF320023002400256946D1
:103CB800204802928DF80C30CDE9004508F0E0F973
:103CC8001C4808F045FA08F093F805B030BD2046C6
:103CD800FFF7B4FE2046FFF77BFFC3E7144C002331
:103CE800C4F88430BFF34F8FD4F8801043F6E07ED9
:103CF800C1F34E3CC1F3C9014FEA4C1C0CEA0E005B
:103D08000B4640EA8372013BC4F860225A1CF8D182
:103D1800ACF1200C1CF1200FF0D1BFF34F8F636979
:103D280043F480336361BFF34F8FBFF36F8FA3E713
:103D380000ED00E0A418002404F010BA1C4B9B68A6
:103D480003F17842B2F5003F25D3B3F5803F20D385
:103D580003F16042B2F5003F1FD303F15C42B2F5B4
:103D6800002F1CD303F17042B2F5902F19D303F141
:103D78004842B2F5803F16D303F18042B2F1806F1A
:103D880013D303F1E043B3F5000F2CBF082007203D
:103D980070470120704700207047022070470320B9
:103DA800704704207047052070470620704700BF01
:103DB80000ED00E003480023034A044903600BF0C8
:103DC80049B900BFA418002400000024AD38000839
:103DD80010B4204C0022204B83B0D4F888101F4820
:103DE80041F47001C4F8881019681D4C41F00101B4
:103DF80019601A61196808401A4918609A61DA61ED
:103E08001A629A62DA621A635A639A63DA631A6404
:103E18005A64186820F4802018601A66D3F8DC20E9
:103E280042F06042C3F8DC20D3F8DC300193019BF8
:103E380023681940B1F1005F03D20B4B0122C3F88C
:103E48000821044B4FF000629A6003B05DF8044B00
:103E5800704700BF00ED00E0004402587FEDF6EA2D
:103E68000010005C0000FFFF0080005100F5717138
:103E7800D0F8040407F0A4BBC1EBC10300EB830333
:103E8800D0F80404D3F8082207F0C8BBC1EBC1037B
:103E980000EB8303D0F804049A6C07F0FDBB00BF65
:103EA800D0F8040407F09CBCC16810B5044619B1E9
:103EB800022900D0FEE70121D4F8040407F07AFCB7
:103EC800D4F80404BDE8104007F04CBC10B5044613
:103ED800D0F8040407F072FC2268D2F8003E43F0E0
:103EE8000103C2F8003E236A23B1034A136943F071
:103EF8000603136110BD00BF00ED00E0D0F8040414
:103F080007F066BCD0F8040407F07ABCD0F80404C3
:103F180007F074BCD0F8040407F074BCD0F80404AB
:103F280007F072BC9446D0F898021A4608B5634662
:103F380002F0BCFE032802D8024B185C08BD022020
:103F480008BD00BF40F20008D0F8980208B502F09A
:103F58003BFF032802D8024B185C08BD022008BDAD
:103F680040F20008D0F8980208B502F071FF032863
:103F780002D8024B185C08BD022008BD40F20008B8
:103F88000A06D0F8983206D4C1EBC10103EB8101CF
:103F980091F8FE01704701F07F01C1EBC10103EB0D
:103FA800810191F83E007047D0F8980208B502F0F8
:103FB80067FE032802D8024B185C08BD022008BD22
:103FC80040F20008D0F8980208B502F0D5FE0328A0
:103FD80002D8024B185C08BD022008BD40F2000858
:103FE800D0F8980208B502F09FFE032802D8024BC9
:103FF800185C08BD022008BD40F20008D0F8C002D5
:1040080007F0B0BED0F8C00207F0C4BED0F8C002B6
:1040180007F0CCBE704700BFD0F8C00207F0B2BEB0
:10402800D0F8C00207F0B2BED0F8D00308B501F04E
:10403800A3FF032802D8024B185C08BD022008BD64
:1040480044F20008024B027853F82200704700BF80
:1040580068F20008024B427833F81200704700BF3C
:1040680048F200088CB00A2814D8DFE800F01523BD
:10407800313F4D5B6977859306004D4BD3F8E020BF
:1040880042F48062C3F8E020D3F8E03003F48063A0
:104098000B930B9B0CB07047454BD3F8E02042F0D4
:1040A8000102C3F8E020D3F8E03003F001030193E4
:1040B800019BEFE73E4BD3F8E02042F00202C3F841
:1040C800E020D3F8E03003F002030293029BE1E71B
:1040D800374BD3F8E02042F00402C3F8E020D3F8CD
:1040E800E03003F004030393039BD3E7304BD3F88A
:1040F800E02042F00802C3F8E020D3F8E03003F0F3
:1041080008030493049BC5E7294BD3F8E02042F049
:104118001002C3F8E020D3F8E03003F01003059351
:10412800059BB7E7224BD3F8E02042F02002C3F802
:10413800E020D3F8E03003F020030693069BA9E7BC
:104148001B4BD3F8E02042F04002C3F8E020D3F83C
:10415800E03003F040030793079B9BE7144BD3F829
:10416800E02042F08002C3F8E020D3F8E03003F00A
:1041780080030893089B8DE70D4BD3F8E02042F4A9
:104188008072C3F8E020D3F8E03003F48073099319
:10419800099B7FE7064BD3F8E02042F40072C3F88E
:1041A800E020D3F8E03003F400730A930A9B71E728
:1041B80000440258704700BF0F4B1B780BB9012011
:1041C800704710B504464FF47A700C4AB0FBF3F30D
:1041D8001068B0FBF3F000F0E1F80F2C00D808B13C
:1041E800012010BD002221464FF0FF3000F076F884
:1041F800034B00201C6010BD840100247C010024B6
:104208008801002438B50320124D00F055F8124CEF
:1042180003F0D4FD114A12499369C3F30323CB5C1D
:1042280003F01F0320FA03F30E202B60926902F0BB
:104238000F028A5C02F01F02D3402360FFF7BCFF25
:1042480010B10124204638BD0446FFF7B3FF2046CD
:1042580038BD00BF7C0100248001002400440258BE
:1042680030F20008034A044B11681B780B441360B2
:10427800704700BF741F002484010024014B186894
:10428800704700BF741F002438B50446FFF7F6FFD7
:104298000546631C02D0044B1B781C44FFF7EEFF55
:1042A800431BA342FAD338BD84010024014B18688C
:1042B800000C70470010005C06494FF6FF0C000226
:1042C800054BCA6800F4E06002EA0C02104303439D
:1042D800CB60704700ED00E00000FA051B4BDB687F
:1042E800C3F3022300B5C3F1070E03F1040CBEF1BA
:1042F800040F28BF4FF0040EBCF1060F1AD9033B78
:104308004FF0FF3C0CFA03FC22EA0C024FF0FF3C92
:1043180000280CFA0EFC21EA0C0101FA03F141EA2B
:1043280002010ADB09010A4BC9B2034483F80013EE
:104338005DF804FB00221346E8E700F00F000901CE
:10434800044BC9B2034419765DF804FB00ED00E0A4
:1043580000E100E0FCEC00E0002807DB00F01F01B2
:1043680001234009024A8B4042F82030704700BFC1
:1043780000E100E000280DDB4309012200F01F00E6
:104388000549203302FA00F041F82300BFF34F8FAC
:10439800BFF36F8F704700BF00E100E0431EB3F129
:1043A800807F0CD24FF0E022002006494FF0F00C3D
:1043B8005361072381F823C090611361704701207E
:1043C800704700BF00ED00E0BFF35F8F044B002192
:1043D8005A6A22F480325A62C3F89410704700BFB8
:1043E80000ED00E0064B40F00100C3F894005A6A63
:1043F80042F480325A62BFF34F8FBFF36F8F70471A
:1044080000ED00E0174A4378C2F89830017821B3EC
:10441800436800B5C2F89C30C37A90F80CC01B06FC
:1044280090F80FE043EA0C7390F80AC00B43817BC5
:1044380043EACC4390F80DC043EA8C4390F809C096
:1044480043EA4143017A43EA0E4343EA0C2343EA31
:104458004103C2F8A0305DF804FBC2F89C10C2F812
:10446800A010704700ED00E0704700BF08B5FFF7E7
:10447800FBFF08BD0268344B344930B4344D354C29
:10448800AA4218BF9A420CBF012300238A4208BFE0
:1044980043F001033031A24208BF43F00103303436
:1044A8008A4208BF43F001033031A24208BF43F0FB
:1044B800010330348A4208BF43F0010301F55C71FF
:1044C800A24208BF43F0010304F55C748A4208BFA6
:1044D80043F001033031A24208BF43F001033034F6
:1044E8008A4208BF43F001033031A24208BF43F0BB
:1044F800010330348A4208BF43F001033031A2423D
:1045080008BF43F001038A4208BF43F0010313B90F
:10451800114B9A4213D1D3B21049114C103BA1FB55
:1045280003515F2B0F4BC1F3021103EA0203615CD5
:1045380088BF0433C1658365184630BC704722F0D4
:10454800FF038365F8E700BF100002404000024007
:104558002800024058000240B8040240ABAAAAAAA8
:1045680098F2000800FCFFFF0368294A294930B483
:10457800294D2A4CAB4218BF93420CBF012200229E
:104588008B4208BF42F001022831A34208BF42F023
:10459800010228348B4208BF42F001022831A342AD
:1045A80008BF42F001028B4208BF42F0010212B973
:1045B8001B4A934213D1DBB21A4C1B4A0121083B18
:1045C8001A4DA4FB0343456602EB1312C3F304130D
:1045D800920001FA03F30266836630BC7047DAB2D0
:1045E8001349144C1944103AA829A4FB02234FEA92
:1045F800131300D80833104A03F01F0501210F4C8C
:104608001A44A9404466920081660266E5E700BF45
:1046180008540258305402581C5402584454025842
:1046280094540258CDCCCCCC009600168058025831
:10463800F0FBFDBFABAAAAAA0082001080080240C6
:1046480070B50446FFF71AFE002C00F0C6802368F8
:104658000546954A934248D01832934245D03032A5
:1046680092498B4218BF934201F130010CBF0122DD
:1046780000228B4208BF42F0010218318B4208BF6A
:1046880042F0010218318B4208BF42F00102183192
:104698008B4208BF42F0010201F556718B4208BFF8
:1046A80042F0010218318B4208BF42F00102183172
:1046B8008B4208BF42F0010218318B4208BF42F01A
:1046C800010218318B4208BF42F0010218318B42B7
:1046D80008BF42F0010218318B4208BF42F00102C4
:1046E8001AB9734A934240F0F5800222002184F8F7
:1046F800352084F834101A6822F001021A6005E0A7
:10470800FFF7BCFD431B052B40D823681A68D10767
:10471800F6D4D4E9022521692A43A0691D680A4311
:1047280061690A43E16902430A4362492940256AEB
:104738002A430A43616A04292FD01A605A6922F071
:104748000702114359612046FFF794FEE26D3F23AB
:1047580002F01F02934083602046FFF705FFA3681D
:10476800802B3CD06368A06EDAB2013BD4E91851C3
:10477800072B2A60486026D90023C4E91B336367E6
:1047880000200123606584F8353070BD20220323A2
:104798000120626584F8353070BDD4E90B51294396
:1047A8000A431A605969A26A21F00701114341F0CE
:1047B8000401002DC6D000284FD1012A6ED032F056
:1047C8000202BFD151E0501E072810D9626FD4E908
:1047D8001B31002018604A60D2E7012070BD002319
:1047E800A16ED4E91802636003605160C4E72168D0
:1047F800314B324DA94218BF994205F114050CBF3F
:1048080001230023A94208BF43F001031435A9423C
:1048180008BF43F001031435A94208BF43F0010360
:104828001435A94208BF43F001031435A94208BF53
:1048380043F001033BB9224B994204D0214B224952
:1048480013449B0003E0214B214913449B000122A0
:104858008240C4E91B316267BBE7B0F5005F0ED048
:10486800022A05D9032A7FF46DAFEA017FF56AAF02
:10487800012340221846626584F8353070BD032A4A
:104888003FF660AF01A050F822F000BF7948000859
:104898007348000879480008A5480008B5F1C07FAA
:1048A8007FF450AFE4E700BF100002404000024030
:1048B800B80402403F8010FE085402581C540258A5
:1048C800945402583F820010400902403F96001657
:1048D80040590258324A33483349834218BF9342F9
:1048E80000F128000CBF012200228B4208BF42F0D1
:1048F80001022831834208BF42F0010228308B426E
:1049080008BF42F001022831834208BF42F0010289
:104918008B4208BF42F0010212B9244A934238D1AF
:1049280002220021224D84F8341084F835201A68B8
:104938001540A268402A2AD0802A0CBF4FF4804034
:104948000846266AD4E90312D20842EAD10261690C
:1049580042EAD102A16942EAD102E16942EAD102FE
:10496800144942EA161219442A4302431248A0FB8A
:10497800010120461A600B099B00E365FFF77AFDE9
:10498800E26D012302F01F0293404360E4E6102029
:10499800D7E7402203230120626584F8353070BDD3
:1049A800085402581C54025830540258945402585F
:1049B8000F00FEFFF8ABFDA7CDCCCCCC002800F053
:1049C800BC80844690F83400012800F0B8800120AB
:1049D8002DE9F0419CF835408CF83400844208D029
:1049E80000224FF400638CF83420CCF85430BDE832
:1049F800F0810220DCF800507A4C8CF83500002059
:104A0800794ECCF854007948854218BFA54200F188
:104A180018000CBF01240024854208BF44F001049B
:104A28001830854208BF44F001041830854208BF99
:104A380044F001041830854208BF44F0010400F531
:104A48005670854208BF44F001041830854208BFFB
:104A580044F001041830854208BF44F001041830BE
:104A6800854208BF44F001041830854208BF44F06D
:104A780001041830854208BF44F00104183085420B
:104A880008BF44F001041830854208BF44F001040F
:104A9800A0F59560B54218BF8542DCF86C600CBF84
:104AA8000120002054EA0008286820F0010028604E
:104AB800DCF86400DCF86840DCF85870446040D0EA
:104AC80016B1DCE91C044460DCF85C004FF03F0ED2
:104AD80000F01F000EFA00F0B860286820F480206B
:104AE80028606B60DCF80830402B23D0A960EA60AE
:104AF8002B6823F01E0343F016032B60DCF84030CC
:104B08001BB12B6843F008032B60DCF860301A688F
:104B1800D20303D51A6842F480721A601EB1336852
:104B280043F4807333602B68002043F001032B604B
:104B3800BDE8F081AA60E960DAE701207047022049
:104B4800704716B1DCE91C0444602948DFF8A8E086
:104B5800754518BF85420EF1140E0CBF01200020C8
:104B6800754508BF40F001000EF1140E754508BFE9
:104B780040F001000EF1140E754508BF40F0010029
:104B88000EF1140E754508BF40F001000EF1140E29
:104B9800754508BF40F0010010B9164885420ED18E
:104BA800DCF85C0000F01F0E012000FA0EF07860BF
:104BB8006B60DCF80830402B10D0A960EA602B68E5
:104BC80023F00E0343F00A032B60DCF84030002B7F
:104BD8009BD02B6843F004032B6096E7AA60E9603A
:104BE800EDE700BF400002402800024058000240A4
:104BF80008540258945402581C54025800285FD094
:104C080038B590F835200346022A55D10168444A40
:104C1800914248D01832914245D03032414C4248F6
:104C2800A14218BF914204F148040CBF012200229E
:104C3800814208BF42F001023030A14208BF42F071
:104C480001023034814208BF42F0010200F55C7075
:104C5800A14208BF42F0010204F55C74814208BF1A
:104C680042F001023030A14208BF42F00102303464
:104C7800814208BF42F001023030A14208BF42F031
:104C880001023034814208BF42F001023030A142B3
:104C980008BF42F00102814208BF42F0010212B986
:104CA800224A91420ED10422002083F835200B6855
:104CB80023F001030B6038BD802201205A6538BDFE
:104CC800012070470A681C6E22F00E02D86D9D6D97
:104CD8000A6000F01F000A6822F001020A6001223F
:104CE8002168824021F4807121606A60DA6ED3E91C
:104CF8001910486032B11168D3E91C0421F480719D
:104D080011604460002401211A6D83F8344083F84F
:104D180035101AB118469047204638BD104638BDA0
:104D2800100002404000024070000240B8040240F7
:104D38002DE9F04300229C4B83B09C4E1D688146B0
:104D4800019203689A4A846D934218BFB342276858
:104D580008BF0126216818BF002645D0183295489B
:104D6800834218BF934200F118000CBF01220022B1
:104D7800834208BF42F001021830834208BF42F064
:104D880001021830834208BF42F001021830834202
:104D980008BF42F0010200F55670834208BF42F096
:104DA80001021830834208BF42F0010218308342E2
:104DB80008BF42F001021830834208BF42F00102E6
:104DC8001830834208BF42F001021830834208BFFE
:104DD80042F001021830834208BF42F001021AB9BA
:104DE800754A934240F05082D9F85C10082201F0CD
:104DF8001F0C02FA0CF2174240F0888127FA0CF2D5
:104E0800D2070CD55A69100609D5012202FA0CF20C
:104E1800A260D9F8542042F00202C9F854204FF099
:104E2800040E0EFA0CF038425BD0002E4FD1634AC4
:104E3800DFF88081434518BF934208F118080CBF7A
:104E480001220022434508BF42F0010208F1180878
:104E5800434508BF42F0010208F11808434508BF5E
:104E680042F0010208F11808434508BF42F0010268
:104E780008F55678434508BF42F0010208F11808C2
:104E8800434508BF42F0010208F11808434508BF2E
:104E980042F0010208F11808434508BF42F0010238
:104EA80008F11808434508BF42F0010208F1180844
:104EB800434508BF42F0010208F11808434508BFFE
:104EC80042F001021AB93C4A934240F019821A682A
:104ED800920706D5A060D9F8542042F00402C9F818
:104EE8005420102202FA0CFC1CEA070F6CD0002E8A
:104EF80045D1324A2F4EB34218BF934206F11806E5
:104F08000CBF01220022B34208BF42F0010218364A
:104F1800B34208BF42F001021836B34208BF42F05C
:104F280001021836B34208BF42F0010206F5567670
:104F3800B34208BF42F001021836B34208BF42F03C
:104F480001021836B34208BF42F001021836B342D4
:104F580008BF42F001021836B34208BF42F001020E
:104F68001836B34208BF42F001021836B34208BFF0
:104F780042F001021AB9104A934240F0C9811A68F6
:104F8800100721D5C4F808C01A68560300F14C81EF
:104F98001A68D20503D41A6822F008021A60D9F8F0
:104FA80040308BB10CE000BF7C01002410000240AF
:104FB8002800024058000240B80402404000024065
:104FC80048469847D9F85C1001F01F0120268E400A
:104FD8003E4268D0D9F80020A54BA64FBA4218BF68
:104FE8009A4207F118070CBF01230023BA4208BFF1
:104FF80043F001031837BA4208BF43F001031837DA
:10500800BA4208BF43F001031837BA4208BF43F059
:1050180001031837BA4208BF43F001031837BA42F0
:1050280008BF43F0010307F55677BA4208BF43F0BB
:1050380001031837BA4208BF43F001031837BA42D0
:1050480008BF43F001031837BA4208BF43F0010311
:105058001837BA4208BF43F001031837BA4208BFED
:1050680043F001031837BA4208BF43F001031BB9E4
:10507800814B9A4240F062811368DB0613D5A66023
:1050880099F83530042B136800F0AE8013F4802FA4
:10509800136800F0D3801C0340F1DE80D9F83C305F
:1050A8000BB148469847D9F85430002B00F0B98026
:1050B800D9F85430D8071FD5D9F80020042189F829
:1050C8003510136823F0010313606C4BA3FB0535FF
:1050D800AD0A02E01368D90704D5019B0133AB423E
:1050E8000193F7D9002389F834301368DB074CBFE4
:1050F8000323012389F83530D9F84C30002B00F010
:105108009080484603B0BDE8F04318471868400748
:105118000AD5186820F004001860A260D9F8542055
:1051280042F00102C9F8542027FA0CF2D2077FF5A1
:1051380076AE534A5348834218BF934200F1300079
:105148000CBF01220022834208BF42F0010218303E
:10515800834208BF42F001021830834208BF42F080
:1051680001021830834208BF42F0010200F5567070
:10517800834208BF42F001021830834208BF42F060
:1051880001021830834208BF42F0010218308342FE
:1051980008BF42F001021830834208BF42F0010202
:1051A8001830834208BF42F001021830834208BF1A
:1051B80042F001021830834208BF42F00102002A7F
:1051C8007FF420AE002E7FF41DAE1A68042202FA86
:1051D8000CF23A4240F09480102202FA0CFC17EAD2
:1051E8000C0F3FF4F1AE84E623F016031360536905
:1051F80023F080035361D9F840309BB3136823F040
:10520800080313603F230025012203FA01F1D9F8AE
:105218005030A16089F8345089F83520002B7FF48C
:1052280070AF03B0BDE8F0831B6818037FF5B7AE15
:10523800D9F84830002B7FF4C3AEC5E613F4807369
:105248007FF42CAF116821F010011160012289F858
:10525800343089F8352021E7D9F84430002B7FF421
:1052680020AF20E7D9F84830002BC7D1CAE700BFE4
:105278001000024028000240B8040240B5814E1BCD
:1052880058000240400002404E4A4F4DAB4218BF02
:10529800934205F114050CBF01220022AB4208BF5E
:1052A80042F001021435AB4208BF42F00102143546
:1052B800AB4208BF42F001021435AB4208BF42F0CE
:1052C80001021435AB4208BF42F0010212B93F4A4D
:1052D8009342A6D1D9F85C5004261A6805F01F0538
:1052E800AE400E4219D0570717D5100466604BD54B
:1052F800D1034FD4D9F84830002B7FF402AF90E7A0
:105308001A68102202FA0CFC17EA0C0F3FF45CAE84
:105318001A6852077FF558AE34E60226AE400E42B0
:1053280011D097070FD56660140439D5D00343D43C
:10533800D9F84430002B7FF4E4AE72E713689F0776
:105348007FF5B1AE9BE60826AE400E423FF469AF4A
:1053580011077FF566AF1A68002122F00E021A6065
:105368000123D9F84C2003FA05F56560C9F85430D3
:1053780089F8341089F83530002A3FF452AF48468E
:1053880003B0BDE8F0431047920603D41A6822F030
:1053980004021A60D9F84030002B7FF4B2AE40E71F
:1053A80012F0200208D11968012421F00A011960BD
:1053B80089F8342089F83540D9F83C30002B7FF43F
:1053C800A0AE2EE7085402581C54025894540258B0
:1053D800406D70472DE9F04F0D6883B0002D00F047
:1053E800D5800023DFF8688201229A4012EA050C72
:1053F80000F0C7804E6826F01009B9F1020F40F09E
:10540800C88003F007044FEAD30E4FF00F0A4FEAA3
:10541800840900EB8E0E0AFA09FADEF8204024EA25
:105428000A0A0C6904FA09F406F0030944EA0A04B2
:10543800CEF820404FEA430E0324D0F800A009FA22
:105448000EF904FA0EF42AEA040AE44349EA0A09BE
:10545800C0F80090D0F808A0CF6804EA0A0A07FA52
:105468000EF949EA0A09C0F80890C6F30019D0F8FD
:1054780004A009FA03F92AEA020249EA0202426090
:10548800C268F70004EA02048A6802FA0EF242EAE5
:105498000402C26075D5644C23F0030E03F00309BF
:1054A800D4F8F420C6444FEA890942F00202C4F84D
:1054B800F420D4F8F42002F002020192019A0F229B
:1054C800DEF8084002FA09F224EA0202574CA04228
:1054D80025D004F58064A0427BD0554CA0427ED0F4
:1054E800544CA0426FD0544CA04200F08480534CDE
:1054F800A04200F08680524CA04276D0514CA04287
:1055080000F08580504CA04200F087804F4CA042AC
:105518000CBF09240A2404FA09F942EA0902CEF860
:1055280008204FF0B0426FEA0C0EF403D2F8802046
:105538004FF0B04454BF0EEA02024CEA0202C4F82B
:105548008020B203D4F884404FF0B04254BF0EEA32
:1055580004044CEA0404F702C2F8844014684FF0CB
:10556800B04254BF0EEA04044CEA04041460B402C6
:1055780052684FF0B04454BF0EEA02024CEA0202ED
:105588006260013335FA03F27FF42EAF03B0BDE851
:10559800F08F4FEA430E0324D0F800B006F0030A58
:1055A80004FA0EF409F1FF390AFA0EFA2BEA040B91
:1055B800B9F1010F6FEA04044AEA0B0AC0F800A027
:1055C8003FF65EAF46E7032404FA09F942EA090206
:1055D800A5E7012404FA09F942EA09029FE702242F
:1055E80004FA09F942EA090299E7062404FA09F9D2
:1055F80042EA090293E7042404FA09F942EA090293
:105608008DE7052404FA09F942EA090287E7072425
:1056180004FA09F942EA090281E7082404FA09F9B7
:1056280042EA09027BE700BF004402580000025822
:1056380000080258000C02580010025800140258C2
:1056480000180258001C0258002002580024025872
:1056580000040058002900F0A88000232DE9F04F2D
:10566800DFF8689183B0DFF86881DFF868A1DFF8B8
:1056780068B14FF0010E0EFA03F212EA010C6FD076
:1056880023F0030503F003040F2640454D444FEA79
:10569800C404AF6806FA04F607EA0607019721D0A2
:1056A800504566D0584567D0434FB8426ED0434FF7
:1056B800B84270D0424FB84263D0424FB84256D039
:1056C800414FB84272D0DFF814E1704568D0DFF876
:1056D80010E1704514BF4FF00A0E4FF0090E0EFA94
:1056E80004F400E00024019FA74219D1AC6824EA21
:1056F80006064FF0B044AE60D4F8805025EA0C0599
:10570800C4F88050D4F8845025EA0C05C4F88450B5
:10571800256825EA0C052560656825EA0C0565609D
:1057280003255C0003F007070F2605FA04F4056853
:10573800BF00254306FA07F70560DD0800EB85057D
:105748002E6A26EA07062E62856825EA0405856022
:10575800456825EA02024260C26822EA0404C4607D
:10576800013331FA03F284D103B0BDE8F08F4FF072
:10577800060E0EFA04F4B6E74FF0020E0EFA04F421
:10578800B1E74FF0050E0EFA04F4ACE74FF0030E44
:105798000EFA04F4A7E74FF0040E0EFA04F4A2E799
:1057A8004FF0080E0EFA04F49DE770474FF0070E0D
:1057B8000EFA04F497E700BF000C025800100258D4
:1057C8000014025800180258001C0258000400581F
:1057D800000002580004025800080258002002582D
:1057E800002402580369194214BF012000207047A1
:1057F80002B90904816170472DE9F04F056885B049
:105808000446284605F082FC012802D005B0BDE810
:10581800F08F206805F02AFC0028F7D0206805F0F2
:1058280025FC10F4001F206802D04FF400134361D8
:1058380005F01CFC10F4801F206802D04FF4801380
:10584800436105F013FC10F0806F206802D04FF020
:105858008063436105F00AFC10F0020F20682FD125
:1058680005F004FC870000F11381206805F0FEFBB9
:10587800C60100F1CF80206805F0F8FB000700F1B1
:10588800BE80206805F0F2FB10F0007F20681AD176
:1058980005F0ECFBC306B9D52568AB6923F0100306
:1058A800AB612E6AC6F34341C6F30A17022902D137
:1058B800002F40F0C681AB6943F01003AB61A5E748
:1058C80002234361CCE705F08FFCD4F808E080465A
:1058D8002068BEF1000F00F0998005F5A06500264C
:1058E8004FF0280B4FF0020A4AE000F5A0694A0180
:1058F80009EB4117BB685B075DD50423BB60FB68F8
:1059080043F00203FB60BB68980500F1FD80BB68AB
:10591800DB0740F1CF80236953B101EB81003B697C
:1059280004EBC000C3F3120C836CA3EB0C03C36439
:105938008B004FF0010C4FF0000E581804EBC0001C
:10594800C0F858E080F85DC0C7F808C090F83FE09C
:105958001EF0FD0F00F06481BEF1030F00F04082DD
:105968000B4404EBC30393F8502082F0010283F840
:105978005020D4F808E0206801362035764545D215
:1059880006F00F0328FA03F3D907F5D52B68F1B20F
:105998001A04AAD400F5A0624FEA411C02EB411791
:1059A800BB6813F004090DD00423BB60FB6843F007
:1059B8000203FB60E0E7BB689B0640F1B38020234D
:1059C800BB60A0E7BB6813F0200300F0CA8001EBBE
:1059D8008103202204EBC303BA6093F83D20012A17
:1059E800CAD183F83D9083F85CA0FB6843F00203BA
:1059F800FB6005F0FDFBD4F808E02068BCE7204612
:105A0800FEF7FCFA2068082343613BE74FF0007378
:105A180043613DE72668D6F840340293D6F840340F
:105A28000393039B23F02E030393029B980707D548
:105A3800029BD90700F16381039B43F002030393A0
:105A4800029B1A0718D5039B43F008030393029B94
:105A58005B0740F15C81A169022900F09A81E36843
:105A6800012B03D14EF66022C6F804242046FEF727
:105A7800D3FA2046FEF7C6FA2068029B9F0603D594
:105A8800039B43F020030393039BC6F84034F3E6DB
:105A9800D5F84034204623F02E03C5F84034FEF7ED
:105AA800B5FA0121206805F07DFB20684FF000530E
:105AB8004361DBE6BB68980740F18E80FB6801EB29
:105AC800810C23F0020304EBCC0CFB608B009CF8E8
